{"abi":[{"type":"constructor","inputs":[{"name":"name_","type":"string","internalType":"string"},{"name":"symbol_","type":"string","internalType":"string"},{"name":"usdc_","type":"address","internalType":"address"},{"name":"oracle_","type":"address","internalType":"address"},{"name":"oracleKey_","type":"address","internalType":"address"}],"stateMutability":"nonpayable"},{"type":"function","name":"ORACLE_UNIT","inputs":[],"outputs":[{"name":"","type":"uint256","internalType":"uint256"}],"stateMutability":"view"},{"type":"function","name":"TOKEN_UNIT","inputs":[],"outputs":[{"name":"","type":"uint256","internalType":"uint256"}],"stateMutability":"view"},{"type":"function","name":"USDC_UNIT","inputs":[],"outputs":[{"name":"","type":"uint256","internalType":"uint256"}],"stateMutability":"view"},{"type":"function","name":"allowance","inputs":[{"name":"owner","type":"address","internalType":"address"},{"name":"spender","type":"address","internalType":"address"}],"outputs":[{"name":"","type":"uint256","internalType":"uint256"}],"stateMutability":"view"},{"type":"function","name":"approve","inputs":[{"name":"spender","type":"address","internalType":"address"},{"name":"value","type":"uint256","internalType":"uint256"}],"outputs":[{"name":"","type":"bool","internalType":"bool"}],"stateMutability":"nonpayable"},{"type":"function","name":"authorizedProtocol","inputs":[{"name":"","type":"address","internalType":"address"}],"outputs":[{"name":"","type":"bool","internalType":"bool"}],"stateMutability":"view"},{"type":"function","name":"balanceOf","inputs":[{"name":"account","type":"address","internalType":"address"}],"outputs":[{"name":"","type":"uint256","internalType":"uint256"}],"stateMutability":"view"},{"type":"function","name":"currentPrice","inputs":[],"outputs":[{"name":"price","type":"uint256","internalType":"uint256"}],"stateMutability":"view"},{"type":"function","name":"decimals","inputs":[],"outputs":[{"name":"","type":"uint8","internalType":"uint8"}],"stateMutability":"view"},{"type":"function","name":"depositReserve","inputs":[{"name":"usdcAmount","type":"uint256","internalType":"uint256"}],"outputs":[],"stateMutability":"nonpayable"},{"type":"function","name":"mint","inputs":[{"name":"usdcAmount","type":"uint256","internalType":"uint256"}],"outputs":[{"name":"tokensOut","type":"uint256","internalType":"uint256"}],"stateMutability":"nonpayable"},{"type":"function","name":"name","inputs":[],"outputs":[{"name":"","type":"string","internalType":"string"}],"stateMutability":"view"},{"type":"function","name":"oracle","inputs":[],"outputs":[{"name":"","type":"address","internalType":"contract IOracle"}],"stateMutability":"view"},{"type":"function","name":"oracleKey","inputs":[],"outputs":[{"name":"","type":"address","internalType":"address"}],"stateMutability":"view"},{"type":"function","name":"owner","inputs":[],"outputs":[{"name":"","type":"address","internalType":"address"}],"stateMutability":"view"},{"type":"function","name":"previewMint","inputs":[{"name":"usdcAmount","type":"uint256","internalType":"uint256"}],"outputs":[{"name":"","type":"uint256","internalType":"uint256"}],"stateMutability":"view"},{"type":"function","name":"previewRedeem","inputs":[{"name":"tokenAmount","type":"uint256","internalType":"uint256"}],"outputs":[{"name":"","type":"uint256","internalType":"uint256"}],"stateMutability":"view"},{"type":"function","name":"protocolBurn","inputs":[{"name":"from","type":"address","internalType":"address"},{"name":"amount","type":"uint256","internalType":"uint256"}],"outputs":[],"stateMutability":"nonpayable"},{"type":"function","name":"protocolMint","inputs":[{"name":"to","type":"address","internalType":"address"},{"name":"amount","type":"uint256","internalType":"uint256"}],"outputs":[],"stateMutability":"nonpayable"},{"type":"function","name":"redeem","inputs":[{"name":"tokenAmount","type":"uint256","internalType":"uint256"}],"outputs":[{"name":"usdcOut","type":"uint256","internalType":"uint256"}],"stateMutability":"nonpayable"},{"type":"function","name":"renounceOwnership","inputs":[],"outputs":[],"stateMutability":"nonpayable"},{"type":"function","name":"rescueToken","inputs":[{"name":"token","type":"address","internalType":"address"}],"outputs":[],"stateMutability":"nonpayable"},{"type":"function","name":"setAuthorizedProtocol","inputs":[{"name":"protocol","type":"address","internalType":"address"},{"name":"authorized","type":"bool","internalType":"bool"}],"outputs":[],"stateMutability":"nonpayable"},{"type":"function","name":"setOracle","inputs":[{"name":"oracle_","type":"address","internalType":"address"},{"name":"key_","type":"address","internalType":"address"}],"outputs":[],"stateMutability":"nonpayable"},{"type":"function","name":"symbol","inputs":[],"outputs":[{"name":"","type":"string","internalType":"string"}],"stateMutability":"view"},{"type":"function","name":"totalSupply","inputs":[],"outputs":[{"name":"","type":"uint256","internalType":"uint256"}],"stateMutability":"view"},{"type":"function","name":"transfer","inputs":[{"name":"to","type":"address","internalType":"address"},{"name":"value","type":"uint256","internalType":"uint256"}],"outputs":[{"name":"","type":"bool","internalType":"bool"}],"stateMutability":"nonpayable"},{"type":"function","name":"transferFrom","inputs":[{"name":"from","type":"address","internalType":"address"},{"name":"to","type":"address","internalType":"address"},{"name":"value","type":"uint256","internalType":"uint256"}],"outputs":[{"name":"","type":"bool","internalType":"bool"}],"stateMutability":"nonpayable"},{"type":"function","name":"transferOwnership","inputs":[{"name":"newOwner","type":"address","internalType":"address"}],"outputs":[],"stateMutability":"nonpayable"},{"type":"function","name":"usdc","inputs":[],"outputs":[{"name":"","type":"address","internalType":"contract IERC20"}],"stateMutability":"view"},{"type":"event","name":"Approval","inputs":[{"name":"owner","type":"address","indexed":true,"internalType":"address"},{"name":"spender","type":"address","indexed":true,"internalType":"address"},{"name":"value","type":"uint256","indexed":false,"internalType":"uint256"}],"anonymous":false},{"type":"event","name":"Minted","inputs":[{"name":"user","type":"address","indexed":true,"internalType":"address"},{"name":"usdcIn","type":"uint256","indexed":false,"internalType":"uint256"},{"name":"tokensOut","type":"uint256","indexed":false,"internalType":"uint256"},{"name":"price","type":"uint256","indexed":false,"internalType":"uint256"}],"anonymous":false},{"type":"event","name":"OracleUpdated","inputs":[{"name":"newOracle","type":"address","indexed":true,"internalType":"address"},{"name":"newKey","type":"address","indexed":false,"internalType":"address"}],"anonymous":false},{"type":"event","name":"OwnershipTransferred","inputs":[{"name":"previousOwner","type":"address","indexed":true,"internalType":"address"},{"name":"newOwner","type":"address","indexed":true,"internalType":"address"}],"anonymous":false},{"type":"event","name":"ProtocolAuthSet","inputs":[{"name":"protocol","type":"address","indexed":true,"internalType":"address"},{"name":"authorized","type":"bool","indexed":false,"internalType":"bool"}],"anonymous":false},{"type":"event","name":"Redeemed","inputs":[{"name":"user","type":"address","indexed":true,"internalType":"address"},{"name":"tokensIn","type":"uint256","indexed":false,"internalType":"uint256"},{"name":"usdcOut","type":"uint256","indexed":false,"internalType":"uint256"},{"name":"price","type":"uint256","indexed":false,"internalType":"uint256"}],"anonymous":false},{"type":"event","name":"ReserveDeposited","inputs":[{"name":"by","type":"address","indexed":true,"internalType":"address"},{"name":"usdcAmount","type":"uint256","indexed":false,"internalType":"uint256"}],"anonymous":false},{"type":"event","name":"Transfer","inputs":[{"name":"from","type":"address","indexed":true,"internalType":"address"},{"name":"to","type":"address","indexed":true,"internalType":"address"},{"name":"value","type":"uint256","indexed":false,"internalType":"uint256"}],"anonymous":false},{"type":"error","name":"ERC20InsufficientAllowance","inputs":[{"name":"spender","type":"address","internalType":"address"},{"name":"allowance","type":"uint256","internalType":"uint256"},{"name":"needed","type":"uint256","internalType":"uint256"}]},{"type":"error","name":"ERC20InsufficientBalance","inputs":[{"name":"sender","type":"address","internalType":"address"},{"name":"balance","type":"uint256","internalType":"uint256"},{"name":"needed","type":"uint256","internalType":"uint256"}]},{"type":"error","name":"ERC20InvalidApprover","inputs":[{"name":"approver","type":"address","internalType":"address"}]},{"type":"error","name":"ERC20InvalidReceiver","inputs":[{"name":"receiver","type":"address","internalType":"address"}]},{"type":"error","name":"ERC20InvalidSender","inputs":[{"name":"sender","type":"address","internalType":"address"}]},{"type":"error","name":"ERC20InvalidSpender","inputs":[{"name":"spender","type":"address","internalType":"address"}]},{"type":"error","name":"OwnableInvalidOwner","inputs":[{"name":"owner","type":"address","internalType":"address"}]},{"type":"error","name":"OwnableUnauthorizedAccount","inputs":[{"name":"account","type":"address","internalType":"address"}]},{"type":"error","name":"ReentrancyGuardReentrantCall","inputs":[]},{"type":"error","name":"SafeERC20FailedOperation","inputs":[{"name":"token","type":"address","internalType":"address"}]}],"bytecode":{"object":"0x60a060405234801561000f575f5ffd5b50604051611b51380380611b5183398101604081905261002e916102b8565b338585600361003d83826103d1565b50600461004a82826103d1565b5050506001600160a01b03811661007b57604051631e4fbdf760e01b81525f60048201526024015b60405180910390fd5b610084816101af565b5060017f9b779b17422d0df92223018b32b4d1fa46e071723d6817e2486d003becc55f00556001600160a01b0383166100eb5760405162461bcd60e51b81526020600482015260096024820152687a65726f207573646360b81b6044820152606401610072565b6001600160a01b03821661012f5760405162461bcd60e51b815260206004820152600b60248201526a7a65726f206f7261636c6560a81b6044820152606401610072565b6001600160a01b0381166101765760405162461bcd60e51b815260206004820152600e60248201526d7a65726f206f7261636c654b657960901b6044820152606401610072565b6001600160a01b03928316608052600680549284166001600160a01b0319938416179055600780549190931691161790555061048b9050565b600580546001600160a01b038381166001600160a01b0319831681179093556040519116919082907f8be0079c531659141344cd1fd0a4f28419497f9722a3daafe3b4186f6b6457e0905f90a35050565b634e487b7160e01b5f52604160045260245ffd5b5f82601f830112610223575f5ffd5b81516001600160401b0381111561023c5761023c610200565b604051601f8201601f19908116603f011681016001600160401b038111828210171561026a5761026a610200565b604052818152838201602001851015610281575f5ffd5b8160208501602083015e5f918101602001919091529392505050565b80516001600160a01b03811681146102b3575f5ffd5b919050565b5f5f5f5f5f60a086880312156102cc575f5ffd5b85516001600160401b038111156102e1575f5ffd5b6102ed88828901610214565b602088015190965090506001600160401b0381111561030a575f5ffd5b61031688828901610214565b9450506103256040870161029d565b92506103336060870161029d565b91506103416080870161029d565b90509295509295909350565b600181811c9082168061036157607f821691505b60208210810361037f57634e487b7160e01b5f52602260045260245ffd5b50919050565b601f8211156103cc57805f5260205f20601f840160051c810160208510156103aa5750805b601f840160051c820191505b818110156103c9575f81556001016103b6565b50505b505050565b81516001600160401b038111156103ea576103ea610200565b6103fe816103f8845461034d565b84610385565b6020601f821160018114610430575f83156104195750848201515b5f19600385901b1c1916600184901b1784556103c9565b5f84815260208120601f198516915b8281101561045f578785015182556020948501946001909201910161043f565b508482101561047c57868401515f19600387901b60f8161c191681555b50505050600190811b01905550565b60805161168b6104c65f395f818161024f0152818161053a01528181610ab201528181610cac01528181610d9b0152610e6c015261168b5ff3fe608060405234801561000f575f5ffd5b50600436106101d1575f3560e01c80638da5cb5b116100fe578063a5c9cd821161009e578063dd62ed3e1161006e578063dd62ed3e146103e4578063f2fde38b1461041c578063f42d48a11461042f578063fe51de1f14610442575f5ffd5b8063a5c9cd821461039c578063a9059cbb146103ab578063b3d7f6b9146103be578063db006a75146103d1575f5ffd5b80639a4f3260116100d95780639a4f32601461035b5780639d1b464a1461036e5780639d1f048e14610376578063a0712d6814610389575f5ffd5b80638da5cb5b1461032f578063922733d01461034057806395d89b4114610353575f5ffd5b806347d08a8f1161017457806365334ac01161014457806365334ac0146102d957806370a08231146102ec578063715018a6146103145780637dc0d1d01461031c575f5ffd5b806347d08a8f1461029e5780634af28676146102a95780634cdad506146102b35780635c38eb3a146102c6575f5ffd5b806323b872dd116101af57806323b872dd14610228578063313ce5671461023b5780633e413bee1461024a5780634460d3cf14610289575f5ffd5b806306fdde03146101d5578063095ea7b3146101f357806318160ddd14610216575b5f5ffd5b6101dd610464565b6040516101ea9190611419565b60405180910390f35b610206610201366004611464565b6104f4565b60405190151581526020016101ea565b6002545b6040519081526020016101ea565b61020661023636600461148c565b61050d565b604051601281526020016101ea565b6102717f000000000000000000000000000000000000000000000000000000000000000081565b6040516001600160a01b0390911681526020016101ea565b61029c6102973660046114c6565b610530565b005b61021a6305f5e10081565b61021a620f424081565b61021a6102c13660046114e6565b6106b5565b61029c6102d43660046114fd565b6106dc565b61029c6102e736600461152e565b6107d1565b61021a6102fa3660046114c6565b6001600160a01b03165f9081526020819052604090205490565b61029c610830565b600654610271906001600160a01b031681565b6005546001600160a01b0316610271565b61029c61034e366004611464565b610843565b6101dd6108ab565b61029c610369366004611464565b6108ba565b61021a61091e565b600754610271906001600160a01b031681565b61021a6103973660046114e6565b6109e4565b61021a670de0b6b3a764000081565b6102066103b9366004611464565b610b43565b61021a6103cc3660046114e6565b610b50565b61021a6103df3660046114e6565b610b6c565b61021a6103f23660046114fd565b6001600160a01b039182165f90815260016020908152604080832093909416825291909152205490565b61029c61042a3660046114c6565b610e1d565b61029c61043d3660046114e6565b610e57565b6102066104503660046114c6565b60086020525f908152604090205460ff1681565b60606003805461047390611567565b80601f016020809104026020016040519081016040528092919081815260200182805461049f90611567565b80156104ea5780601f106104c1576101008083540402835291602001916104ea565b820191905f5260205f20905b8154815290600101906020018083116104cd57829003601f168201915b5050505050905090565b5f33610501818585610ecc565b60019150505b92915050565b5f3361051a858285610ede565b610525858585610f5a565b506001949350505050565b610538610fb7565b7f00000000000000000000000000000000000000000000000000000000000000006001600160a01b0316816001600160a01b0316036105ce5760405162461bcd60e51b815260206004820152602760248201527f7853746f636b546f6b656e3a2063616e6e6f74207265736375652055534443206044820152667265736572766560c81b60648201526084015b60405180910390fd5b306001600160a01b038216036106265760405162461bcd60e51b815260206004820152601f60248201527f7853746f636b546f6b656e3a2063616e6e6f74207265736375652073656c660060448201526064016105c5565b6106b261063b6005546001600160a01b031690565b6040516370a0823160e01b81523060048201526001600160a01b038416906370a0823190602401602060405180830381865afa15801561067d573d5f5f3e3d5ffd5b505050506040513d601f19601f820116820180604052508101906106a1919061159f565b6001600160a01b0384169190610fe4565b50565b5f68056bc75e2d631000006106c861091e565b6106d290846115ca565b61050791906115e1565b6106e4610fb7565b6001600160a01b0382166107285760405162461bcd60e51b815260206004820152600b60248201526a7a65726f206f7261636c6560a81b60448201526064016105c5565b6001600160a01b0381166107695760405162461bcd60e51b81526020600482015260086024820152677a65726f206b657960c01b60448201526064016105c5565b600680546001600160a01b038481166001600160a01b03199283168117909355600780549185169190921681179091556040519081527f078c3b417dadf69374a59793b829c52001247130433427049317bde56607b1b7906020015b60405180910390a25050565b6107d9610fb7565b6001600160a01b0382165f81815260086020908152604091829020805460ff191685151590811790915591519182527fd463edd4a50672c514057e075596ec963992f39c10cc92949d51e368b24ae66791016107c5565b610838610fb7565b6108415f611019565b565b335f9081526008602052604090205460ff1661089d5760405162461bcd60e51b81526020600482015260196024820152781e14dd1bd8dad51bdad95b8e881d5b985d5d1a1bdc9a5e9959603a1b60448201526064016105c5565b6108a7828261106a565b5050565b60606004805461047390611567565b335f9081526008602052604090205460ff166109145760405162461bcd60e51b81526020600482015260196024820152781e14dd1bd8dad51bdad95b8e881d5b985d5d1a1bdc9a5e9959603a1b60448201526064016105c5565b6108a7828261109e565b6006546007546040516302c68be360e31b81526001600160a01b0391821660048201525f92839216906316345f18906024016040805180830381865afa15801561096a573d5f5f3e3d5ffd5b505050506040513d601f19601f8201168201806040525081019061098e9190611600565b9092509050816109e05760405162461bcd60e51b815260206004820152601960248201527f7853746f636b546f6b656e3a207374616c65206f7261636c650000000000000060448201526064016105c5565b5090565b5f6109ed6110d2565b5f8211610a375760405162461bcd60e51b81526020600482015260186024820152771e14dd1bd8dad51bdad95b8e881e995c9bc8185b5bdd5b9d60421b60448201526064016105c5565b5f610a4061091e565b905080610a5668056bc75e2d63100000856115ca565b610a6091906115e1565b91505f8211610aa55760405162461bcd60e51b81526020600482015260116024820152701e14dd1bd8dad51bdad95b8e88191d5cdd607a1b60448201526064016105c5565b610ada6001600160a01b037f0000000000000000000000000000000000000000000000000000000000000000163330866110ed565b610ae4338361106a565b604080518481526020810184905290810182905233907f5a3358a3d27a5373c0df2604662088d37894d56b7cfd27f315770440f4e0d9199060600160405180910390a250610b3e60015f5160206116365f395f51905f5255565b919050565b5f33610501818585610f5a565b5f610b5961091e565b6106d268056bc75e2d63100000846115ca565b5f610b756110d2565b5f8211610bbf5760405162461bcd60e51b81526020600482015260186024820152771e14dd1bd8dad51bdad95b8e881e995c9bc8185b5bdd5b9d60421b60448201526064016105c5565b335f90815260208190526040902054821115610c275760405162461bcd60e51b815260206004820152602160248201527f7853746f636b546f6b656e3a20696e73756666696369656e742062616c616e636044820152606560f81b60648201526084016105c5565b5f610c3061091e565b905068056bc75e2d63100000610c4682856115ca565b610c5091906115e1565b91505f8211610c955760405162461bcd60e51b81526020600482015260116024820152701e14dd1bd8dad51bdad95b8e88191d5cdd607a1b60448201526064016105c5565b6040516370a0823160e01b81523060048201525f907f00000000000000000000000000000000000000000000000000000000000000006001600160a01b0316906370a0823190602401602060405180830381865afa158015610cf9573d5f5f3e3d5ffd5b505050506040513d601f19601f82011682018060405250810190610d1d919061159f565b905082811015610d845760405162461bcd60e51b815260206004820152602c60248201527f7853746f636b546f6b656e3a2072657365727665206465706c657465642c206360448201526b37b73a30b1ba1030b236b4b760a11b60648201526084016105c5565b610d8e338561109e565b610dc26001600160a01b037f0000000000000000000000000000000000000000000000000000000000000000163385610fe4565b604080518581526020810185905290810183905233907f484c40561359f3e3b8be9101897f8680aa82fbe1df9fd9038e0dbc62840326469060600160405180910390a25050610b3e60015f5160206116365f395f51905f5255565b610e25610fb7565b6001600160a01b038116610e4e57604051631e4fbdf760e01b81525f60048201526024016105c5565b6106b281611019565b610e5f610fb7565b610e946001600160a01b037f0000000000000000000000000000000000000000000000000000000000000000163330846110ed565b60405181815233907fcea2aa568570e239e616fd2e9bcf2301307aa1c1c1f355305a87e5cdd46bbc799060200160405180910390a250565b610ed98383836001611123565b505050565b6001600160a01b038381165f908152600160209081526040808320938616835292905220545f19811015610f545781811015610f4657604051637dc7a0d960e11b81526001600160a01b038416600482015260248101829052604481018390526064016105c5565b610f5484848484035f611123565b50505050565b6001600160a01b038316610f8357604051634b637e8f60e11b81525f60048201526024016105c5565b6001600160a01b038216610fac5760405163ec442f0560e01b81525f60048201526024016105c5565b610ed98383836111f5565b6005546001600160a01b031633146108415760405163118cdaa760e01b81523360048201526024016105c5565b610ff1838383600161131b565b610ed957604051635274afe760e01b81526001600160a01b03841660048201526024016105c5565b600580546001600160a01b038381166001600160a01b0319831681179093556040519116919082907f8be0079c531659141344cd1fd0a4f28419497f9722a3daafe3b4186f6b6457e0905f90a35050565b6001600160a01b0382166110935760405163ec442f0560e01b81525f60048201526024016105c5565b6108a75f83836111f5565b6001600160a01b0382166110c757604051634b637e8f60e11b81525f60048201526024016105c5565b6108a7825f836111f5565b6110da61137d565b60025f5160206116365f395f51905f5255565b6110fb8484848460016113ac565b610f5457604051635274afe760e01b81526001600160a01b03851660048201526024016105c5565b6001600160a01b03841661114c5760405163e602df0560e01b81525f60048201526024016105c5565b6001600160a01b03831661117557604051634a1406b160e11b81525f60048201526024016105c5565b6001600160a01b038085165f9081526001602090815260408083209387168352929052208290558015610f5457826001600160a01b0316846001600160a01b03167f8c5be1e5ebec7d5bd14f71427d1e84f3dd0314c0f7b2291e5b200ac8c7c3b925846040516111e791815260200190565b60405180910390a350505050565b6001600160a01b03831661121f578060025f8282546112149190611622565b9091555061128f9050565b6001600160a01b0383165f90815260208190526040902054818110156112715760405163391434e360e21b81526001600160a01b038516600482015260248101829052604481018390526064016105c5565b6001600160a01b0384165f9081526020819052604090209082900390555b6001600160a01b0382166112ab576002805482900390556112c9565b6001600160a01b0382165f9081526020819052604090208054820190555b816001600160a01b0316836001600160a01b03167fddf252ad1be2c89b69c2b068fc378daa952ba7f163c4a11628f55a4df523b3ef8360405161130e91815260200190565b60405180910390a3505050565b60405163a9059cbb60e01b5f8181526001600160a01b038616600452602485905291602083604481808b5af1925060015f51148316611371578383151615611365573d5f823e3d81fd5b5f873b113d1516831692505b60405250949350505050565b5f5160206116365f395f51905f525460020361084157604051633ee5aeb560e01b815260040160405180910390fd5b6040516323b872dd60e01b5f8181526001600160a01b038781166004528616602452604485905291602083606481808c5af1925060015f511483166114085783831516156113fc573d5f823e3d81fd5b5f883b113d1516831692505b604052505f60605295945050505050565b602081525f82518060208401528060208501604085015e5f604082850101526040601f19601f83011684010191505092915050565b80356001600160a01b0381168114610b3e575f5ffd5b5f5f60408385031215611475575f5ffd5b61147e8361144e565b946020939093013593505050565b5f5f5f6060848603121561149e575f5ffd5b6114a78461144e565b92506114b56020850161144e565b929592945050506040919091013590565b5f602082840312156114d6575f5ffd5b6114df8261144e565b9392505050565b5f602082840312156114f6575f5ffd5b5035919050565b5f5f6040838503121561150e575f5ffd5b6115178361144e565b91506115256020840161144e565b90509250929050565b5f5f6040838503121561153f575f5ffd5b6115488361144e565b91506020830135801515811461155c575f5ffd5b809150509250929050565b600181811c9082168061157b57607f821691505b60208210810361159957634e487b7160e01b5f52602260045260245ffd5b50919050565b5f602082840312156115af575f5ffd5b5051919050565b634e487b7160e01b5f52601160045260245ffd5b8082028115828204841417610507576105076115b6565b5f826115fb57634e487b7160e01b5f52601260045260245ffd5b500490565b5f5f60408385031215611611575f5ffd5b505080516020909101519092909150565b80820180821115610507576105076115b656fe9b779b17422d0df92223018b32b4d1fa46e071723d6817e2486d003becc55f00a2646970667358221220e2254ea89a4b674bf023d524317740c0972a548e1703826c2de7cbbdecc63f7a64736f6c634300081b0033","linkReferences":{}},"methodIdentifiers":{"ORACLE_UNIT()":"47d08a8f","TOKEN_UNIT()":"a5c9cd82","USDC_UNIT()":"4af28676","allowance(address,address)":"dd62ed3e","approve(address,uint256)":"095ea7b3","authorizedProtocol(address)":"fe51de1f","balanceOf(address)":"70a08231","currentPrice()":"9d1b464a","decimals()":"313ce567","depositReserve(uint256)":"f42d48a1","mint(uint256)":"a0712d68","name()":"06fdde03","oracle()":"7dc0d1d0","oracleKey()":"9d1f048e","owner()":"8da5cb5b","previewMint(uint256)":"b3d7f6b9","previewRedeem(uint256)":"4cdad506","protocolBurn(address,uint256)":"9a4f3260","protocolMint(address,uint256)":"922733d0","redeem(uint256)":"db006a75","renounceOwnership()":"715018a6","rescueToken(address)":"4460d3cf","setAuthorizedProtocol(address,bool)":"65334ac0","setOracle(address,address)":"5c38eb3a","symbol()":"95d89b41","totalSupply()":"18160ddd","transfer(address,uint256)":"a9059cbb","transferFrom(address,address,uint256)":"23b872dd","transferOwnership(address)":"f2fde38b","usdc()":"3e413bee"},"id":15}