{"abi":[{"type":"constructor","inputs":[{"name":"name_","type":"string","internalType":"string"},{"name":"symbol_","type":"string","internalType":"string"},{"name":"usdc_","type":"address","internalType":"address"},{"name":"priceFeed_","type":"address","internalType":"address"}],"stateMutability":"nonpayable"},{"type":"function","name":"allowance","inputs":[{"name":"owner","type":"address","internalType":"address"},{"name":"spender","type":"address","internalType":"address"}],"outputs":[{"name":"","type":"uint256","internalType":"uint256"}],"stateMutability":"view"},{"type":"function","name":"approve","inputs":[{"name":"spender","type":"address","internalType":"address"},{"name":"value","type":"uint256","internalType":"uint256"}],"outputs":[{"name":"","type":"bool","internalType":"bool"}],"stateMutability":"nonpayable"},{"type":"function","name":"authorizedProtocol","inputs":[{"name":"","type":"address","internalType":"address"}],"outputs":[{"name":"","type":"bool","internalType":"bool"}],"stateMutability":"view"},{"type":"function","name":"balanceOf","inputs":[{"name":"account","type":"address","internalType":"address"}],"outputs":[{"name":"","type":"uint256","internalType":"uint256"}],"stateMutability":"view"},{"type":"function","name":"currentPrice","inputs":[],"outputs":[{"name":"price","type":"uint256","internalType":"uint256"}],"stateMutability":"view"},{"type":"function","name":"decimals","inputs":[],"outputs":[{"name":"","type":"uint8","internalType":"uint8"}],"stateMutability":"view"},{"type":"function","name":"depositReserve","inputs":[{"name":"usdcAmount","type":"uint256","internalType":"uint256"}],"outputs":[],"stateMutability":"nonpayable"},{"type":"function","name":"mint","inputs":[{"name":"usdcAmount","type":"uint256","internalType":"uint256"}],"outputs":[{"name":"tokensOut","type":"uint256","internalType":"uint256"}],"stateMutability":"nonpayable"},{"type":"function","name":"name","inputs":[],"outputs":[{"name":"","type":"string","internalType":"string"}],"stateMutability":"view"},{"type":"function","name":"owner","inputs":[],"outputs":[{"name":"","type":"address","internalType":"address"}],"stateMutability":"view"},{"type":"function","name":"previewMint","inputs":[{"name":"usdcAmount","type":"uint256","internalType":"uint256"}],"outputs":[{"name":"","type":"uint256","internalType":"uint256"}],"stateMutability":"view"},{"type":"function","name":"previewRedeem","inputs":[{"name":"tokenAmount","type":"uint256","internalType":"uint256"}],"outputs":[{"name":"","type":"uint256","internalType":"uint256"}],"stateMutability":"view"},{"type":"function","name":"priceFeed","inputs":[],"outputs":[{"name":"","type":"address","internalType":"contract PriceFeed"}],"stateMutability":"view"},{"type":"function","name":"protocolBurn","inputs":[{"name":"from","type":"address","internalType":"address"},{"name":"amount","type":"uint256","internalType":"uint256"}],"outputs":[],"stateMutability":"nonpayable"},{"type":"function","name":"protocolMint","inputs":[{"name":"to","type":"address","internalType":"address"},{"name":"amount","type":"uint256","internalType":"uint256"}],"outputs":[],"stateMutability":"nonpayable"},{"type":"function","name":"redeem","inputs":[{"name":"tokenAmount","type":"uint256","internalType":"uint256"}],"outputs":[{"name":"usdcOut","type":"uint256","internalType":"uint256"}],"stateMutability":"nonpayable"},{"type":"function","name":"renounceOwnership","inputs":[],"outputs":[],"stateMutability":"nonpayable"},{"type":"function","name":"rescueToken","inputs":[{"name":"token","type":"address","internalType":"address"}],"outputs":[],"stateMutability":"nonpayable"},{"type":"function","name":"setAuthorizedProtocol","inputs":[{"name":"protocol","type":"address","internalType":"address"},{"name":"authorized","type":"bool","internalType":"bool"}],"outputs":[],"stateMutability":"nonpayable"},{"type":"function","name":"setPriceFeed","inputs":[{"name":"priceFeed_","type":"address","internalType":"address"}],"outputs":[],"stateMutability":"nonpayable"},{"type":"function","name":"symbol","inputs":[],"outputs":[{"name":"","type":"string","internalType":"string"}],"stateMutability":"view"},{"type":"function","name":"totalSupply","inputs":[],"outputs":[{"name":"","type":"uint256","internalType":"uint256"}],"stateMutability":"view"},{"type":"function","name":"transfer","inputs":[{"name":"to","type":"address","internalType":"address"},{"name":"value","type":"uint256","internalType":"uint256"}],"outputs":[{"name":"","type":"bool","internalType":"bool"}],"stateMutability":"nonpayable"},{"type":"function","name":"transferFrom","inputs":[{"name":"from","type":"address","internalType":"address"},{"name":"to","type":"address","internalType":"address"},{"name":"value","type":"uint256","internalType":"uint256"}],"outputs":[{"name":"","type":"bool","internalType":"bool"}],"stateMutability":"nonpayable"},{"type":"function","name":"transferOwnership","inputs":[{"name":"newOwner","type":"address","internalType":"address"}],"outputs":[],"stateMutability":"nonpayable"},{"type":"function","name":"usdc","inputs":[],"outputs":[{"name":"","type":"address","internalType":"contract IERC20"}],"stateMutability":"view"},{"type":"event","name":"Approval","inputs":[{"name":"owner","type":"address","indexed":true,"internalType":"address"},{"name":"spender","type":"address","indexed":true,"internalType":"address"},{"name":"value","type":"uint256","indexed":false,"internalType":"uint256"}],"anonymous":false},{"type":"event","name":"Minted","inputs":[{"name":"user","type":"address","indexed":true,"internalType":"address"},{"name":"usdcIn","type":"uint256","indexed":false,"internalType":"uint256"},{"name":"tokensOut","type":"uint256","indexed":false,"internalType":"uint256"},{"name":"price","type":"uint256","indexed":false,"internalType":"uint256"}],"anonymous":false},{"type":"event","name":"OwnershipTransferred","inputs":[{"name":"previousOwner","type":"address","indexed":true,"internalType":"address"},{"name":"newOwner","type":"address","indexed":true,"internalType":"address"}],"anonymous":false},{"type":"event","name":"PriceFeedUpdated","inputs":[{"name":"newPriceFeed","type":"address","indexed":true,"internalType":"address"}],"anonymous":false},{"type":"event","name":"ProtocolAuthSet","inputs":[{"name":"protocol","type":"address","indexed":true,"internalType":"address"},{"name":"authorized","type":"bool","indexed":false,"internalType":"bool"}],"anonymous":false},{"type":"event","name":"Redeemed","inputs":[{"name":"user","type":"address","indexed":true,"internalType":"address"},{"name":"tokensIn","type":"uint256","indexed":false,"internalType":"uint256"},{"name":"usdcOut","type":"uint256","indexed":false,"internalType":"uint256"},{"name":"price","type":"uint256","indexed":false,"internalType":"uint256"}],"anonymous":false},{"type":"event","name":"ReserveDeposited","inputs":[{"name":"by","type":"address","indexed":true,"internalType":"address"},{"name":"usdcAmount","type":"uint256","indexed":false,"internalType":"uint256"}],"anonymous":false},{"type":"event","name":"Transfer","inputs":[{"name":"from","type":"address","indexed":true,"internalType":"address"},{"name":"to","type":"address","indexed":true,"internalType":"address"},{"name":"value","type":"uint256","indexed":false,"internalType":"uint256"}],"anonymous":false},{"type":"error","name":"ERC20InsufficientAllowance","inputs":[{"name":"spender","type":"address","internalType":"address"},{"name":"allowance","type":"uint256","internalType":"uint256"},{"name":"needed","type":"uint256","internalType":"uint256"}]},{"type":"error","name":"ERC20InsufficientBalance","inputs":[{"name":"sender","type":"address","internalType":"address"},{"name":"balance","type":"uint256","internalType":"uint256"},{"name":"needed","type":"uint256","internalType":"uint256"}]},{"type":"error","name":"ERC20InvalidApprover","inputs":[{"name":"approver","type":"address","internalType":"address"}]},{"type":"error","name":"ERC20InvalidReceiver","inputs":[{"name":"receiver","type":"address","internalType":"address"}]},{"type":"error","name":"ERC20InvalidSender","inputs":[{"name":"sender","type":"address","internalType":"address"}]},{"type":"error","name":"ERC20InvalidSpender","inputs":[{"name":"spender","type":"address","internalType":"address"}]},{"type":"error","name":"OwnableInvalidOwner","inputs":[{"name":"owner","type":"address","internalType":"address"}]},{"type":"error","name":"OwnableUnauthorizedAccount","inputs":[{"name":"account","type":"address","internalType":"address"}]},{"type":"error","name":"ReentrancyGuardReentrantCall","inputs":[]},{"type":"error","name":"SafeERC20FailedOperation","inputs":[{"name":"token","type":"address","internalType":"address"}]}],"bytecode":{"object":"0x60a060405234801561000f575f5ffd5b50604051611a1b380380611a1b83398101604081905261002e91610266565b338484600361003d838261036f565b50600461004a828261036f565b5050506001600160a01b03811661007b57604051631e4fbdf760e01b81525f60048201526024015b60405180910390fd5b6100848161015d565b5060017f9b779b17422d0df92223018b32b4d1fa46e071723d6817e2486d003becc55f00556001600160a01b0382166100eb5760405162461bcd60e51b81526020600482015260096024820152687a65726f207573646360b81b6044820152606401610072565b6001600160a01b0381166101325760405162461bcd60e51b815260206004820152600e60248201526d1e995c9bc81c1c9a58d95199595960921b6044820152606401610072565b6001600160a01b03918216608052600680546001600160a01b03191691909216179055506104299050565b600580546001600160a01b038381166001600160a01b0319831681179093556040519116919082907f8be0079c531659141344cd1fd0a4f28419497f9722a3daafe3b4186f6b6457e0905f90a35050565b634e487b7160e01b5f52604160045260245ffd5b5f82601f8301126101d1575f5ffd5b81516001600160401b038111156101ea576101ea6101ae565b604051601f8201601f19908116603f011681016001600160401b0381118282101715610218576102186101ae565b60405281815283820160200185101561022f575f5ffd5b8160208501602083015e5f918101602001919091529392505050565b80516001600160a01b0381168114610261575f5ffd5b919050565b5f5f5f5f60808587031215610279575f5ffd5b84516001600160401b0381111561028e575f5ffd5b61029a878288016101c2565b602087015190955090506001600160401b038111156102b7575f5ffd5b6102c3878288016101c2565b9350506102d26040860161024b565b91506102e06060860161024b565b905092959194509250565b600181811c908216806102ff57607f821691505b60208210810361031d57634e487b7160e01b5f52602260045260245ffd5b50919050565b601f82111561036a57805f5260205f20601f840160051c810160208510156103485750805b601f840160051c820191505b81811015610367575f8155600101610354565b50505b505050565b81516001600160401b03811115610388576103886101ae565b61039c8161039684546102eb565b84610323565b6020601f8211600181146103ce575f83156103b75750848201515b5f19600385901b1c1916600184901b178455610367565b5f84815260208120601f198516915b828110156103fd57878501518255602094850194600190920191016103dd565b508482101561041a57868401515f19600387901b60f8161c191681555b50505050600190811b01905550565b6080516115b76104645f395f8181610205015281816104b9015281816109cf01528181610bc901528181610cb80152610d8901526115b75ff3fe608060405234801561000f575f5ffd5b5060043610610187575f3560e01c80638da5cb5b116100d9578063a9059cbb11610093578063dd62ed3e1161006e578063dd62ed3e14610363578063f2fde38b1461039b578063f42d48a1146103ae578063fe51de1f146103c1575f5ffd5b8063a9059cbb1461032a578063b3d7f6b91461033d578063db006a7514610350575f5ffd5b80638da5cb5b146102d0578063922733d0146102e157806395d89b41146102f45780639a4f3260146102fc5780639d1b464a1461030f578063a0712d6814610317575f5ffd5b80634460d3cf1161014457806370a082311161011f57806370a082311461027a578063715018a6146102a2578063724e78da146102aa578063741bef1a146102bd575f5ffd5b80634460d3cf1461023f5780634cdad5061461025457806365334ac014610267575f5ffd5b806306fdde031461018b578063095ea7b3146101a957806318160ddd146101cc57806323b872dd146101de578063313ce567146101f15780633e413bee14610200575b5f5ffd5b6101936103e3565b6040516101a09190611345565b60405180910390f35b6101bc6101b7366004611390565b610473565b60405190151581526020016101a0565b6002545b6040519081526020016101a0565b6101bc6101ec3660046113b8565b61048c565b604051601281526020016101a0565b6102277f000000000000000000000000000000000000000000000000000000000000000081565b6040516001600160a01b0390911681526020016101a0565b61025261024d3660046113f2565b6104af565b005b6101d0610262366004611412565b610634565b610252610275366004611429565b61065b565b6101d06102883660046113f2565b6001600160a01b03165f9081526020819052604090205490565b6102526106c1565b6102526102b83660046113f2565b6106d4565b600654610227906001600160a01b031681565b6005546001600160a01b0316610227565b6102526102ef366004611390565b61076a565b6101936107d2565b61025261030a366004611390565b6107e1565b6101d0610845565b6101d0610325366004611412565b610901565b6101bc610338366004611390565b610a60565b6101d061034b366004611412565b610a6d565b6101d061035e366004611412565b610a89565b6101d0610371366004611462565b6001600160a01b039182165f90815260016020908152604080832093909416825291909152205490565b6102526103a93660046113f2565b610d3a565b6102526103bc366004611412565b610d74565b6101bc6103cf3660046113f2565b60076020525f908152604090205460ff1681565b6060600380546103f290611493565b80601f016020809104026020016040519081016040528092919081815260200182805461041e90611493565b80156104695780601f1061044057610100808354040283529160200191610469565b820191905f5260205f20905b81548152906001019060200180831161044c57829003601f168201915b5050505050905090565b5f33610480818585610de9565b60019150505b92915050565b5f33610499858285610dfb565b6104a4858585610e77565b506001949350505050565b6104b7610ed4565b7f00000000000000000000000000000000000000000000000000000000000000006001600160a01b0316816001600160a01b03160361054d5760405162461bcd60e51b815260206004820152602760248201527f7853746f636b546f6b656e3a2063616e6e6f74207265736375652055534443206044820152667265736572766560c81b60648201526084015b60405180910390fd5b306001600160a01b038216036105a55760405162461bcd60e51b815260206004820152601f60248201527f7853746f636b546f6b656e3a2063616e6e6f74207265736375652073656c66006044820152606401610544565b6106316105ba6005546001600160a01b031690565b6040516370a0823160e01b81523060048201526001600160a01b038416906370a0823190602401602060405180830381865afa1580156105fc573d5f5f3e3d5ffd5b505050506040513d601f19601f8201168201806040525081019061062091906114cb565b6001600160a01b0384169190610f01565b50565b5f68056bc75e2d63100000610647610845565b61065190846114f6565b610486919061150d565b610663610ed4565b6001600160a01b0382165f81815260076020908152604091829020805460ff191685151590811790915591519182527fd463edd4a50672c514057e075596ec963992f39c10cc92949d51e368b24ae667910160405180910390a25050565b6106c9610ed4565b6106d25f610f36565b565b6106dc610ed4565b6001600160a01b0381166107215760405162461bcd60e51b815260206004820152600c60248201526b7a65726f206164647265737360a01b6044820152606401610544565b600680546001600160a01b0319166001600160a01b0383169081179091556040517fe5b20b8497e4f3e2435ef9c20e2e26b47497ee13745ce1c681ad6640653119e6905f90a250565b335f9081526007602052604090205460ff166107c45760405162461bcd60e51b81526020600482015260196024820152781e14dd1bd8dad51bdad95b8e881d5b985d5d1a1bdc9a5e9959603a1b6044820152606401610544565b6107ce8282610f87565b5050565b6060600480546103f290611493565b335f9081526007602052604090205460ff1661083b5760405162461bcd60e51b81526020600482015260196024820152781e14dd1bd8dad51bdad95b8e881d5b985d5d1a1bdc9a5e9959603a1b6044820152606401610544565b6107ce8282610fbb565b6006546040516302c68be360e31b81523060048201525f916001600160a01b0316906316345f18906024016040805180830381865afa15801561088a573d5f5f3e3d5ffd5b505050506040513d601f19601f820116820180604052508101906108ae919061152c565b509050806108fe5760405162461bcd60e51b815260206004820152601a60248201527f7853746f636b546f6b656e3a207072696365206e6f74207365740000000000006044820152606401610544565b90565b5f61090a610fef565b5f82116109545760405162461bcd60e51b81526020600482015260186024820152771e14dd1bd8dad51bdad95b8e881e995c9bc8185b5bdd5b9d60421b6044820152606401610544565b5f61095d610845565b90508061097368056bc75e2d63100000856114f6565b61097d919061150d565b91505f82116109c25760405162461bcd60e51b81526020600482015260116024820152701e14dd1bd8dad51bdad95b8e88191d5cdd607a1b6044820152606401610544565b6109f76001600160a01b037f00000000000000000000000000000000000000000000000000000000000000001633308661100a565b610a013383610f87565b604080518481526020810184905290810182905233907f5a3358a3d27a5373c0df2604662088d37894d56b7cfd27f315770440f4e0d9199060600160405180910390a250610a5b60015f5160206115625f395f51905f5255565b919050565b5f33610480818585610e77565b5f610a76610845565b61065168056bc75e2d63100000846114f6565b5f610a92610fef565b5f8211610adc5760405162461bcd60e51b81526020600482015260186024820152771e14dd1bd8dad51bdad95b8e881e995c9bc8185b5bdd5b9d60421b6044820152606401610544565b335f90815260208190526040902054821115610b445760405162461bcd60e51b815260206004820152602160248201527f7853746f636b546f6b656e3a20696e73756666696369656e742062616c616e636044820152606560f81b6064820152608401610544565b5f610b4d610845565b905068056bc75e2d63100000610b6382856114f6565b610b6d919061150d565b91505f8211610bb25760405162461bcd60e51b81526020600482015260116024820152701e14dd1bd8dad51bdad95b8e88191d5cdd607a1b6044820152606401610544565b6040516370a0823160e01b81523060048201525f907f00000000000000000000000000000000000000000000000000000000000000006001600160a01b0316906370a0823190602401602060405180830381865afa158015610c16573d5f5f3e3d5ffd5b505050506040513d601f19601f82011682018060405250810190610c3a91906114cb565b905082811015610ca15760405162461bcd60e51b815260206004820152602c60248201527f7853746f636b546f6b656e3a2072657365727665206465706c657465642c206360448201526b37b73a30b1ba1030b236b4b760a11b6064820152608401610544565b610cab3385610fbb565b610cdf6001600160a01b037f0000000000000000000000000000000000000000000000000000000000000000163385610f01565b604080518581526020810185905290810183905233907f484c40561359f3e3b8be9101897f8680aa82fbe1df9fd9038e0dbc62840326469060600160405180910390a25050610a5b60015f5160206115625f395f51905f5255565b610d42610ed4565b6001600160a01b038116610d6b57604051631e4fbdf760e01b81525f6004820152602401610544565b61063181610f36565b610d7c610ed4565b610db16001600160a01b037f00000000000000000000000000000000000000000000000000000000000000001633308461100a565b60405181815233907fcea2aa568570e239e616fd2e9bcf2301307aa1c1c1f355305a87e5cdd46bbc799060200160405180910390a250565b610df68383836001611040565b505050565b6001600160a01b038381165f908152600160209081526040808320938616835292905220545f19811015610e715781811015610e6357604051637dc7a0d960e11b81526001600160a01b03841660048201526024810182905260448101839052606401610544565b610e7184848484035f611040565b50505050565b6001600160a01b038316610ea057604051634b637e8f60e11b81525f6004820152602401610544565b6001600160a01b038216610ec95760405163ec442f0560e01b81525f6004820152602401610544565b610df6838383611112565b6005546001600160a01b031633146106d25760405163118cdaa760e01b8152336004820152602401610544565b610f0e8383836001611238565b610df657604051635274afe760e01b81526001600160a01b0384166004820152602401610544565b600580546001600160a01b038381166001600160a01b0319831681179093556040519116919082907f8be0079c531659141344cd1fd0a4f28419497f9722a3daafe3b4186f6b6457e0905f90a35050565b6001600160a01b038216610fb05760405163ec442f0560e01b81525f6004820152602401610544565b6107ce5f8383611112565b6001600160a01b038216610fe457604051634b637e8f60e11b81525f6004820152602401610544565b6107ce825f83611112565b610ff761129a565b60025f5160206115625f395f51905f5255565b6110188484848460016112d1565b610e7157604051635274afe760e01b81526001600160a01b0385166004820152602401610544565b6001600160a01b0384166110695760405163e602df0560e01b81525f6004820152602401610544565b6001600160a01b03831661109257604051634a1406b160e11b81525f6004820152602401610544565b6001600160a01b038085165f9081526001602090815260408083209387168352929052208290558015610e7157826001600160a01b0316846001600160a01b03167f8c5be1e5ebec7d5bd14f71427d1e84f3dd0314c0f7b2291e5b200ac8c7c3b9258460405161110491815260200190565b60405180910390a350505050565b6001600160a01b03831661113c578060025f828254611131919061154e565b909155506111ac9050565b6001600160a01b0383165f908152602081905260409020548181101561118e5760405163391434e360e21b81526001600160a01b03851660048201526024810182905260448101839052606401610544565b6001600160a01b0384165f9081526020819052604090209082900390555b6001600160a01b0382166111c8576002805482900390556111e6565b6001600160a01b0382165f9081526020819052604090208054820190555b816001600160a01b0316836001600160a01b03167fddf252ad1be2c89b69c2b068fc378daa952ba7f163c4a11628f55a4df523b3ef8360405161122b91815260200190565b60405180910390a3505050565b60405163a9059cbb60e01b5f8181526001600160a01b038616600452602485905291602083604481808b5af1925060015f5114831661128e578383151615611282573d5f823e3d81fd5b5f873b113d1516831692505b60405250949350505050565b6112b35f60025f5160206115625f395f51905f5261133e565b156106d257604051633ee5aeb560e01b815260040160405180910390fd5b6040516323b872dd60e01b5f8181526001600160a01b038781166004528616602452604485905291602083606481808c5af1925060015f5114831661132d578383151615611321573d5f823e3d81fd5b5f883b113d1516831692505b604052505f60605295945050505050565b5414919050565b602081525f82518060208401528060208501604085015e5f604082850101526040601f19601f83011684010191505092915050565b80356001600160a01b0381168114610a5b575f5ffd5b5f5f604083850312156113a1575f5ffd5b6113aa8361137a565b946020939093013593505050565b5f5f5f606084860312156113ca575f5ffd5b6113d38461137a565b92506113e16020850161137a565b929592945050506040919091013590565b5f60208284031215611402575f5ffd5b61140b8261137a565b9392505050565b5f60208284031215611422575f5ffd5b5035919050565b5f5f6040838503121561143a575f5ffd5b6114438361137a565b915060208301358015158114611457575f5ffd5b809150509250929050565b5f5f60408385031215611473575f5ffd5b61147c8361137a565b915061148a6020840161137a565b90509250929050565b600181811c908216806114a757607f821691505b6020821081036114c557634e487b7160e01b5f52602260045260245ffd5b50919050565b5f602082840312156114db575f5ffd5b5051919050565b634e487b7160e01b5f52601160045260245ffd5b8082028115828204841417610486576104866114e2565b5f8261152757634e487b7160e01b5f52601260045260245ffd5b500490565b5f5f6040838503121561153d575f5ffd5b505080516020909101519092909150565b80820180821115610486576104866114e256fe9b779b17422d0df92223018b32b4d1fa46e071723d6817e2486d003becc55f00a2646970667358221220c9cad1bdc39c19138dc34d14d0b713695e8ecaa49396d3c7056c9f57558a6c9764736f6c634300081b0033","linkReferences":{}},"methodIdentifiers":{"allowance(address,address)":"dd62ed3e","approve(address,uint256)":"095ea7b3","authorizedProtocol(address)":"fe51de1f","balanceOf(address)":"70a08231","currentPrice()":"9d1b464a","decimals()":"313ce567","depositReserve(uint256)":"f42d48a1","mint(uint256)":"a0712d68","name()":"06fdde03","owner()":"8da5cb5b","previewMint(uint256)":"b3d7f6b9","previewRedeem(uint256)":"4cdad506","priceFeed()":"741bef1a","protocolBurn(address,uint256)":"9a4f3260","protocolMint(address,uint256)":"922733d0","redeem(uint256)":"db006a75","renounceOwnership()":"715018a6","rescueToken(address)":"4460d3cf","setAuthorizedProtocol(address,bool)":"65334ac0","setPriceFeed(address)":"724e78da","symbol()":"95d89b41","totalSupply()":"18160ddd","transfer(address,uint256)":"a9059cbb","transferFrom(address,address,uint256)":"23b872dd","transferOwnership(address)":"f2fde38b","usdc()":"3e413bee"},"id":14}