{"abi":[{"type":"constructor","inputs":[],"stateMutability":"nonpayable"},{"type":"function","name":"getLatestPrice","inputs":[{"name":"asset","type":"address","internalType":"address"}],"outputs":[{"name":"price","type":"uint256","internalType":"uint256"},{"name":"updatedAt","type":"uint256","internalType":"uint256"}],"stateMutability":"view"},{"type":"function","name":"getResolutionPrice","inputs":[{"name":"asset","type":"address","internalType":"address"},{"name":"timestamp","type":"uint256","internalType":"uint256"}],"outputs":[{"name":"price","type":"uint256","internalType":"uint256"},{"name":"available","type":"bool","internalType":"bool"}],"stateMutability":"view"},{"type":"function","name":"owner","inputs":[],"outputs":[{"name":"","type":"address","internalType":"address"}],"stateMutability":"view"},{"type":"function","name":"setPrice","inputs":[{"name":"asset","type":"address","internalType":"address"},{"name":"price","type":"uint256","internalType":"uint256"}],"outputs":[],"stateMutability":"nonpayable"},{"type":"function","name":"setPriceAt","inputs":[{"name":"asset","type":"address","internalType":"address"},{"name":"timestamp","type":"uint256","internalType":"uint256"},{"name":"price","type":"uint256","internalType":"uint256"}],"outputs":[],"stateMutability":"nonpayable"},{"type":"function","name":"setResolutionPrice","inputs":[{"name":"asset","type":"address","internalType":"address"},{"name":"timestamp","type":"uint256","internalType":"uint256"},{"name":"price","type":"uint256","internalType":"uint256"}],"outputs":[],"stateMutability":"nonpayable"},{"type":"function","name":"transferOwnership","inputs":[{"name":"newOwner","type":"address","internalType":"address"}],"outputs":[],"stateMutability":"nonpayable"},{"type":"event","name":"PriceUpdated","inputs":[{"name":"asset","type":"address","indexed":true,"internalType":"address"},{"name":"price","type":"uint256","indexed":false,"internalType":"uint256"},{"name":"ts","type":"uint256","indexed":false,"internalType":"uint256"}],"anonymous":false},{"type":"event","name":"ResolutionPriceSet","inputs":[{"name":"asset","type":"address","indexed":true,"internalType":"address"},{"name":"ts","type":"uint256","indexed":false,"internalType":"uint256"},{"name":"price","type":"uint256","indexed":false,"internalType":"uint256"}],"anonymous":false}],"bytecode":{"object":"0x6080604052348015600e575f5ffd5b505f80546001600160a01b031916331790556105268061002d5f395ff3fe608060405234801561000f575f5ffd5b5060043610610079575f3560e01c8063552ec9d511610058578063552ec9d5146100f45780638da5cb5b14610107578063cccf7bed14610131578063f2fde38b1461017e575f5ffd5b8062e4768b1461007d5780630948bf141461009257806316345f18146100a5575b5f5ffd5b61009061008b366004610449565b610191565b005b6100906100a0366004610471565b61023a565b6100da6100b33660046104a1565b6001600160a01b03165f908152600160209081526040808320546002909252909120549091565b604080519283526020830191909152015b60405180910390f35b610090610102366004610471565b61031d565b5f54610119906001600160a01b031681565b6040516001600160a01b0390911681526020016100eb565b61016961013f366004610449565b6001600160a01b039091165f90815260036020908152604080832093835292905220549081151590565b604080519283529015156020830152016100eb565b61009061018c3660046104a1565b61039f565b5f546001600160a01b031633146101c35760405162461bcd60e51b81526004016101ba906104c1565b60405180910390fd5b6001600160a01b0382165f818152600160209081526040808320859055600282528083204290819055600383528184208185528352928190208590558051858152918201929092527fb556fac599c3c70efb9ab1fa725ecace6c81cc48d1455f886607def065f3e0c0910160405180910390a25050565b5f546001600160a01b031633146102635760405162461bcd60e51b81526004016101ba906104c1565b6001600160a01b0383165f818152600160209081526040808320859055600282528083208690556003825280832086845282529182902084905581518481529081018590527fb556fac599c3c70efb9ab1fa725ecace6c81cc48d1455f886607def065f3e0c0910160405180910390a260408051838152602081018390526001600160a01b038516917fdb25ab0701494e7111eadb2a8df47672683108e4e349940e7fd9553377cc3de891015b60405180910390a2505050565b5f546001600160a01b031633146103465760405162461bcd60e51b81526004016101ba906104c1565b6001600160a01b0383165f81815260036020908152604080832086845282529182902084905581518581529081018490527fdb25ab0701494e7111eadb2a8df47672683108e4e349940e7fd9553377cc3de89101610310565b5f546001600160a01b031633146103c85760405162461bcd60e51b81526004016101ba906104c1565b6001600160a01b03811661040d5760405162461bcd60e51b815260206004820152600c60248201526b7a65726f206164647265737360a01b60448201526064016101ba565b5f80546001600160a01b0319166001600160a01b0392909216919091179055565b80356001600160a01b0381168114610444575f5ffd5b919050565b5f5f6040838503121561045a575f5ffd5b6104638361042e565b946020939093013593505050565b5f5f5f60608486031215610483575f5ffd5b61048c8461042e565b95602085013595506040909401359392505050565b5f602082840312156104b1575f5ffd5b6104ba8261042e565b9392505050565b60208082526015908201527426b7b1b5a7b930b1b6329d103737ba1037bbb732b960591b60408201526060019056fea2646970667358221220f8faa93299375093e4f74584b00f66de88b3ffb65b3b32d5a264815f1d1b5b2f64736f6c634300081b0033","linkReferences":{}},"methodIdentifiers":{"getLatestPrice(address)":"16345f18","getResolutionPrice(address,uint256)":"cccf7bed","owner()":"8da5cb5b","setPrice(address,uint256)":"00e4768b","setPriceAt(address,uint256,uint256)":"0948bf14","setResolutionPrice(address,uint256,uint256)":"552ec9d5","transferOwnership(address)":"f2fde38b"},"id":14}