{"abi":[{"type":"constructor","inputs":[{"name":"usdc_","type":"address","internalType":"address"},{"name":"priceFeed_","type":"address","internalType":"address"}],"stateMutability":"nonpayable"},{"type":"function","name":"BORROW_FEE_BPS","inputs":[],"outputs":[{"name":"","type":"uint256","internalType":"uint256"}],"stateMutability":"view"},{"type":"function","name":"LIQ_BONUS_BPS","inputs":[],"outputs":[{"name":"","type":"uint256","internalType":"uint256"}],"stateMutability":"view"},{"type":"function","name":"LIQ_THRESHOLD_BPS","inputs":[],"outputs":[{"name":"","type":"uint256","internalType":"uint256"}],"stateMutability":"view"},{"type":"function","name":"MAX_LTV_BPS","inputs":[],"outputs":[{"name":"","type":"uint256","internalType":"uint256"}],"stateMutability":"view"},{"type":"function","name":"addSupportedToken","inputs":[{"name":"token","type":"address","internalType":"address"}],"outputs":[],"stateMutability":"nonpayable"},{"type":"function","name":"borrow","inputs":[{"name":"token","type":"address","internalType":"address"},{"name":"usdcAmount","type":"uint256","internalType":"uint256"}],"outputs":[],"stateMutability":"nonpayable"},{"type":"function","name":"deposit","inputs":[{"name":"token","type":"address","internalType":"address"},{"name":"amount","type":"uint256","internalType":"uint256"}],"outputs":[],"stateMutability":"nonpayable"},{"type":"function","name":"depositAndBorrow","inputs":[{"name":"token","type":"address","internalType":"address"},{"name":"collateralAmount","type":"uint256","internalType":"uint256"},{"name":"borrowAmount","type":"uint256","internalType":"uint256"}],"outputs":[],"stateMutability":"nonpayable"},{"type":"function","name":"feesCollected","inputs":[],"outputs":[{"name":"","type":"uint256","internalType":"uint256"}],"stateMutability":"view"},{"type":"function","name":"fundPool","inputs":[{"name":"usdcAmount","type":"uint256","internalType":"uint256"}],"outputs":[],"stateMutability":"nonpayable"},{"type":"function","name":"getCollateralValue","inputs":[{"name":"user","type":"address","internalType":"address"},{"name":"token","type":"address","internalType":"address"}],"outputs":[{"name":"","type":"uint256","internalType":"uint256"}],"stateMutability":"view"},{"type":"function","name":"getHealthFactor","inputs":[{"name":"user","type":"address","internalType":"address"},{"name":"token","type":"address","internalType":"address"}],"outputs":[{"name":"","type":"uint256","internalType":"uint256"}],"stateMutability":"view"},{"type":"function","name":"getMaxBorrow","inputs":[{"name":"user","type":"address","internalType":"address"},{"name":"token","type":"address","internalType":"address"}],"outputs":[{"name":"","type":"uint256","internalType":"uint256"}],"stateMutability":"view"},{"type":"function","name":"liquidate","inputs":[{"name":"user","type":"address","internalType":"address"},{"name":"token","type":"address","internalType":"address"}],"outputs":[],"stateMutability":"nonpayable"},{"type":"function","name":"owner","inputs":[],"outputs":[{"name":"","type":"address","internalType":"address"}],"stateMutability":"view"},{"type":"function","name":"positions","inputs":[{"name":"","type":"address","internalType":"address"},{"name":"","type":"address","internalType":"address"}],"outputs":[{"name":"collateral","type":"uint256","internalType":"uint256"},{"name":"borrowed","type":"uint256","internalType":"uint256"}],"stateMutability":"view"},{"type":"function","name":"priceFeed","inputs":[],"outputs":[{"name":"","type":"address","internalType":"contract PriceFeed"}],"stateMutability":"view"},{"type":"function","name":"removeSupportedToken","inputs":[{"name":"token","type":"address","internalType":"address"}],"outputs":[],"stateMutability":"nonpayable"},{"type":"function","name":"renounceOwnership","inputs":[],"outputs":[],"stateMutability":"nonpayable"},{"type":"function","name":"repay","inputs":[{"name":"token","type":"address","internalType":"address"},{"name":"usdcAmount","type":"uint256","internalType":"uint256"}],"outputs":[],"stateMutability":"nonpayable"},{"type":"function","name":"setPriceFeed","inputs":[{"name":"priceFeed_","type":"address","internalType":"address"}],"outputs":[],"stateMutability":"nonpayable"},{"type":"function","name":"supportedTokens","inputs":[{"name":"","type":"address","internalType":"address"}],"outputs":[{"name":"","type":"bool","internalType":"bool"}],"stateMutability":"view"},{"type":"function","name":"transferOwnership","inputs":[{"name":"newOwner","type":"address","internalType":"address"}],"outputs":[],"stateMutability":"nonpayable"},{"type":"function","name":"usdc","inputs":[],"outputs":[{"name":"","type":"address","internalType":"contract IERC20"}],"stateMutability":"view"},{"type":"function","name":"withdraw","inputs":[{"name":"token","type":"address","internalType":"address"},{"name":"amount","type":"uint256","internalType":"uint256"}],"outputs":[],"stateMutability":"nonpayable"},{"type":"function","name":"withdrawFees","inputs":[],"outputs":[],"stateMutability":"nonpayable"},{"type":"event","name":"Borrowed","inputs":[{"name":"user","type":"address","indexed":true,"internalType":"address"},{"name":"token","type":"address","indexed":true,"internalType":"address"},{"name":"usdcAmount","type":"uint256","indexed":false,"internalType":"uint256"},{"name":"fee","type":"uint256","indexed":false,"internalType":"uint256"}],"anonymous":false},{"type":"event","name":"Deposited","inputs":[{"name":"user","type":"address","indexed":true,"internalType":"address"},{"name":"token","type":"address","indexed":true,"internalType":"address"},{"name":"amount","type":"uint256","indexed":false,"internalType":"uint256"}],"anonymous":false},{"type":"event","name":"FeesWithdrawn","inputs":[{"name":"usdcAmount","type":"uint256","indexed":false,"internalType":"uint256"}],"anonymous":false},{"type":"event","name":"Liquidated","inputs":[{"name":"user","type":"address","indexed":true,"internalType":"address"},{"name":"token","type":"address","indexed":true,"internalType":"address"},{"name":"liquidator","type":"address","indexed":true,"internalType":"address"},{"name":"collateralSeized","type":"uint256","indexed":false,"internalType":"uint256"},{"name":"debtRepaid","type":"uint256","indexed":false,"internalType":"uint256"}],"anonymous":false},{"type":"event","name":"OwnershipTransferred","inputs":[{"name":"previousOwner","type":"address","indexed":true,"internalType":"address"},{"name":"newOwner","type":"address","indexed":true,"internalType":"address"}],"anonymous":false},{"type":"event","name":"PoolFunded","inputs":[{"name":"usdcAmount","type":"uint256","indexed":false,"internalType":"uint256"}],"anonymous":false},{"type":"event","name":"Repaid","inputs":[{"name":"user","type":"address","indexed":true,"internalType":"address"},{"name":"token","type":"address","indexed":true,"internalType":"address"},{"name":"usdcAmount","type":"uint256","indexed":false,"internalType":"uint256"}],"anonymous":false},{"type":"event","name":"TokenAdded","inputs":[{"name":"token","type":"address","indexed":true,"internalType":"address"}],"anonymous":false},{"type":"event","name":"TokenRemoved","inputs":[{"name":"token","type":"address","indexed":true,"internalType":"address"}],"anonymous":false},{"type":"event","name":"Withdrawn","inputs":[{"name":"user","type":"address","indexed":true,"internalType":"address"},{"name":"token","type":"address","indexed":true,"internalType":"address"},{"name":"amount","type":"uint256","indexed":false,"internalType":"uint256"}],"anonymous":false},{"type":"error","name":"OwnableInvalidOwner","inputs":[{"name":"owner","type":"address","internalType":"address"}]},{"type":"error","name":"OwnableUnauthorizedAccount","inputs":[{"name":"account","type":"address","internalType":"address"}]},{"type":"error","name":"ReentrancyGuardReentrantCall","inputs":[]},{"type":"error","name":"SafeERC20FailedOperation","inputs":[{"name":"token","type":"address","internalType":"address"}]}],"bytecode":{"object":"0x60a0346101b557601f61182138819003918201601f19168301916001600160401b038311848410176101b95780849260409485528339810103126101b557610052602061004b836101cd565b92016101cd565b33156101a2575f8054336001600160a01b0319821681178355604051949290916001600160a01b0316907f8be0079c531659141344cd1fd0a4f28419497f9722a3daafe3b4186f6b6457e09080a360017f9b779b17422d0df92223018b32b4d1fa46e071723d6817e2486d003becc55f00556001600160a01b031691821561017457506001600160a01b031690811561013e57608052600180546001600160a01b03191691909117905560405161163f90816101e2823960805181818161041c01528181610561015281816107fa01528181610c4801528181610e5f01528181610ec70152610f7d0152f35b60405162461bcd60e51b815260206004820152600e60248201526d1e995c9bc81c1c9a58d95199595960921b6044820152606490fd5b62461bcd60e51b81526020600482015260096024820152687a65726f207573646360b81b6044820152606490fd5b631e4fbdf760e01b5f525f60045260245ffd5b5f80fd5b634e487b7160e01b5f52604160045260245ffd5b51906001600160a01b03821682036101b55756fe6080806040526004361015610012575f80fd5b5f3560e01c908163185691da1461109a575080631bfaae1d1461107e5780631ec18ec0146110525780631eee3aa314610ff757806322867d7814610ef65780633e413bee14610eb2578063476343ee14610e0f57806347e7ef2414610d5e5780634b8a352914610b915780634bd2144514610b3657806357c89a7d14610b0257806368c4ac2614610ac55780636d69fcaf14610a5d578063715018a614610a06578063724e78da14610986578063741bef1a1461095e57806376319190146108f957806386b9d81f146106f95780638da5cb5b146106d2578063a178908514610449578063da3a5f72146103ca578063e3513531146103ae578063e3cd32d614610392578063f071db5a14610375578063f2fde38b146102f05763f3fef3a31461013a575f80fd5b346102ec5760403660031901126102ec576101536110b3565b6024359061015f611445565b6101688161147d565b6101738215156111f0565b335f52600360205260405f2060018060a01b0382165f5260205260405f2080548381106102b257836001830154801590811561020b575b50506101b59161114f565b90556001600160a01b0316906101cc813384611591565b6040519081527fd1c19fbcd4551a5edfb66d43d2e337c04837afda3482b42bdf569a8fccdae5fb60203392a360015f5160206115ea5f395f51905f5255005b90915061022961021a86611369565b610224888661114f565b611427565b91612710820291820461271014171561029e57611e7890041161024e57835f806101aa565b60405162461bcd60e51b815260206004820152602260248201527f776f756c6420627265616368206c69717569646174696f6e207468726573686f6044820152611b1960f21b6064820152608490fd5b634e487b7160e01b5f52601160045260245ffd5b60405162461bcd60e51b8152602060048201526012602482015271195e18d959591cc818dbdb1b185d195c985b60721b6044820152606490fd5b5f80fd5b346102ec5760203660031901126102ec576103096110b3565b61031161156b565b6001600160a01b03168015610362575f80546001600160a01b03198116831782556001600160a01b0316907f8be0079c531659141344cd1fd0a4f28419497f9722a3daafe3b4186f6b6457e09080a3005b631e4fbdf760e01b5f525f60045260245ffd5b346102ec575f3660031901126102ec576020600454604051908152f35b346102ec575f3660031901126102ec576020604051611e788152f35b346102ec575f3660031901126102ec5760206040516101f48152f35b346102ec5760203660031901126102ec577fd20389ec208fde395624b8221fa1cae9211e46a6ba77134c8e0b1af8c9603398602060043561040961156b565b6104148115156111f0565b6104408130337f00000000000000000000000000000000000000000000000000000000000000006114d9565b604051908152a1005b346102ec5760603660031901126102ec576104626110b3565b6024359060443590610472611445565b61047b8161147d565b821561069b578115610668576001600160a01b0381169283906104a0813033856114d9565b335f52600360205260405f20825f5260205260405f206104c1828254611260565b90556040519081527f8752a472e571a816aea92eec8dae9baf628e840f4929fbcc2d155e6233ff68a760203392a3335f52600360205260405f20835f52602052600161051160405f20923361115c565b91019061052b8254916105248584611260565b111561126d565b6032830283810460320361029e57612710900491610549838561114f565b6040516370a0823160e01b81523060048201529290917f0000000000000000000000000000000000000000000000000000000000000000916020856024816001600160a01b0387165afa801561065d5787955f91610624575b50946105c8916105c3866105bc6105e0996004549061114f565b10156112ab565b611260565b90556105d684600454611260565b6004553390611591565b60405191825260208201527fc14e9e6b4d98a542b05a0f6b64acd5f4cbdb914be88432d87486b664e97071a760403392a360015f5160206115ea5f395f51905f5255005b9550506020853d602011610655575b816106406020938361110f565b810103126102ec5793518694906105c86105a2565b3d9150610633565b6040513d5f823e3d90fd5b60405162461bcd60e51b815260206004820152600b60248201526a7a65726f20626f72726f7760a81b6044820152606490fd5b60405162461bcd60e51b815260206004820152600f60248201526e1e995c9bc818dbdb1b185d195c985b608a1b6044820152606490fd5b346102ec575f3660031901126102ec575f546040516001600160a01b039091168152602090f35b346102ec5760403660031901126102ec576107126110b3565b61071a6110c9565b90610723611445565b61072c8261147d565b6001600160a01b0381163381146108bc57805f52600360205260405f2060018060a01b0384165f5260205260405f2092600184019384549361271061077d84871593610778851561122a565b6112eb565b10156108815761078c83611369565b670de0b6b3a7640000860291868304670de0b6b3a764000014171561029e576107b491611131565b6101f48102908082046101f4148115171561029e576127106107d7920490611260565b94815490818711610877575b6107f0915f88925561114f565b905561081e8330337f00000000000000000000000000000000000000000000000000000000000000006114d9565b6001600160a01b031691610833843385611591565b60405193845260208401527fd1ef587d13fefe63f9bc582e973aad46877ef08cfe790838721bd521c53caf5660403394a460015f5160206115ea5f395f51905f5255005b90955085906107e3565b60405162461bcd60e51b8152602060048201526013602482015272706f736974696f6e206973206865616c74687960681b6044820152606490fd5b60405162461bcd60e51b815260206004820152601560248201527431b0b73737ba103634b8bab4b230ba329039b2b63360591b6044820152606490fd5b346102ec5760203660031901126102ec576109126110b3565b61091a61156b565b6001600160a01b03165f818152600260205260408120805460ff191690557f4c910b69fe65a61f7531b9c5042b2329ca7179c77290aa7e2eb3afa3c8511fd39080a2005b346102ec575f3660031901126102ec576001546040516001600160a01b039091168152602090f35b346102ec5760203660031901126102ec5761099f6110b3565b6109a761156b565b6001600160a01b031680156109d2576bffffffffffffffffffffffff60a01b60015416176001555f80f35b60405162461bcd60e51b815260206004820152600c60248201526b7a65726f206164647265737360a01b6044820152606490fd5b346102ec575f3660031901126102ec57610a1e61156b565b5f80546001600160a01b0319811682556001600160a01b03167f8be0079c531659141344cd1fd0a4f28419497f9722a3daafe3b4186f6b6457e08280a3005b346102ec5760203660031901126102ec57610a766110b3565b610a7e61156b565b6001600160a01b03165f818152600260205260408120805460ff191660011790557f784c8f4dbf0ffedd6e72c76501c545a70f8b203b30a26ce542bf92ba87c248a49080a2005b346102ec5760203660031901126102ec576001600160a01b03610ae66110b3565b165f526002602052602060ff60405f2054166040519015158152f35b346102ec5760403660031901126102ec576020610b2e610b206110b3565b610b286110c9565b906112eb565b604051908152f35b346102ec5760403660031901126102ec57610b4f6110b3565b610b576110c9565b9060018060a01b03165f52600360205260405f209060018060a01b03165f526020526040805f206001815491015482519182526020820152f35b346102ec5760403660031901126102ec57610baa6110b3565b60243590610bb6611445565b610bbf8161147d565b8115610bcb81156111f0565b335f52600360205260405f2060018060a01b0383165f5260205260405f20805415610d29576001610bfc843361115c565b910191610c0f8354926105248785611260565b6032850290858204603214171561029e57612710900491610c30838661114f565b6040516370a0823160e01b81523060048201529290917f0000000000000000000000000000000000000000000000000000000000000000916020856024816001600160a01b0387165afa801561065d5788955f91610cf0575b50946105c8916105c3866105bc610ca3996004549061114f565b604051928352602083015260018060a01b0316907fc14e9e6b4d98a542b05a0f6b64acd5f4cbdb914be88432d87486b664e97071a760403392a360015f5160206115ea5f395f51905f5255005b9550506020853d602011610d21575b81610d0c6020938361110f565b810103126102ec5793518794906105c8610c89565b3d9150610cff565b60405162461bcd60e51b815260206004820152600d60248201526c1b9bc818dbdb1b185d195c985b609a1b6044820152606490fd5b346102ec5760403660031901126102ec57610d776110b3565b60243590610d83611445565b610d8c8161147d565b610d978215156111f0565b6001600160a01b031690610dad813033856114d9565b335f52600360205260405f20825f5260205260405f20610dce828254611260565b90556040519081527f8752a472e571a816aea92eec8dae9baf628e840f4929fbcc2d155e6233ff68a760203392a360015f5160206115ea5f395f51905f5255005b346102ec575f3660031901126102ec57610e2761156b565b6004548015610e835760207f9800e6f57aeb4360eaa72295a820a4293e1e66fbfcabcd8874ae141304a76deb915f60045561044081337f0000000000000000000000000000000000000000000000000000000000000000611591565b60405162461bcd60e51b81526020600482015260076024820152666e6f206665657360c81b6044820152606490fd5b346102ec575f3660031901126102ec576040517f00000000000000000000000000000000000000000000000000000000000000006001600160a01b03168152602090f35b346102ec5760403660031901126102ec57610f0f6110b3565b60243590610f1b611445565b610f248161147d565b610f2f8215156111f0565b335f52600360205260405f2060018060a01b0382165f52602052600160405f20018054928381115f14610fec5750610f7383805b610f6e82151561122a565b61114f565b9055610fa18230337f00000000000000000000000000000000000000000000000000000000000000006114d9565b6040519182526001600160a01b03169033907f0a3fbbea70e93f2daafa3102f5c9a1b8315e6d7a1e43e4bc020bc1162327470a90602090a360015f5160206115ea5f395f51905f5255005b610f73908094610f63565b346102ec5760403660031901126102ec576020610b2e6110156110b3565b61101d6110c9565b6001600160a01b039182165f908152600385526040808220938316825292855291909120549061104c90611369565b90611427565b346102ec5760403660031901126102ec576020610b2e6110706110b3565b6110786110c9565b9061115c565b346102ec575f3660031901126102ec576020604051611b588152f35b346102ec575f3660031901126102ec5780603260209252f35b600435906001600160a01b03821682036102ec57565b602435906001600160a01b03821682036102ec57565b6040810190811067ffffffffffffffff8211176110fb57604052565b634e487b7160e01b5f52604160045260245ffd5b90601f8019910116810190811067ffffffffffffffff8211176110fb57604052565b811561113b570490565b634e487b7160e01b5f52601260045260245ffd5b9190820391821161029e57565b60018060a01b03165f52600360205260405f2060018060a01b0382165f5260205260405f20906040519161118f836110df565b602060018254928386520154930192835280156111e95761104c6111b292611369565b611b58810290808204611b58149015171561029e57612710900490518082115f146111e3576111e09161114f565b90565b50505f90565b5050505f90565b156111f757565b60405162461bcd60e51b815260206004820152600b60248201526a1e995c9bc8185b5bdd5b9d60aa1b6044820152606490fd5b1561123157565b60405162461bcd60e51b81526020600482015260076024820152661b9bc81919589d60ca1b6044820152606490fd5b9190820180921161029e57565b1561127457565b60405162461bcd60e51b815260206004820152600f60248201526e32bc31b2b2b239901b981290262a2b60891b6044820152606490fd5b156112b257565b60405162461bcd60e51b81526020600482015260116024820152701c1bdbdb081a5b9cdd59999a58da595b9d607a1b6044820152606490fd5b60018060a01b03165f52600360205260405f2060018060a01b0382165f5260205260405f20906040519161131e836110df565b602060018254928386520154930192808452156113615761104c61134192611369565b611e78810290808204611e78149015171561029e576111e0915190611131565b5050505f1990565b6001546040516353084eff60e01b81526001600160a01b039283166004820152929160209184916024918391165afa91821561065d575f926113f3575b5081156113af57565b606460405162461bcd60e51b815260206004820152602060248201527f7853746f636b5661756c743a207072696365206e6f7420617661696c61626c656044820152fd5b9091506020813d60201161141f575b8161140f6020938361110f565b810103126102ec5751905f6113a6565b3d9150611402565b81810291818304149015171561029e57670de0b6b3a7640000900490565b60025f5160206115ea5f395f51905f52541461146e5760025f5160206115ea5f395f51905f5255565b633ee5aeb560e01b5f5260045ffd5b6001600160a01b03165f9081526002602052604090205460ff161561149e57565b60405162461bcd60e51b81526020600482015260136024820152721d1bdad95b881b9bdd081cdd5c1c1bdc9d1959606a1b6044820152606490fd5b6040516323b872dd60e01b5f9081526001600160a01b039384166004529290931660245260449390935260209060648180865af19060015f511482161561154a575b6040525f6060521561152a5750565b635274afe760e01b5f9081526001600160a01b0391909116600452602490fd5b90600181151661156257823b15153d1516169061151b565b503d5f823e3d90fd5b5f546001600160a01b0316330361157e57565b63118cdaa760e01b5f523360045260245ffd5b916040519163a9059cbb60e01b5f5260018060a01b031660045260245260205f60448180865af19060015f51148216156115d1575b6040521561152a5750565b90600181151661156257823b15153d151616906115c656fe9b779b17422d0df92223018b32b4d1fa46e071723d6817e2486d003becc55f00a2646970667358221220976bde2552c7d43654fa9bed24e0bbbde56d5158ad5caa45432a0dec4e906cf664736f6c634300081b0033","linkReferences":{}},"methodIdentifiers":{"BORROW_FEE_BPS()":"185691da","LIQ_BONUS_BPS()":"e3513531","LIQ_THRESHOLD_BPS()":"e3cd32d6","MAX_LTV_BPS()":"1bfaae1d","addSupportedToken(address)":"6d69fcaf","borrow(address,uint256)":"4b8a3529","deposit(address,uint256)":"47e7ef24","depositAndBorrow(address,uint256,uint256)":"a1789085","feesCollected()":"f071db5a","fundPool(uint256)":"da3a5f72","getCollateralValue(address,address)":"1eee3aa3","getHealthFactor(address,address)":"57c89a7d","getMaxBorrow(address,address)":"1ec18ec0","liquidate(address,address)":"86b9d81f","owner()":"8da5cb5b","positions(address,address)":"4bd21445","priceFeed()":"741bef1a","removeSupportedToken(address)":"76319190","renounceOwnership()":"715018a6","repay(address,uint256)":"22867d78","setPriceFeed(address)":"724e78da","supportedTokens(address)":"68c4ac26","transferOwnership(address)":"f2fde38b","usdc()":"3e413bee","withdraw(address,uint256)":"f3fef3a3","withdrawFees()":"476343ee"},"id":12}