{"abi":[{"type":"constructor","inputs":[{"name":"usdc_","type":"address","internalType":"address"},{"name":"oracle_","type":"address","internalType":"address"}],"stateMutability":"nonpayable"},{"type":"function","name":"BORROW_FEE_BPS","inputs":[],"outputs":[{"name":"","type":"uint256","internalType":"uint256"}],"stateMutability":"view"},{"type":"function","name":"LIQ_BONUS_BPS","inputs":[],"outputs":[{"name":"","type":"uint256","internalType":"uint256"}],"stateMutability":"view"},{"type":"function","name":"LIQ_THRESHOLD_BPS","inputs":[],"outputs":[{"name":"","type":"uint256","internalType":"uint256"}],"stateMutability":"view"},{"type":"function","name":"MAX_LTV_BPS","inputs":[],"outputs":[{"name":"","type":"uint256","internalType":"uint256"}],"stateMutability":"view"},{"type":"function","name":"addSupportedToken","inputs":[{"name":"token","type":"address","internalType":"address"}],"outputs":[],"stateMutability":"nonpayable"},{"type":"function","name":"borrow","inputs":[{"name":"token","type":"address","internalType":"address"},{"name":"usdcAmount","type":"uint256","internalType":"uint256"}],"outputs":[],"stateMutability":"nonpayable"},{"type":"function","name":"deposit","inputs":[{"name":"token","type":"address","internalType":"address"},{"name":"amount","type":"uint256","internalType":"uint256"}],"outputs":[],"stateMutability":"nonpayable"},{"type":"function","name":"depositAndBorrow","inputs":[{"name":"token","type":"address","internalType":"address"},{"name":"collateralAmount","type":"uint256","internalType":"uint256"},{"name":"borrowAmount","type":"uint256","internalType":"uint256"}],"outputs":[],"stateMutability":"nonpayable"},{"type":"function","name":"feesCollected","inputs":[],"outputs":[{"name":"","type":"uint256","internalType":"uint256"}],"stateMutability":"view"},{"type":"function","name":"fundPool","inputs":[{"name":"usdcAmount","type":"uint256","internalType":"uint256"}],"outputs":[],"stateMutability":"nonpayable"},{"type":"function","name":"getCollateralValue","inputs":[{"name":"user","type":"address","internalType":"address"},{"name":"token","type":"address","internalType":"address"}],"outputs":[{"name":"","type":"uint256","internalType":"uint256"}],"stateMutability":"view"},{"type":"function","name":"getHealthFactor","inputs":[{"name":"user","type":"address","internalType":"address"},{"name":"token","type":"address","internalType":"address"}],"outputs":[{"name":"","type":"uint256","internalType":"uint256"}],"stateMutability":"view"},{"type":"function","name":"getMaxBorrow","inputs":[{"name":"user","type":"address","internalType":"address"},{"name":"token","type":"address","internalType":"address"}],"outputs":[{"name":"","type":"uint256","internalType":"uint256"}],"stateMutability":"view"},{"type":"function","name":"liquidate","inputs":[{"name":"user","type":"address","internalType":"address"},{"name":"token","type":"address","internalType":"address"}],"outputs":[],"stateMutability":"nonpayable"},{"type":"function","name":"oracle","inputs":[],"outputs":[{"name":"","type":"address","internalType":"contract IOracle"}],"stateMutability":"view"},{"type":"function","name":"owner","inputs":[],"outputs":[{"name":"","type":"address","internalType":"address"}],"stateMutability":"view"},{"type":"function","name":"positions","inputs":[{"name":"","type":"address","internalType":"address"},{"name":"","type":"address","internalType":"address"}],"outputs":[{"name":"collateral","type":"uint256","internalType":"uint256"},{"name":"borrowed","type":"uint256","internalType":"uint256"}],"stateMutability":"view"},{"type":"function","name":"removeSupportedToken","inputs":[{"name":"token","type":"address","internalType":"address"}],"outputs":[],"stateMutability":"nonpayable"},{"type":"function","name":"renounceOwnership","inputs":[],"outputs":[],"stateMutability":"nonpayable"},{"type":"function","name":"repay","inputs":[{"name":"token","type":"address","internalType":"address"},{"name":"usdcAmount","type":"uint256","internalType":"uint256"}],"outputs":[],"stateMutability":"nonpayable"},{"type":"function","name":"setOracle","inputs":[{"name":"oracle_","type":"address","internalType":"address"}],"outputs":[],"stateMutability":"nonpayable"},{"type":"function","name":"supportedTokens","inputs":[{"name":"","type":"address","internalType":"address"}],"outputs":[{"name":"","type":"bool","internalType":"bool"}],"stateMutability":"view"},{"type":"function","name":"transferOwnership","inputs":[{"name":"newOwner","type":"address","internalType":"address"}],"outputs":[],"stateMutability":"nonpayable"},{"type":"function","name":"usdc","inputs":[],"outputs":[{"name":"","type":"address","internalType":"contract IERC20"}],"stateMutability":"view"},{"type":"function","name":"withdraw","inputs":[{"name":"token","type":"address","internalType":"address"},{"name":"amount","type":"uint256","internalType":"uint256"}],"outputs":[],"stateMutability":"nonpayable"},{"type":"function","name":"withdrawFees","inputs":[],"outputs":[],"stateMutability":"nonpayable"},{"type":"event","name":"Borrowed","inputs":[{"name":"user","type":"address","indexed":true,"internalType":"address"},{"name":"token","type":"address","indexed":true,"internalType":"address"},{"name":"usdcAmount","type":"uint256","indexed":false,"internalType":"uint256"},{"name":"fee","type":"uint256","indexed":false,"internalType":"uint256"}],"anonymous":false},{"type":"event","name":"Deposited","inputs":[{"name":"user","type":"address","indexed":true,"internalType":"address"},{"name":"token","type":"address","indexed":true,"internalType":"address"},{"name":"amount","type":"uint256","indexed":false,"internalType":"uint256"}],"anonymous":false},{"type":"event","name":"FeesWithdrawn","inputs":[{"name":"usdcAmount","type":"uint256","indexed":false,"internalType":"uint256"}],"anonymous":false},{"type":"event","name":"Liquidated","inputs":[{"name":"user","type":"address","indexed":true,"internalType":"address"},{"name":"token","type":"address","indexed":true,"internalType":"address"},{"name":"liquidator","type":"address","indexed":true,"internalType":"address"},{"name":"collateralSeized","type":"uint256","indexed":false,"internalType":"uint256"},{"name":"debtRepaid","type":"uint256","indexed":false,"internalType":"uint256"}],"anonymous":false},{"type":"event","name":"OracleUpdated","inputs":[{"name":"newOracle","type":"address","indexed":true,"internalType":"address"}],"anonymous":false},{"type":"event","name":"OwnershipTransferred","inputs":[{"name":"previousOwner","type":"address","indexed":true,"internalType":"address"},{"name":"newOwner","type":"address","indexed":true,"internalType":"address"}],"anonymous":false},{"type":"event","name":"PoolFunded","inputs":[{"name":"usdcAmount","type":"uint256","indexed":false,"internalType":"uint256"}],"anonymous":false},{"type":"event","name":"Repaid","inputs":[{"name":"user","type":"address","indexed":true,"internalType":"address"},{"name":"token","type":"address","indexed":true,"internalType":"address"},{"name":"usdcAmount","type":"uint256","indexed":false,"internalType":"uint256"}],"anonymous":false},{"type":"event","name":"TokenAdded","inputs":[{"name":"token","type":"address","indexed":true,"internalType":"address"}],"anonymous":false},{"type":"event","name":"TokenRemoved","inputs":[{"name":"token","type":"address","indexed":true,"internalType":"address"}],"anonymous":false},{"type":"event","name":"Withdrawn","inputs":[{"name":"user","type":"address","indexed":true,"internalType":"address"},{"name":"token","type":"address","indexed":true,"internalType":"address"},{"name":"amount","type":"uint256","indexed":false,"internalType":"uint256"}],"anonymous":false},{"type":"error","name":"OwnableInvalidOwner","inputs":[{"name":"owner","type":"address","internalType":"address"}]},{"type":"error","name":"OwnableUnauthorizedAccount","inputs":[{"name":"account","type":"address","internalType":"address"}]},{"type":"error","name":"ReentrancyGuardReentrantCall","inputs":[]},{"type":"error","name":"SafeERC20FailedOperation","inputs":[{"name":"token","type":"address","internalType":"address"}]}],"bytecode":{"object":"0x60a060405234801561000f575f5ffd5b50604051611bbe380380611bbe83398101604081905261002e9161019a565b338061005457604051631e4fbdf760e01b81525f60048201526024015b60405180910390fd5b61005d81610130565b5060017f9b779b17422d0df92223018b32b4d1fa46e071723d6817e2486d003becc55f00556001600160a01b0382166100c45760405162461bcd60e51b81526020600482015260096024820152687a65726f207573646360b81b604482015260640161004b565b6001600160a01b0381166101085760405162461bcd60e51b815260206004820152600b60248201526a7a65726f206f7261636c6560a81b604482015260640161004b565b6001600160a01b03918216608052600180546001600160a01b031916919092161790556101cb565b5f80546001600160a01b038381166001600160a01b0319831681178455604051919092169283917f8be0079c531659141344cd1fd0a4f28419497f9722a3daafe3b4186f6b6457e09190a35050565b80516001600160a01b0381168114610195575f5ffd5b919050565b5f5f604083850312156101ab575f5ffd5b6101b48361017f565b91506101c26020840161017f565b90509250929050565b6080516119a361021b5f395f81816101ef015281816105920152818161066a015281816108d7015281816109ca01528181610dbb015281816110480152818161113b01526111fb01526119a35ff3fe608060405234801561000f575f5ffd5b5060043610610187575f3560e01c8063715018a6116100d9578063a178908511610093578063e3cd32d61161006e578063e3cd32d614610388578063f071db5a14610391578063f2fde38b1461039a578063f3fef3a3146103ad575f5ffd5b8063a178908514610359578063da3a5f721461036c578063e35135311461037f575f5ffd5b8063715018a6146102f557806376319190146102fd5780637adbf973146103105780637dc0d1d01461032357806386b9d81f146103365780638da5cb5b14610349575f5ffd5b8063476343ee116101445780634bd214451161011f5780634bd214451461025757806357c89a7d1461029d57806368c4ac26146102b05780636d69fcaf146102e2575f5ffd5b8063476343ee1461022957806347e7ef24146102315780634b8a352914610244575f5ffd5b8063185691da1461018b5780631bfaae1d146101a65780631ec18ec0146101af5780631eee3aa3146101c257806322867d78146101d55780633e413bee146101ea575b5f5ffd5b610193603281565b6040519081526020015b60405180910390f35b610193611b5881565b6101936101bd3660046117c6565b6103c0565b6101936101d03660046117c6565b610477565b6101e86101e33660046117f7565b6104bc565b005b6102117f000000000000000000000000000000000000000000000000000000000000000081565b6040516001600160a01b03909116815260200161019d565b6101e8610617565b6101e861023f3660046117f7565b6106c8565b6101e86102523660046117f7565b61079a565b6102886102653660046117c6565b600360209081525f92835260408084209091529082529020805460019091015482565b6040805192835260208301919091520161019d565b6101936102ab3660046117c6565b610a51565b6102d26102be36600461181f565b60026020525f908152604090205460ff1681565b604051901515815260200161019d565b6101e86102f036600461181f565b610ae2565b6101e8610b35565b6101e861030b36600461181f565b610b48565b6101e861031e36600461181f565b610b98565b600154610211906001600160a01b031681565b6101e86103443660046117c6565b610c2d565b5f546001600160a01b0316610211565b6101e8610367366004611838565b610e5e565b6101e861037a366004611868565b6111c7565b6101936101f481565b610193611e7881565b61019360045481565b6101e86103a836600461181f565b611253565b6101e86103bb3660046117f7565b611290565b6001600160a01b038083165f908152600360209081526040808320938516835292815282822083518085019094528054808552600190910154918401919091529091908203610412575f915050610471565b5f61041c8461143c565b90505f61042c835f0151836114fc565b90505f61271061043e611b5884611893565b61044891906118aa565b90508360200151811161045b575f61046a565b602084015161046a90826118c9565b9450505050505b92915050565b5f5f6104828361143c565b6001600160a01b038086165f908152600360209081526040808320938816835292905220549091506104b490826114fc565b949350505050565b6104c4611522565b6104cd8261153d565b5f81116104f55760405162461bcd60e51b81526004016104ec906118dc565b60405180910390fd5b335f9081526003602090815260408083206001600160a01b038616845290915281206001810154909190831161052b5782610531565b81600101545b90505f811161056c5760405162461bcd60e51b81526020600482015260076024820152661b9bc81919589d60ca1b60448201526064016104ec565b80826001015f82825461057f91906118c9565b909155506105ba90506001600160a01b037f00000000000000000000000000000000000000000000000000000000000000001633308461159a565b6040518181526001600160a01b0385169033907f0a3fbbea70e93f2daafa3102f5c9a1b8315e6d7a1e43e4bc020bc1162327470a906020015b60405180910390a3505061061360015f51602061194e5f395f51905f5255565b5050565b61061f6115d6565b600454806106595760405162461bcd60e51b81526020600482015260076024820152666e6f206665657360c81b60448201526064016104ec565b5f6004556106916001600160a01b037f0000000000000000000000000000000000000000000000000000000000000000163383611602565b6040518181527f9800e6f57aeb4360eaa72295a820a4293e1e66fbfcabcd8874ae141304a76deb906020015b60405180910390a150565b6106d0611522565b6106d98261153d565b5f81116106f85760405162461bcd60e51b81526004016104ec906118dc565b61070d6001600160a01b03831633308461159a565b335f9081526003602090815260408083206001600160a01b03861684529091528120805483929061073f908490611901565b90915550506040518181526001600160a01b0383169033907f8752a472e571a816aea92eec8dae9baf628e840f4929fbcc2d155e6233ff68a79060200160405180910390a361061360015f51602061194e5f395f51905f5255565b6107a2611522565b6107ab8261153d565b5f81116107ca5760405162461bcd60e51b81526004016104ec906118dc565b335f9081526003602090815260408083206001600160a01b03861684529091529020805461082a5760405162461bcd60e51b815260206004820152600d60248201526c1b9bc818dbdb1b185d195c985b609a1b60448201526064016104ec565b5f61083533856103c0565b9050808383600101546108489190611901565b11156108885760405162461bcd60e51b815260206004820152600f60248201526e32bc31b2b2b239901b981290262a2b60891b60448201526064016104ec565b5f612710610897603286611893565b6108a191906118aa565b90505f6108ae82866118c9565b600480546040516370a0823160e01b815230928101929092529192508291906001600160a01b037f000000000000000000000000000000000000000000000000000000000000000016906370a0823190602401602060405180830381865afa15801561091c573d5f5f3e3d5ffd5b505050506040513d601f19601f820116820180604052508101906109409190611914565b61094a91906118c9565b101561098c5760405162461bcd60e51b81526020600482015260116024820152701c1bdbdb081a5b9cdd59999a58da595b9d607a1b60448201526064016104ec565b84846001015f82825461099f9190611901565b925050819055508160045f8282546109b79190611901565b909155506109f190506001600160a01b037f0000000000000000000000000000000000000000000000000000000000000000163383611602565b60408051868152602081018490526001600160a01b0388169133917fc14e9e6b4d98a542b05a0f6b64acd5f4cbdb914be88432d87486b664e97071a7910160405180910390a35050505061061360015f51602061194e5f395f51905f5255565b6001600160a01b038083165f9081526003602090815260408083209385168352928152828220835180850190945280548452600101549083018190529091908203610aa0575f19915050610471565b5f610aaa8461143c565b90505f610aba835f0151836114fc565b6020840151909150610ace611e7883611893565b610ad891906118aa565b9695505050505050565b610aea6115d6565b6001600160a01b0381165f81815260026020526040808220805460ff19166001179055517f784c8f4dbf0ffedd6e72c76501c545a70f8b203b30a26ce542bf92ba87c248a49190a250565b610b3d6115d6565b610b465f611637565b565b610b506115d6565b6001600160a01b0381165f81815260026020526040808220805460ff19169055517f4c910b69fe65a61f7531b9c5042b2329ca7179c77290aa7e2eb3afa3c8511fd39190a250565b610ba06115d6565b6001600160a01b038116610be45760405162461bcd60e51b815260206004820152600b60248201526a7a65726f206f7261636c6560a81b60448201526064016104ec565b600180546001600160a01b0319166001600160a01b0383169081179091556040517f3df77beb5db05fcdd70a30fc8adf3f83f9501b68579455adbd100b8180940394905f90a250565b610c35611522565b610c3e8161153d565b336001600160a01b03831603610c8e5760405162461bcd60e51b815260206004820152601560248201527431b0b73737ba103634b8bab4b230ba329039b2b63360591b60448201526064016104ec565b6001600160a01b038083165f9081526003602090815260408083209385168352929052206001810154610ced5760405162461bcd60e51b81526020600482015260076024820152661b9bc81919589d60ca1b60448201526064016104ec565b610cf78383611686565b15610d3a5760405162461bcd60e51b8152602060048201526013602482015272706f736974696f6e206973206865616c74687960681b60448201526064016104ec565b60018101545f610d498461143c565b90505f610d56838361169d565b90505f612710610d686101f484611893565b610d7291906118aa565b90505f610d7f8284611901565b8654909150811115610d8f575084545b5f60018701819055865482918891610da89084906118c9565b90915550610de390506001600160a01b037f00000000000000000000000000000000000000000000000000000000000000001633308861159a565b610df76001600160a01b0388163383611602565b604080518281526020810187905233916001600160a01b038a811692908c16917fd1ef587d13fefe63f9bc582e973aad46877ef08cfe790838721bd521c53caf56910160405180910390a450505050505061061360015f51602061194e5f395f51905f5255565b610e66611522565b610e6f8361153d565b5f8211610eb05760405162461bcd60e51b815260206004820152600f60248201526e1e995c9bc818dbdb1b185d195c985b608a1b60448201526064016104ec565b5f8111610eed5760405162461bcd60e51b815260206004820152600b60248201526a7a65726f20626f72726f7760a81b60448201526064016104ec565b610f026001600160a01b03841633308561159a565b335f9081526003602090815260408083206001600160a01b038716845290915281208054849290610f34908490611901565b90915550506040518281526001600160a01b0384169033907f8752a472e571a816aea92eec8dae9baf628e840f4929fbcc2d155e6233ff68a79060200160405180910390a3335f8181526003602090815260408083206001600160a01b0388168452909152812091610fa690866103c0565b905080838360010154610fb99190611901565b1115610ff95760405162461bcd60e51b815260206004820152600f60248201526e32bc31b2b2b239901b981290262a2b60891b60448201526064016104ec565b5f612710611008603286611893565b61101291906118aa565b90505f61101f82866118c9565b600480546040516370a0823160e01b815230928101929092529192508291906001600160a01b037f000000000000000000000000000000000000000000000000000000000000000016906370a0823190602401602060405180830381865afa15801561108d573d5f5f3e3d5ffd5b505050506040513d601f19601f820116820180604052508101906110b19190611914565b6110bb91906118c9565b10156110fd5760405162461bcd60e51b81526020600482015260116024820152701c1bdbdb081a5b9cdd59999a58da595b9d607a1b60448201526064016104ec565b84846001015f8282546111109190611901565b925050819055508160045f8282546111289190611901565b9091555061116290506001600160a01b037f0000000000000000000000000000000000000000000000000000000000000000163383611602565b60408051868152602081018490526001600160a01b0389169133917fc14e9e6b4d98a542b05a0f6b64acd5f4cbdb914be88432d87486b664e97071a7910160405180910390a3505050506111c260015f51602061194e5f395f51905f5255565b505050565b6111cf6115d6565b5f81116111ee5760405162461bcd60e51b81526004016104ec906118dc565b6112236001600160a01b037f00000000000000000000000000000000000000000000000000000000000000001633308461159a565b6040518181527fd20389ec208fde395624b8221fa1cae9211e46a6ba77134c8e0b1af8c9603398906020016106bd565b61125b6115d6565b6001600160a01b03811661128457604051631e4fbdf760e01b81525f60048201526024016104ec565b61128d81611637565b50565b611298611522565b6112a18261153d565b5f81116112c05760405162461bcd60e51b81526004016104ec906118dc565b335f9081526003602090815260408083206001600160a01b0386168452909152902080548211156113285760405162461bcd60e51b8152602060048201526012602482015271195e18d959591cc818dbdb1b185d195c985b60721b60448201526064016104ec565b80545f906113379084906118c9565b6001830154909150156113d3575f61134e8561143c565b90505f61135b83836114fc565b90505f611e7885600101546127106113739190611893565b61137d91906118aa565b9050808210156113cf5760405162461bcd60e51b815260206004820152601a60248201527f776f756c6420627265616368204c4951207468726573686f6c6400000000000060448201526064016104ec565b5050505b82825f015f8282546113e591906118c9565b909155506113ff90506001600160a01b0385163385611602565b6040518381526001600160a01b0385169033907fd1c19fbcd4551a5edfb66d43d2e337c04837afda3482b42bdf569a8fccdae5fb906020016105f3565b6001546040516302c68be360e31b81526001600160a01b0383811660048301525f9216906316345f18906024016040805180830381865afa158015611483573d5f5f3e3d5ffd5b505050506040513d601f19601f820116820180604052508101906114a7919061192b565b509050806114f75760405162461bcd60e51b815260206004820152601960248201527f7853746f636b5661756c743a207374616c65206f7261636c650000000000000060448201526064016104ec565b919050565b5f68056bc75e2d631000006115118385611893565b61151b91906118aa565b9392505050565b61152a6116b2565b60025f51602061194e5f395f51905f5255565b6001600160a01b0381165f9081526002602052604090205460ff1661128d5760405162461bcd60e51b81526020600482015260136024820152721d1bdad95b881b9bdd081cdd5c1c1bdc9d1959606a1b60448201526064016104ec565b6115a88484848460016116e1565b6115d057604051635274afe760e01b81526001600160a01b03851660048201526024016104ec565b50505050565b5f546001600160a01b03163314610b465760405163118cdaa760e01b81523360048201526024016104ec565b61160f838383600161174e565b6111c257604051635274afe760e01b81526001600160a01b03841660048201526024016104ec565b5f80546001600160a01b038381166001600160a01b0319831681178455604051919092169283917f8be0079c531659141344cd1fd0a4f28419497f9722a3daafe3b4186f6b6457e09190a35050565b5f6127106116948484610a51565b10159392505050565b5f8161151168056bc75e2d6310000085611893565b5f51602061194e5f395f51905f5254600203610b4657604051633ee5aeb560e01b815260040160405180910390fd5b6040516323b872dd60e01b5f8181526001600160a01b038781166004528616602452604485905291602083606481808c5af1925060015f5114831661173d578383151615611731573d5f823e3d81fd5b5f883b113d1516831692505b604052505f60605295945050505050565b60405163a9059cbb60e01b5f8181526001600160a01b038616600452602485905291602083604481808b5af1925060015f511483166117a4578383151615611798573d5f823e3d81fd5b5f873b113d1516831692505b60405250949350505050565b80356001600160a01b03811681146114f7575f5ffd5b5f5f604083850312156117d7575f5ffd5b6117e0836117b0565b91506117ee602084016117b0565b90509250929050565b5f5f60408385031215611808575f5ffd5b611811836117b0565b946020939093013593505050565b5f6020828403121561182f575f5ffd5b61151b826117b0565b5f5f5f6060848603121561184a575f5ffd5b611853846117b0565b95602085013595506040909401359392505050565b5f60208284031215611878575f5ffd5b5035919050565b634e487b7160e01b5f52601160045260245ffd5b80820281158282048414176104715761047161187f565b5f826118c457634e487b7160e01b5f52601260045260245ffd5b500490565b818103818111156104715761047161187f565b6020808252600b908201526a1e995c9bc8185b5bdd5b9d60aa1b604082015260600190565b808201808211156104715761047161187f565b5f60208284031215611924575f5ffd5b5051919050565b5f5f6040838503121561193c575f5ffd5b50508051602090910151909290915056fe9b779b17422d0df92223018b32b4d1fa46e071723d6817e2486d003becc55f00a2646970667358221220585037ffb8d56a2fc8f9456d0712dda8aeb53caeb0c382e96bde539445acfacd64736f6c634300081b0033","linkReferences":{}},"methodIdentifiers":{"BORROW_FEE_BPS()":"185691da","LIQ_BONUS_BPS()":"e3513531","LIQ_THRESHOLD_BPS()":"e3cd32d6","MAX_LTV_BPS()":"1bfaae1d","addSupportedToken(address)":"6d69fcaf","borrow(address,uint256)":"4b8a3529","deposit(address,uint256)":"47e7ef24","depositAndBorrow(address,uint256,uint256)":"a1789085","feesCollected()":"f071db5a","fundPool(uint256)":"da3a5f72","getCollateralValue(address,address)":"1eee3aa3","getHealthFactor(address,address)":"57c89a7d","getMaxBorrow(address,address)":"1ec18ec0","liquidate(address,address)":"86b9d81f","oracle()":"7dc0d1d0","owner()":"8da5cb5b","positions(address,address)":"4bd21445","removeSupportedToken(address)":"76319190","renounceOwnership()":"715018a6","repay(address,uint256)":"22867d78","setOracle(address)":"7adbf973","supportedTokens(address)":"68c4ac26","transferOwnership(address)":"f2fde38b","usdc()":"3e413bee","withdraw(address,uint256)":"f3fef3a3","withdrawFees()":"476343ee"},"id":16}