{"abi":[{"type":"constructor","inputs":[{"name":"usdc_","type":"address","internalType":"address"},{"name":"priceFeed_","type":"address","internalType":"address"}],"stateMutability":"nonpayable"},{"type":"function","name":"bets","inputs":[{"name":"","type":"uint256","internalType":"uint256"}],"outputs":[{"name":"player","type":"address","internalType":"address"},{"name":"token","type":"address","internalType":"address"},{"name":"priceTicks","type":"int8","internalType":"int8"},{"name":"timeBuckets","type":"uint256","internalType":"uint256"},{"name":"targetPrice","type":"uint256","internalType":"uint256"},{"name":"expiryTs","type":"uint256","internalType":"uint256"},{"name":"tokenAmount","type":"uint256","internalType":"uint256"},{"name":"usdcPaid","type":"uint256","internalType":"uint256"},{"name":"multiplier","type":"uint256","internalType":"uint256"},{"name":"isUsdcBet","type":"bool","internalType":"bool"},{"name":"resolved","type":"bool","internalType":"bool"},{"name":"won","type":"bool","internalType":"bool"},{"name":"claimed","type":"bool","internalType":"bool"}],"stateMutability":"view"},{"type":"function","name":"bucketMaxPayout","inputs":[{"name":"","type":"address","internalType":"address"},{"name":"","type":"uint256","internalType":"uint256"}],"outputs":[{"name":"","type":"uint256","internalType":"uint256"}],"stateMutability":"view"},{"type":"function","name":"claimMultiple","inputs":[{"name":"betIds","type":"uint256[]","internalType":"uint256[]"}],"outputs":[],"stateMutability":"nonpayable"},{"type":"function","name":"claimWinnings","inputs":[{"name":"betId","type":"uint256","internalType":"uint256"}],"outputs":[],"stateMutability":"nonpayable"},{"type":"function","name":"configureToken","inputs":[{"name":"token","type":"address","internalType":"address"},{"name":"annualVolBps","type":"uint256","internalType":"uint256"},{"name":"tickSizeUsdc","type":"uint256","internalType":"uint256"},{"name":"bucketSeconds","type":"uint256","internalType":"uint256"},{"name":"houseEdgeBps","type":"uint256","internalType":"uint256"},{"name":"minBetUsdc","type":"uint256","internalType":"uint256"},{"name":"maxBetUsdc","type":"uint256","internalType":"uint256"},{"name":"gridWidth","type":"uint8","internalType":"uint8"},{"name":"gridHalfHeight","type":"uint8","internalType":"uint8"}],"outputs":[],"stateMutability":"nonpayable"},{"type":"function","name":"depositLiquidity","inputs":[{"name":"token","type":"address","internalType":"address"},{"name":"amount","type":"uint256","internalType":"uint256"}],"outputs":[],"stateMutability":"nonpayable"},{"type":"function","name":"freeBalance","inputs":[{"name":"token","type":"address","internalType":"address"}],"outputs":[{"name":"","type":"uint256","internalType":"uint256"}],"stateMutability":"view"},{"type":"function","name":"getBetStatus","inputs":[{"name":"betId","type":"uint256","internalType":"uint256"}],"outputs":[{"name":"resolved","type":"bool","internalType":"bool"},{"name":"won","type":"bool","internalType":"bool"},{"name":"claimed","type":"bool","internalType":"bool"},{"name":"tokenPayout","type":"uint256","internalType":"uint256"},{"name":"isUsdcBet","type":"bool","internalType":"bool"},{"name":"usdcPaid","type":"uint256","internalType":"uint256"}],"stateMutability":"view"},{"type":"function","name":"getGridMatrix","inputs":[{"name":"token","type":"address","internalType":"address"}],"outputs":[{"name":"multipliers","type":"uint256[][]","internalType":"uint256[][]"},{"name":"prices","type":"uint256[]","internalType":"uint256[]"},{"name":"currentPrice","type":"uint256","internalType":"uint256"}],"stateMutability":"view"},{"type":"function","name":"lockedForPayouts","inputs":[{"name":"","type":"address","internalType":"address"}],"outputs":[{"name":"","type":"uint256","internalType":"uint256"}],"stateMutability":"view"},{"type":"function","name":"lpShares","inputs":[{"name":"","type":"address","internalType":"address"}],"outputs":[{"name":"","type":"uint256","internalType":"uint256"}],"stateMutability":"view"},{"type":"function","name":"lpTokenShares","inputs":[{"name":"","type":"address","internalType":"address"},{"name":"","type":"address","internalType":"address"}],"outputs":[{"name":"","type":"uint256","internalType":"uint256"}],"stateMutability":"view"},{"type":"function","name":"minPoolTokens","inputs":[],"outputs":[{"name":"","type":"uint256","internalType":"uint256"}],"stateMutability":"view"},{"type":"function","name":"nextBetId","inputs":[],"outputs":[{"name":"","type":"uint256","internalType":"uint256"}],"stateMutability":"view"},{"type":"function","name":"owner","inputs":[],"outputs":[{"name":"","type":"address","internalType":"address"}],"stateMutability":"view"},{"type":"function","name":"paused","inputs":[],"outputs":[{"name":"","type":"bool","internalType":"bool"}],"stateMutability":"view"},{"type":"function","name":"placeBet","inputs":[{"name":"token","type":"address","internalType":"address"},{"name":"priceTicks","type":"int8","internalType":"int8"},{"name":"timeBuckets","type":"uint8","internalType":"uint8"},{"name":"amount","type":"uint256","internalType":"uint256"}],"outputs":[{"name":"betId","type":"uint256","internalType":"uint256"}],"stateMutability":"nonpayable"},{"type":"function","name":"placeBetWithUSDC","inputs":[{"name":"token","type":"address","internalType":"address"},{"name":"priceTicks","type":"int8","internalType":"int8"},{"name":"timeBuckets","type":"uint8","internalType":"uint8"},{"name":"usdcAmount","type":"uint256","internalType":"uint256"}],"outputs":[{"name":"betId","type":"uint256","internalType":"uint256"}],"stateMutability":"nonpayable"},{"type":"function","name":"previewMultiplier","inputs":[{"name":"token","type":"address","internalType":"address"},{"name":"priceTicks","type":"int8","internalType":"int8"},{"name":"timeBuckets","type":"uint8","internalType":"uint8"}],"outputs":[{"name":"multiplier","type":"uint256","internalType":"uint256"},{"name":"probability","type":"uint256","internalType":"uint256"},{"name":"targetPrice","type":"uint256","internalType":"uint256"},{"name":"payout100USDC","type":"uint256","internalType":"uint256"}],"stateMutability":"view"},{"type":"function","name":"priceFeed","inputs":[],"outputs":[{"name":"","type":"address","internalType":"contract PriceFeed"}],"stateMutability":"view"},{"type":"function","name":"renounceOwnership","inputs":[],"outputs":[],"stateMutability":"nonpayable"},{"type":"function","name":"resolveBet","inputs":[{"name":"betId","type":"uint256","internalType":"uint256"}],"outputs":[],"stateMutability":"nonpayable"},{"type":"function","name":"resolveBets","inputs":[{"name":"betIds","type":"uint256[]","internalType":"uint256[]"}],"outputs":[],"stateMutability":"nonpayable"},{"type":"function","name":"setPaused","inputs":[{"name":"p","type":"bool","internalType":"bool"}],"outputs":[],"stateMutability":"nonpayable"},{"type":"function","name":"setPriceFeed","inputs":[{"name":"priceFeed_","type":"address","internalType":"address"}],"outputs":[],"stateMutability":"nonpayable"},{"type":"function","name":"setTokenActive","inputs":[{"name":"token","type":"address","internalType":"address"},{"name":"active","type":"bool","internalType":"bool"}],"outputs":[],"stateMutability":"nonpayable"},{"type":"function","name":"shareNAV","inputs":[{"name":"token","type":"address","internalType":"address"}],"outputs":[{"name":"","type":"uint256","internalType":"uint256"}],"stateMutability":"view"},{"type":"function","name":"tokenConfigs","inputs":[{"name":"","type":"address","internalType":"address"}],"outputs":[{"name":"active","type":"bool","internalType":"bool"},{"name":"annualVolBps","type":"uint256","internalType":"uint256"},{"name":"tickSizeUsdc","type":"uint256","internalType":"uint256"},{"name":"bucketSeconds","type":"uint256","internalType":"uint256"},{"name":"houseEdgeBps","type":"uint256","internalType":"uint256"},{"name":"minBetUsdc","type":"uint256","internalType":"uint256"},{"name":"maxBetUsdc","type":"uint256","internalType":"uint256"},{"name":"gridWidth","type":"uint8","internalType":"uint8"},{"name":"gridHalfHeight","type":"uint8","internalType":"uint8"},{"name":"openBoostBps","type":"uint256","internalType":"uint256"},{"name":"closeBoostBps","type":"uint256","internalType":"uint256"},{"name":"afterHoursBps","type":"uint256","internalType":"uint256"}],"stateMutability":"view"},{"type":"function","name":"totalPoolShares","inputs":[{"name":"","type":"address","internalType":"address"}],"outputs":[{"name":"","type":"uint256","internalType":"uint256"}],"stateMutability":"view"},{"type":"function","name":"transferOwnership","inputs":[{"name":"newOwner","type":"address","internalType":"address"}],"outputs":[],"stateMutability":"nonpayable"},{"type":"function","name":"usdc","inputs":[],"outputs":[{"name":"","type":"address","internalType":"contract IERC20"}],"stateMutability":"view"},{"type":"function","name":"usdcCollected","inputs":[{"name":"","type":"address","internalType":"address"}],"outputs":[{"name":"","type":"uint256","internalType":"uint256"}],"stateMutability":"view"},{"type":"function","name":"withdrawLiquidity","inputs":[{"name":"token","type":"address","internalType":"address"},{"name":"shares","type":"uint256","internalType":"uint256"}],"outputs":[],"stateMutability":"nonpayable"},{"type":"function","name":"withdrawUsdc","inputs":[{"name":"token","type":"address","internalType":"address"},{"name":"amount","type":"uint256","internalType":"uint256"}],"outputs":[],"stateMutability":"nonpayable"},{"type":"event","name":"BetPlaced","inputs":[{"name":"betId","type":"uint256","indexed":true,"internalType":"uint256"},{"name":"player","type":"address","indexed":true,"internalType":"address"},{"name":"token","type":"address","indexed":true,"internalType":"address"},{"name":"targetPrice","type":"uint256","indexed":false,"internalType":"uint256"},{"name":"expiryTs","type":"uint256","indexed":false,"internalType":"uint256"},{"name":"multiplier","type":"uint256","indexed":false,"internalType":"uint256"},{"name":"tokenAmount","type":"uint256","indexed":false,"internalType":"uint256"},{"name":"usdcPaid","type":"uint256","indexed":false,"internalType":"uint256"},{"name":"priceTicks","type":"int8","indexed":false,"internalType":"int8"},{"name":"timeBuckets","type":"uint256","indexed":false,"internalType":"uint256"},{"name":"isUsdcBet","type":"bool","indexed":false,"internalType":"bool"}],"anonymous":false},{"type":"event","name":"BetResolved","inputs":[{"name":"betId","type":"uint256","indexed":true,"internalType":"uint256"},{"name":"won","type":"bool","indexed":false,"internalType":"bool"},{"name":"payout","type":"uint256","indexed":false,"internalType":"uint256"}],"anonymous":false},{"type":"event","name":"LiquidityDeposited","inputs":[{"name":"lp","type":"address","indexed":true,"internalType":"address"},{"name":"token","type":"address","indexed":true,"internalType":"address"},{"name":"amount","type":"uint256","indexed":false,"internalType":"uint256"},{"name":"shares","type":"uint256","indexed":false,"internalType":"uint256"}],"anonymous":false},{"type":"event","name":"LiquidityWithdrawn","inputs":[{"name":"lp","type":"address","indexed":true,"internalType":"address"},{"name":"token","type":"address","indexed":true,"internalType":"address"},{"name":"amount","type":"uint256","indexed":false,"internalType":"uint256"},{"name":"shares","type":"uint256","indexed":false,"internalType":"uint256"}],"anonymous":false},{"type":"event","name":"OwnershipTransferred","inputs":[{"name":"previousOwner","type":"address","indexed":true,"internalType":"address"},{"name":"newOwner","type":"address","indexed":true,"internalType":"address"}],"anonymous":false},{"type":"event","name":"Paused","inputs":[{"name":"paused","type":"bool","indexed":false,"internalType":"bool"}],"anonymous":false},{"type":"event","name":"TokenConfigured","inputs":[{"name":"token","type":"address","indexed":true,"internalType":"address"}],"anonymous":false},{"type":"event","name":"UsdcWithdrawn","inputs":[{"name":"token","type":"address","indexed":true,"internalType":"address"},{"name":"amount","type":"uint256","indexed":false,"internalType":"uint256"}],"anonymous":false},{"type":"event","name":"WinningsClaimed","inputs":[{"name":"betId","type":"uint256","indexed":true,"internalType":"uint256"},{"name":"player","type":"address","indexed":true,"internalType":"address"},{"name":"tokenPayout","type":"uint256","indexed":false,"internalType":"uint256"}],"anonymous":false},{"type":"error","name":"OwnableInvalidOwner","inputs":[{"name":"owner","type":"address","internalType":"address"}]},{"type":"error","name":"OwnableUnauthorizedAccount","inputs":[{"name":"account","type":"address","internalType":"address"}]},{"type":"error","name":"ReentrancyGuardReentrantCall","inputs":[]},{"type":"error","name":"SafeERC20FailedOperation","inputs":[{"name":"token","type":"address","internalType":"address"}]}],"bytecode":{"object":"0x60a0346101a257601f613c1938819003918201601f19168301916001600160401b038311848410176101a65780849260409485528339810103126101a257610052602061004b836101ba565b92016101ba565b331561018f575f8054336001600160a01b0319821681178355604051949290916001600160a01b0316907f8be0079c531659141344cd1fd0a4f28419497f9722a3daafe3b4186f6b6457e09080a360017f9b779b17422d0df92223018b32b4d1fa46e071723d6817e2486d003becc55f008190556002556001600160a01b031691821561016157506001600160a01b031690811561012b57608052600180546001600160a01b0319169190911790555f600355604051613a4a90816101cf82396080518181816106630152818161098f0152611f8f0152f35b60405162461bcd60e51b815260206004820152600e60248201526d1e995c9bc81c1c9a58d95199595960921b6044820152606490fd5b62461bcd60e51b81526020600482015260096024820152687a65726f207573646360b81b6044820152606490fd5b631e4fbdf760e01b5f525f60045260245ffd5b5f80fd5b634e487b7160e01b5f52604160045260245ffd5b51906001600160a01b03821682036101a25756fe60806040526004361015610011575f80fd5b5f3560e01c806306d47de91461231257806316c38b3c146122a65780631b69dc5f146121eb57806322af00fa1461211e57806339b41b4a14611fbe5780633e413bee14611f7a578063477f072014611f235780634c36c36e14611f075780635c31a6a814611b235780635c975abb14611afe57806361f14f11146119ee578063677bd9ff146117cd578063715018a6146117765780637241a6d81461173e578063724e78da146116c3578063741bef1a1461169b5780638da5cb5b146116745780639051cce9146113f257806395b881de146113cf5780639aca2792146113b2578063a14b60ea14611387578063a8159ce514611278578063a8783dc414611240578063b36d0c2014610dc6578063b41f6a4f146107f1578063b6363248146107d4578063c109a6dc1461079c578063c501c35714610764578063c88a22e714610720578063e2f1b792146106c9578063e58a5e90146105db578063f2df33e81461057e578063f2fde38b146104f95763f81eabfd1461018f575f80fd5b346104f5576101203660031901126104f5576101a96124da565b60243560443590606435906084359260a4359260c4359560e4359060ff82168092036104f557610104359060ff82168092036104f5576101e7612edc565b6001600160a01b03169788156104c357851561049357841561046257831561042f576113888810156103fc5786156103cc5786811061039b57821561036957811561033657600a966040519861023c8a61269c565b60018a5260208a0197885260408a0196875260608a0195865260808a0190815260a08a0191825260c08a0192835260e08a019485526101008a019384526101208a01956161a887526101408b019761465089526101608c0199610fa08b528d5f5260046020526102be60405f20809e51151560ff801983541691151516179055565b5160018d01555160028c01555160038b01555160048a015551600589015551600688015560ff6007880192511661ff008354925160081b169161ffff191617179055516008850155516009840155519101557f3de6bfe55516f9cadcb09b7992370370609e179252c38173146ac026ecb40df05f80a2005b60405162461bcd60e51b815260206004820152600b60248201526a1e995c9bc81a195a59da1d60aa1b6044820152606490fd5b60405162461bcd60e51b815260206004820152600a6024820152690f4cae4de40eed2c8e8d60b31b6044820152606490fd5b60405162461bcd60e51b815260206004820152600960248201526836b0bc101e1036b4b760b91b6044820152606490fd5b60405162461bcd60e51b81526020600482015260086024820152673d32b9379036b4b760c11b6044820152606490fd5b60405162461bcd60e51b815260206004820152600b60248201526a65646765203e3d2035302560a81b6044820152606490fd5b60405162461bcd60e51b815260206004820152600b60248201526a1e995c9bc8189d58dad95d60aa1b6044820152606490fd5b60405162461bcd60e51b81526020600482015260096024820152687a65726f207469636b60b81b6044820152606490fd5b60405162461bcd60e51b81526020600482015260086024820152671e995c9bc81d9bdb60c21b6044820152606490fd5b60405162461bcd60e51b815260206004820152600a6024820152693d32b937903a37b5b2b760b11b6044820152606490fd5b5f80fd5b346104f55760203660031901126104f5576105126124da565b61051a612edc565b6001600160a01b0316801561056b575f80546001600160a01b03198116831782556001600160a01b0316907f8be0079c531659141344cd1fd0a4f28419497f9722a3daafe3b4186f6b6457e09080a3005b631e4fbdf760e01b5f525f60045260245ffd5b346104f55760403660031901126104f5576105976124da565b602435906001600160a01b03821682036104f55760018060a01b03165f52600760205260405f209060018060a01b03165f52602052602060405f2054604051908152f35b346104f55760403660031901126104f5576105f46124da565b60243590610600612edc565b6001600160a01b03165f818152600a602052604090205490919081116106905760207f0d1589f631deb2542273b007140b132a18d48a4303d103fe64d353db07e01b5791835f52600a825260405f2061065a8282546125d0565b905561068781337f0000000000000000000000000000000000000000000000000000000000000000612e5b565b604051908152a2005b60405162461bcd60e51b8152602060048201526011602482015270195e18d959591cc818dbdb1b1958dd1959607a1b6044820152606490fd5b346104f55760403660031901126104f5576106e26124da565b60243580151581036104f55761071e916106fa612edc565b60018060a01b03165f52600460205260405f209060ff801983541691151516179055565b005b346104f55760403660031901126104f5576001600160a01b036107416124da565b165f52600b60205260405f206024355f52602052602060405f2054604051908152f35b346104f55760203660031901126104f5576001600160a01b036107856124da565b165f526009602052602060405f2054604051908152f35b346104f55760203660031901126104f5576001600160a01b036107bd6124da565b165f526006602052602060405f2054604051908152f35b346104f5575f3660031901126104f5576020600354604051908152f35b346104f5576107ff366124f0565b92610808612d96565b61081a60ff60015460a01c16156125dd565b825f0b610828811515612ba8565b8415610d955761083782613140565b946108438382886132bc565b61084c8361323f565b94670de0b6b3a76400008202828104670de0b6b3a764000003610bff5786610873916125c6565b968715610d505786866108879387936133f9565b979194909560646108988785612585565b6040516370a0823160e01b81523060048201526001600160a01b039094169991900492906020826024818d5afa918215610d45575f92610d11575b50895f52600960205260405f2054821115610cdb57895f5260096020526108fe60405f2054836125d0565b610bb8810290808204610bb81490151715610bff5761271090048411610c9657895f52600b60205260405f208b5f5260205261093e8460405f205461265e565b610bb88302838104610bb81484151715610bff57612710900410610c5857670de0b6b3a764000061097d82826109766014958a612585565b0494612585565b040410610c135760ff916109b38530337f0000000000000000000000000000000000000000000000000000000000000000612f02565b885f52600a60205260405f206109ca86825461265e565b9055885f52600960205260405f206109e382825461265e565b9055885f52600b60205260405f208a5f52602052610a0660405f2091825461265e565b90551693600254975f198914610bff5760018901600255604051610a298161266b565b33815289602082018a8152604083019088825260608401938a8552608081018c815260a0820187815260c083018a815260e08401918c83526101008501938b855261012086019960018b526101408701975f89526101608801995f8b5261018089019b5f8d525f52600560205260405f2098600160a01b6001900390600160a01b60019003905116166001600160601b0360a01b8a54161789556001890191600160a01b6001900390600160a01b60019003905116166001600160601b0360a01b8354161782555181549060a01b60ff60a01b169060ff60a01b191617905551600287015551600386015551600485015551600584015551600683015551600782015560080193511515610b4990859060ff801983541691151516179055565b51835461ff00191690151560081b61ff001617835551825462ff0000191690151560101b62ff00001617825551815463ff000000191690151560181b63ff00000016179055604051968752602087015260408601526060850152608084015260a083015260c082015260e08101600190528233916101007f8a747c4bec68a4305a0e766151107378de4dc6ecbd978f08593d8a6c69bddd8291a460015f5160206139f55f395f51905f5255604051908152602090f35b634e487b7160e01b5f52601160045260245ffd5b60405162461bcd60e51b815260206004820152601d60248201527f6578706f73757265206c696d69743a2073696e676c65206265742035250000006044820152606490fd5b60405162461bcd60e51b8152602060048201526016602482015275195e1c1bdcdd5c99481b1a5b5a5d0e88189d58dad95d60521b6044820152606490fd5b60405162461bcd60e51b815260206004820152601a60248201527f6578706f73757265206c696d69743a2073696e676c65206265740000000000006044820152606490fd5b60405162461bcd60e51b815260206004820152600e60248201526d1c1bdbdb081d1bdbc81cdb585b1b60921b6044820152606490fd5b9091506020813d602011610d3d575b81610d2d602093836126f1565b810103126104f55751908b6108d3565b3d9150610d20565b6040513d5f823e3d90fd5b60405162461bcd60e51b815260206004820152601a60248201527f746f6b656e20657175697620726f756e647320746f207a65726f0000000000006044820152606490fd5b60405162461bcd60e51b81526020600482015260096024820152687a65726f207573646360b81b6044820152606490fd5b346104f55760203660031901126104f5576001600160a01b03610de76124da565b16805f52600460205260405f209060405190610e028261269c565b60ff83541615159283835260018101549060208401918252600281015493604081019485526003820154956060820196875260048301549560808301968752600584015460a0840152600684015460c0840152600784015460e084019360ff8216855260ff61010082019260081c168252610ea36008870154946101208301958652610160600a60098a01549961014086019a8b520154930192835261261f565b6001546040516353084eff60e01b8152600481018a9052996001600160a01b03909116979060208b6024818c5afa9a8b15610d45575f9b61120c575b50610eeb8b1515612caf565b8351966101fe60ff89169860011b169780890460021490151715610bff575160ff1695610f1788612cf1565b9c886040519e8f90610f2990826126f1565b528d601f19610f378b612cf1565b01905f5b8281106111fa5750505060a0610f508a612d09565b9c6024604051809e81936374544e3b60e11b835260048301525afa948515610d45575f9a5f935f955f975f996111a9575b610fa29c9d9e9f5051948b5190519151925193519451956040519d8e6126b9565b8d5260208d015260408c015260608b015260808a015260a089015260c088015260405199610fcf8b6126d5565b15158a52151560208a01521515604089015215156060880152151560808701525f5b8581106110c75789898960405191606083016060845284518091526080840190602060808260051b8701019601915f905b828210611071575050505082840360208401526020808351958681520192015f945b80861061105957505082935060408301520390f35b90926020806001928651815201940195019490611044565b90919296607f19878203018252875190602080835192838152019201905f905b8082106110af57505050602080600192990192019201909291611022565b90919260208060019286518152019401920190611091565b815160ff168082101561118e57506110e38160ff8451166125d0565b60015b15611175576110ff6110f9855183612585565b8b61265e565b611109838b612d82565b5261111386612d09565b61111d838d612d82565b52611128828c612d82565b505f5b86811061113c575050600101610ff1565b6001810190818111610bff578c61116e826111688f6111618f8d8b9360019a8c61346c565b5094612d82565b51612d82565b520161112b565b611189611183855183612585565b8b6125d0565b6110ff565b61119890826125d0565b60018101809111610bff575f6110e6565b9850945094509b610fa2999a9b506111da91955060a03d60a0116111f3575b6111d281836126f1565b810190612d3b565b97939e929e96919590969e959697988f9e9d9c50610f81565b503d6111c8565b60606020828194010152018f90610f3b565b909a506020813d602011611238575b81611228602093836126f1565b810103126104f55751998c610edf565b3d915061121b565b346104f55760203660031901126104f5576001600160a01b036112616124da565b165f52600a602052602060405f2054604051908152f35b346104f55761128636612531565b5f5b81811061129157005b61129c818385612c2a565b355f52600560205260405f209060018060a01b038254161561137e5760ff600883015460081c1661137e576004820154918242106113745760018054910154604051630794df9560e11b81526001600160a01b039182166004820152602481019490945260809184916044918391165afa8015610d45576001925f91611342575b501561133d57611337611331828587612c2a565b356128bb565b01611288565b611337565b611363915060803d811161136d575b61135b81836126f1565b810190612892565b925050508561131d565b503d611351565b5060019150611337565b60019150611337565b346104f55760203660031901126104f55760206113aa6113a56124da565b612c4e565b604051908152f35b346104f5575f3660031901126104f5576020600254604051908152f35b346104f55760203660031901126104f55760206113aa6113ed6124da565b612dce565b346104f55761140036612531565b90611409612d96565b5f915f915f915b8083106115285750505081156114f0576001600160a01b03169081156114bb576040516370a0823160e01b815230600482015291602083602481845afa928315610d45575f93611485575b5061146b82611472941015612bea565b3390612e5b565b60015f5160206139f55f395f51905f5255005b92506020833d6020116114b3575b816114a0602093836126f1565b810103126104f55791519161146b61145b565b3d9150611493565b60405162461bcd60e51b815260206004820152600d60248201526c6e6f2076616c6964206265747360981b6044820152606490fd5b60405162461bcd60e51b815260206004820152601060248201526f6e6f7468696e6720746f20636c61696d60801b6044820152606490fd5b909193611536858385612c2a565b355f52600560205260405f203360018060a01b038254160361166a576008810180549560ff8760081c1615801561165d575b801561164f575b611642576001600160a01b038116806115ce5750509160646115bd6115c4936001956301000000878060a01b0388840154169a5b63ff00000019161790556007600582015491015490612585565b049061265e565b945b019190611410565b600184015491979492916001600160a01b0316036115fd576115bd6115c49360649263010000006001976115a3565b60405162461bcd60e51b815260206004820152601d60248201527f6d6978656420746f6b656e733a20636c61696d2070657220746f6b656e0000006044820152606490fd5b95505050936001906115c6565b5060ff8760101c161561156f565b5060ff8760181c16611568565b50936001906115c6565b346104f5575f3660031901126104f5575f546040516001600160a01b039091168152602090f35b346104f5575f3660031901126104f5576001546040516001600160a01b039091168152602090f35b346104f55760203660031901126104f5576116dc6124da565b6116e4612edc565b6001600160a01b0316801561170a576001600160601b0360a01b60015416176001555f80f35b60405162461bcd60e51b815260206004820152600c60248201526b7a65726f206164647265737360a01b6044820152606490fd5b346104f55760203660031901126104f5576001600160a01b0361175f6124da565b165f526008602052602060405f2054604051908152f35b346104f5575f3660031901126104f55761178e612edc565b5f80546001600160a01b0319811682556001600160a01b03167f8be0079c531659141344cd1fd0a4f28419497f9722a3daafe3b4186f6b6457e08280a3005b346104f55760203660031901126104f5576004356117e9612d96565b5f81815260056020526040902080549091906001600160a01b031633036119ba5760088201805460ff8160081c16156119865760ff8160101c16156119565760ff8160181c1661191f5763010000009063ff000000191617905560646118586005840154600785015490612585565b6001909301546040516370a0823160e01b815230600482015291909304926001600160a01b031690602081602481855afa8015610d455784915f916118e8575b509161146b826118a9941015612bea565b6040519182527f5380cf6fe903b40c6d5a9e0dfbca2f3a423f0a21520b4d5947ed5169bdba946d60203393a360015f5160206139f55f395f51905f5255005b9150506020813d602011611917575b81611904602093836126f1565b810103126104f55751839061146b611898565b3d91506118f7565b60405162461bcd60e51b815260206004820152600f60248201526e185b1c9958591e4818db185a5b5959608a1b6044820152606490fd5b60405162461bcd60e51b815260206004820152600860248201526718995d081b1bdcdd60c21b6044820152606490fd5b60405162461bcd60e51b815260206004820152600c60248201526b1b9bdd081c995cdbdb1d995960a21b6044820152606490fd5b60405162461bcd60e51b815260206004820152600c60248201526b1b9bdd081e5bdd5c8818995d60a21b6044820152606490fd5b346104f55760203660031901126104f5576004355f52600560205260c060405f2060405190611a1c8261266b565b60018060a01b038154168252600181015460018060a01b038116602084015260a01c5f0b60408301526002810154606083015260038101546080830152600481015460a08301526005810154808484015260068201549060e084019182526101806064611ad56008600787015496876101008a015201549561012088019460ff88161515865260ff8860081c161515988961014082015260ff808a60101c161515998a61016084015260181c1615159586910152612585565b0491511515925193604051958652602086015260408501526060840152608083015260a0820152f35b346104f5575f3660031901126104f557602060ff60015460a01c166040519015158152f35b346104f557611b8f611b34366124f0565b93929091611b40612d96565b611b5260ff60015460a01c16156125dd565b611b9b828685845f0b94611b67861515612ba8565b611b7084613140565b611b9685670de0b6b3a7640000611b868261323f565b9c8d8098612585565b04836132bc565b6133f9565b96919390946064611bac8685612585565b6040516370a0823160e01b81523060048201526001600160a01b039094169891900492906020826024818c5afa918215610d45575f92611ed3575b50885f52600960205260405f2054821115610cdb57885f526009602052611c1260405f2054836125d0565b610bb8810290808204610bb81490151715610bff5761271090048411610c9657885f52600b60205260405f208a5f52602052611c528460405f205461265e565b610bb88302838104610bb81484151715610bff57612710900410610c5857670de0b6b3a7640000611c8a82826109766014958a612585565b040410610c135760ff91611ca08430338b612f02565b875f52600960205260405f20611cb782825461265e565b9055875f52600b60205260405f20895f52602052611cda60405f2091825461265e565b90551692600254965f198814610bff5760018801600255604051611cfd8161266b565b338152886020820189815260408301908782526060840193898552608081018b815260a0820187815260c083018a815260e08401915f83526101008501938b85526101208601995f8b526101408701975f89526101608801995f8b5261018089019b5f8d525f52600560205260405f2098600160a01b6001900390600160a01b60019003905116166001600160601b0360a01b8a54161789556001890191600160a01b6001900390600160a01b60019003905116166001600160601b0360a01b8354161782555181549060a01b60ff60a01b169060ff60a01b191617905551600287015551600386015551600485015551600584015551600683015551600782015560080193511515611e1c90859060ff801983541691151516179055565b51835461ff00191690151560081b61ff001617835551825462ff0000191690151560101b62ff00001617825551815463ff000000191690151560181b63ff00000016179055604051958652602086015260408501526060840152608083015f905260a083015260c082015260e081015f90528233916101007f8a747c4bec68a4305a0e766151107378de4dc6ecbd978f08593d8a6c69bddd8291a460015f5160206139f55f395f51905f5255604051908152602090f35b9091506020813d602011611eff575b81611eef602093836126f1565b810103126104f55751908a611be7565b3d9150611ee2565b346104f55760203660031901126104f55761071e6004356128bb565b346104f55760603660031901126104f557611f3c6124da565b60243590815f0b82036104f55760443560ff811681036104f557608092611f6292612713565b91604051938452602084015260408301526060820152f35b346104f5575f3660031901126104f5576040517f00000000000000000000000000000000000000000000000000000000000000006001600160a01b03168152602090f35b346104f55760403660031901126104f557611fd76124da565b602435611fe2612d96565b611ff460ff60015460a01c16156125dd565b60018060a01b03821691825f52600460205261201660ff60405f20541661261f565b81156120eb5761202c906113ed83303387612f02565b825f52600860205260405f205490811580156120e3575b156120cc575050805b335f52600760205260405f20835f5260205260405f2061206d82825461265e565b9055825f52600860205260405f2061208682825461265e565b905560405191825260208201527f44504979f82d498dad8a0687fc02e140be70b1b4ab3b9e23c6ffc1d04410194a60403392a360015f5160206139f55f395f51905f5255005b6120d96120de9284612585565b6125c6565b61204c565b508015612043565b60405162461bcd60e51b815260206004820152600b60248201526a1e995c9bc8185b5bdd5b9d60aa1b6044820152606490fd5b346104f55760203660031901126104f5576004355f5260056020526101a060405f2060ff60018060a01b03825416916001810154906002810154600382015460048301546005840154916006850154936008600787015496015496604051998a5260018060a01b03811660208b015260a01c5f0b60408a01526060890152608088015260a087015260c086015260e08501526101008401528181161515610120840152818160081c161515610140840152818160101c16151561016084015260181c161515610180820152f35b346104f55760203660031901126104f5576001600160a01b0361220c6124da565b165f52600460205261018060405f2060ff81541690600181015490600281015460ff600383015460048401546005850154600686015491600787015493600888015496600a60098a0154990154996040519b15158c5260208c015260408b015260608a0152608089015260a088015260c087015281811660e087015260081c16610100850152610120840152610140830152610160820152f35b346104f55760203660031901126104f5576004358015158091036104f55760207f0e2fb031ee032dc02d8011dc50b816eb450cf856abd8261680dac74f72165bd2916122f0612edc565b6001805460ff60a01b191660a083901b60ff60a01b16179055604051908152a1005b346104f55760403660031901126104f55761232b6124da565b602435612336612d96565b335f52600760205260405f2060018060a01b0383165f526020528060405f20541061249f576001600160a01b0382165f81815260086020526040902054909290156124705761239061238a6123a392612dce565b83612585565b835f52600860205260405f2054906125c6565b90811561243557335f52600760205260405f20835f5260205260405f206123cb8282546125d0565b9055825f52600860205260405f206123e48282546125d0565b90556123f1823385612e5b565b60405191825260208201527fba0b893b2f314a229997e335266881b5ac6b290bd350d2c23cc57160b77882b860403392a360015f5160206139f55f395f51905f5255005b60405162461bcd60e51b81526020600482015260136024820152726e6f7468696e6720746f20776974686472617760681b6044820152606490fd5b60405162461bcd60e51b81526020600482015260076024820152661b9bc81c1bdbdb60ca1b6044820152606490fd5b60405162461bcd60e51b8152602060048201526013602482015272696e73756666696369656e742073686172657360681b6044820152606490fd5b600435906001600160a01b03821682036104f557565b60809060031901126104f5576004356001600160a01b03811681036104f55790602435805f0b81036104f5579060443560ff811681036104f5579060643590565b9060206003198301126104f55760043567ffffffffffffffff81116104f557826023820112156104f55780600401359267ffffffffffffffff84116104f55760248460051b830101116104f5576024019190565b81810292918115918404141715610bff57565b80156125b2576ec097ce7bc90715b34b9f10000000000490565b634e487b7160e01b5f52601260045260245ffd5b81156125b2570490565b91908203918211610bff57565b156125e457565b60405162461bcd60e51b81526020600482015260136024820152721e14dd1bd8dadcd1dc9a590e881c185d5cd959606a1b6044820152606490fd5b1561262657565b60405162461bcd60e51b815260206004820152601060248201526f746f6b656e206e6f742061637469766560801b6044820152606490fd5b91908201809211610bff57565b6101a0810190811067ffffffffffffffff82111761268857604052565b634e487b7160e01b5f52604160045260245ffd5b610180810190811067ffffffffffffffff82111761268857604052565b60e0810190811067ffffffffffffffff82111761268857604052565b60a0810190811067ffffffffffffffff82111761268857604052565b90601f8019910116810190811067ffffffffffffffff82111761268857604052565b909160018060a01b03821692835f52600460205260405f20604051906127388261269c565b600a60ff82541615918215845260018101546020850152600281015460408501526003810154606085015260048101546080850152600581015460a0850152600681015460c085015260ff600782015481811660e087015260081c16610100850152600881015461012085015260098101546101408501520154610160830152612842576001546040516353084eff60e01b81526004810196909652602090869060249082906001600160a01b03165afa948515610d45575f95612851575b508415612842579284670de0b6b3a764000096936128189361283e96612f6b565b50959195939094606461283888836a52b7d2dcc80cd2e400000004612585565b04612585565b0490565b50505050505f905f905f905f90565b9094506020813d60201161287d575b8161286d602093836126f1565b810103126104f55751935f6127f7565b3d9150612860565b519081151582036104f557565b91908260809103126104f5578151916020810151916128b8606060408401519301612885565b90565b5f81815260056020526040902080546001600160a01b031615612b73576008810180549060ff8260081c16612b3b5760048301805490814210612b0257600180549086018054604051630794df9560e11b81526001600160a01b0380831660048301526024820196909652909791949192909160809183916044918391165afa918215610d45575f925f925f91612ad9575b5015612a94576129c3604097610100976064956129d3955f7fe1b4cc7b572a56466df9203312ded49052ff26393efd614a3f8658c98ec0fc389d60a01c810b135f14612a835750600385015411159889925b62ff00001990911662ffff00199091161791151560101b62ff000016919091179055565b6007600582015491015490612585565b049160018060a01b03815416805f52600960205283865f20541015612a66575b50546001600160a01b03165f818152600b6020908152868220935480835293905285902054831115612a3f575b50508115612a38575b825191151582526020820152a2565b505f612a29565b5f52600b602052835f20905f52602052825f20612a5d8282546125d0565b90555f80612a20565b5f526009602052845f20612a7b8482546125d0565b90555f6129f3565b90506003850154101598899261299f565b60405162461bcd60e51b815260206004820152601e60248201527f7265736f6c7574696f6e2064617461206e6f74207075736865642079657400006044820152606490fd5b91935050612af6915060803d60801161136d5761135b81836126f1565b9250929092915f61294d565b60405162461bcd60e51b8152602060048201526011602482015270189d58dad95d081b9bdd0818db1bdcd959607a1b6044820152606490fd5b60405162461bcd60e51b815260206004820152601060248201526f185b1c9958591e481c995cdbdb1d995960821b6044820152606490fd5b60405162461bcd60e51b815260206004820152600d60248201526c18995d081b9bdd08199bdd5b99609a1b6044820152606490fd5b15612baf57565b60405162461bcd60e51b81526020600482015260136024820152727069636b2061206e6f6e2d7a65726f20726f7760681b6044820152606490fd5b15612bf157565b60405162461bcd60e51b81526020600482015260116024820152701c1bdbdb081a5b9cdd59999a58da595b9d607a1b6044820152606490fd5b9190811015612c3a5760051b0190565b634e487b7160e01b5f52603260045260245ffd5b6001600160a01b0381165f90815260086020526040902054908115612ca157612c7690612dce565b90670de0b6b3a7640000820291808304670de0b6b3a76400001490151715610bff576128b8916125c6565b5050670de0b6b3a764000090565b15612cb657565b60405162461bcd60e51b81526020600482015260136024820152727072696365206e6f7420617661696c61626c6560681b6044820152606490fd5b67ffffffffffffffff81116126885760051b60200190565b90612d1382612cf1565b612d2060405191826126f1565b8281528092612d31601f1991612cf1565b0190602036910137565b908160a09103126104f557612d4f81612885565b91612d5c60208301612885565b91612d6960408201612885565b916128b86080612d7b60608501612885565b9301612885565b8051821015612c3a5760209160051b010190565b60025f5160206139f55f395f51905f525414612dbf5760025f5160206139f55f395f51905f5255565b633ee5aeb560e01b5f5260045ffd5b6040516370a0823160e01b8152306004820152906001600160a01b0316602082602481845afa918215610d45575f92612e27575b505f52600960205260405f20548082115f14612e21576128b8916125d0565b50505f90565b9091506020813d602011612e53575b81612e43602093836126f1565b810103126104f55751905f612e02565b3d9150612e36565b916040519163a9059cbb60e01b5f5260018060a01b031660045260245260205f60448180865af19060015f5114821615612ebb575b60405215612e9b5750565b635274afe760e01b5f9081526001600160a01b0391909116600452602490fd5b906001811516612ed357823b15153d15161690612e90565b503d5f823e3d90fd5b5f546001600160a01b03163303612eef57565b63118cdaa760e01b5f523360045260245ffd5b6040516323b872dd60e01b5f9081526001600160a01b039384166004529290931660245260449390935260209060648180865af19060015f5114821615612f53575b6040525f60605215612e9b5750565b906001811516612ed357823b15153d15161690612f44565b5f91820b918213949291851561312d57945b156130ce57612f99612f93604083015187612585565b8561265e565b935b6060820192612fcf60ff612fbb612fb38751426125c6565b875190612585565b921691612fc9865184612585565b9061265e565b6001546040516374544e3b60e11b81526001600160a01b0397881660048201529198919660a09188916024918391165afa8015610d455761309f965f965f5f915f935f956130a4575b50602089015198604081015191516080820151610120830151916101606101408501519401519460206040519e8f90613050826126b9565b8152015260408d015260608c015260808b015260a08a015260c08901526040519861307a8a6126d5565b151589521515602089015215156040880152151560608701521515608086015261346c565b929093565b9350985050506130c3915060a03d60a0116111f3576111d281836126f1565b93989092905f613018565b6130dc604082015186612585565b848110156130f4576130ee90856125d0565b93612f9b565b60405162461bcd60e51b81526020600482015260116024820152707461726765742062656c6f77207a65726f60781b6044820152606490fd5b600160ff1b8114610bff575f0394612f7d565b5f6101606040516131508161269c565b8281528260208201528260408201528260608201528260808201528260a08201528260c08201528260e0820152826101008201528261012082015282610140820152015260018060a01b03165f52600460205260405f209061323d6040516131b78161269c565b600a60ff85541615159485835260018101546020840152600281015460408401526003810154606084015260048101546080840152600581015460a0840152600681015460c084015260ff600782015481811660e086015260081c166101008401526008810154610120840152600981015461014084015201546101608201529261261f565b565b6001546040516353084eff60e01b81526001600160a01b039283166004820152929160209184916024918391165afa918215610d45575f92613288575b5061323d821515612caf565b9091506020813d6020116132b4575b816132a4602093836126f1565b810103126104f55751905f61327c565b3d9150613297565b6001546040516374544e3b60e11b81526001600160a01b039485166004820152919360a09183916024918391165afa8015610d45575f5f925f926133d1575b5060c060a08601519501928351925f14613390575050505062989680915b811061335b571161332657565b60405162461bcd60e51b815260206004820152600d60248201526c18589bdd99481b585e0818995d609a1b6044820152606490fd5b60405162461bcd60e51b815260206004820152600d60248201526c18995b1bddc81b5a5b8818995d609a1b6044820152606490fd5b156133a15750505160011c91613319565b939190936133b0575b50613319565b9250600381029080820460031490151715610bff57915160011c915f6133aa565b9150506133ed915060a03d60a0116111f3576111d281836126f1565b9093509190505f6132fb565b9392919060ff82166001811015908161345a575b50156134245761341c94612f6b565b909150909192565b60405162461bcd60e51b815260206004820152600e60248201526d34b73b30b634b21031b7b63ab6b760911b6044820152606490fd5b905060ff60e08701511610155f61340d565b929383156136b35781156136755782156136395761349f6134ab918651608088015160a08901519060c08a0151926136ef565b91604086015190612585565b670de0b6b3a7640000820291808304670de0b6b3a76400001490151715610bff57670de0b6b3a7640000810290808204670de0b6b3a76400001490151715610bff576134f6906138e8565b6a1a1601fc4ea7109e000000916a0d0b00fe2753884f0000005b8381106136115750916120d961352d926127106135399504612585565b92602085015190612585565b90670de0b6b3a7640000820291808304670de0b6b3a76400001490151715610bff57613564916125c6565b811561360557670de0b6b3a7640000810290808204670de0b6b3a76400001490151715610bff5761359d91613598916125c6565b613768565b9081156135fb5760606135af83612598565b910151612710036127108111610bff576135d461271091662386f26fc1000093612585565b040491606e83106135f2575b61271083116135eb57565b6127109250565b606e92506135e0565b5050612710905f90565b50505061271090600190565b92508280156125b25780613631916a1a1601fc4ea7109e0000000461265e565b60011c613510565b60405162461bcd60e51b8152602060048201526014602482015273477269644d6174683a207a65726f20707269636560601b6044820152606490fd5b60405162461bcd60e51b8152602060048201526016602482015275477269644d6174683a207a65726f206275636b65747360501b6044820152606490fd5b60405162461bcd60e51b8152602060048201526014602482015273477269644d6174683a207a65726f207469636b7360601b6044820152606490fd5b93919260808301516137475782511561373657506020820151613726575060400151613719575090565b61283e9061271092612585565b905061283e915061271092612585565b91505061283e915061271092612585565b505050506107d08102908082046107d01490151715610bff57612710900490565b6753444835ec58000081116138e25780631386a4bc02631386a4bc81048203610bff57670de0b6b3a76400009004633b9aca000180633b9aca0011610bff5780156125b2576b033b2e3c9fd0803ce80000000480633f43c2f502633f43c2f581048203610bff57670de0b6b3a7640000900463569d571b8101809111610bff576137fb82670de0b6b3a764000092612585565b046354b90d6d8101809111610bff5761381d82670de0b6b3a764000092612585565b046310f513608101809111610bff5761383f82670de0b6b3a764000092612585565b0490630f3064188201809211610bff57613879670de0b6b3a7640000613871671bc16d674ec800009361387f95612585565b049380612585565b0461392e565b633b9aca00810290808204633b9aca001490151715610bff57633b9aca00916395681cb26138ad9204612585565b04600181901b91906001600160ff1b03811603610bff57670de0b6b3a764000082116138d557565b670de0b6b3a76400009150565b50600190565b9081156139295760018201808311610bff5760011c825b83821061390a575050565b9092506139208361391b81846125c6565b61265e565b60011c906138ff565b5f9150565b6801158e460913d000008110156139ef5780156139e257670de0b6b3a76400006139588280612585565b0490670de0b6b3a764000061396d8284612585565b0490670de0b6b3a76400006139828284612585565b0492670de0b6b3a76400006139978386612585565b0491670de0b6b3a7640000019283670de0b6b3a764000011610bff576128b89460186139d56139d59360066139d56139dd9960789860011c9061265e565b91049061265e565b612598565b50670de0b6b3a764000090565b505f9056fe9b779b17422d0df92223018b32b4d1fa46e071723d6817e2486d003becc55f00a2646970667358221220f022bce4314d996c2fa6441802d363403f22ea19aec60fe2fb930e8ad9884c0b64736f6c634300081b0033","linkReferences":{}},"methodIdentifiers":{"bets(uint256)":"22af00fa","bucketMaxPayout(address,uint256)":"c88a22e7","claimMultiple(uint256[])":"9051cce9","claimWinnings(uint256)":"677bd9ff","configureToken(address,uint256,uint256,uint256,uint256,uint256,uint256,uint8,uint8)":"f81eabfd","depositLiquidity(address,uint256)":"39b41b4a","freeBalance(address)":"95b881de","getBetStatus(uint256)":"61f14f11","getGridMatrix(address)":"b36d0c20","lockedForPayouts(address)":"c501c357","lpShares(address)":"c109a6dc","lpTokenShares(address,address)":"f2df33e8","minPoolTokens()":"b6363248","nextBetId()":"9aca2792","owner()":"8da5cb5b","paused()":"5c975abb","placeBet(address,int8,uint8,uint256)":"5c31a6a8","placeBetWithUSDC(address,int8,uint8,uint256)":"b41f6a4f","previewMultiplier(address,int8,uint8)":"477f0720","priceFeed()":"741bef1a","renounceOwnership()":"715018a6","resolveBet(uint256)":"4c36c36e","resolveBets(uint256[])":"a8159ce5","setPaused(bool)":"16c38b3c","setPriceFeed(address)":"724e78da","setTokenActive(address,bool)":"e2f1b792","shareNAV(address)":"a14b60ea","tokenConfigs(address)":"1b69dc5f","totalPoolShares(address)":"7241a6d8","transferOwnership(address)":"f2fde38b","usdc()":"3e413bee","usdcCollected(address)":"a8783dc4","withdrawLiquidity(address,uint256)":"06d47de9","withdrawUsdc(address,uint256)":"e58a5e90"},"id":12}