{"abi":[{"type":"constructor","inputs":[{"name":"usdc_","type":"address","internalType":"address"},{"name":"priceFeed_","type":"address","internalType":"address"},{"name":"gdUSD_","type":"address","internalType":"address"}],"stateMutability":"nonpayable"},{"type":"function","name":"bets","inputs":[{"name":"","type":"uint256","internalType":"uint256"}],"outputs":[{"name":"player","type":"address","internalType":"address"},{"name":"token","type":"address","internalType":"address"},{"name":"priceTicks","type":"int8","internalType":"int8"},{"name":"timeBuckets","type":"uint256","internalType":"uint256"},{"name":"targetPrice","type":"uint256","internalType":"uint256"},{"name":"expiryTs","type":"uint256","internalType":"uint256"},{"name":"gridTokenAmount","type":"uint256","internalType":"uint256"},{"name":"multiplier","type":"uint256","internalType":"uint256"},{"name":"resolved","type":"bool","internalType":"bool"},{"name":"won","type":"bool","internalType":"bool"},{"name":"claimed","type":"bool","internalType":"bool"}],"stateMutability":"view"},{"type":"function","name":"bucketMaxPayout","inputs":[{"name":"","type":"address","internalType":"address"},{"name":"","type":"uint256","internalType":"uint256"}],"outputs":[{"name":"","type":"uint256","internalType":"uint256"}],"stateMutability":"view"},{"type":"function","name":"claimMultiple","inputs":[{"name":"betIds","type":"uint256[]","internalType":"uint256[]"}],"outputs":[],"stateMutability":"nonpayable"},{"type":"function","name":"claimWinnings","inputs":[{"name":"betId","type":"uint256","internalType":"uint256"}],"outputs":[],"stateMutability":"nonpayable"},{"type":"function","name":"configureToken","inputs":[{"name":"token","type":"address","internalType":"address"},{"name":"annualVolBps","type":"uint256","internalType":"uint256"},{"name":"tickSizeUsdc","type":"uint256","internalType":"uint256"},{"name":"bucketSeconds","type":"uint256","internalType":"uint256"},{"name":"houseEdgeBps","type":"uint256","internalType":"uint256"},{"name":"minBetUsdc","type":"uint256","internalType":"uint256"},{"name":"maxBetUsdc","type":"uint256","internalType":"uint256"},{"name":"gridWidth","type":"uint8","internalType":"uint8"},{"name":"gridHalfHeight","type":"uint8","internalType":"uint8"}],"outputs":[],"stateMutability":"nonpayable"},{"type":"function","name":"depositLiquidity","inputs":[{"name":"token","type":"address","internalType":"address"},{"name":"usdcAmount","type":"uint256","internalType":"uint256"}],"outputs":[],"stateMutability":"nonpayable"},{"type":"function","name":"depositUsdc","inputs":[{"name":"token","type":"address","internalType":"address"},{"name":"usdcAmount","type":"uint256","internalType":"uint256"}],"outputs":[{"name":"gridTokensMinted","type":"uint256","internalType":"uint256"}],"stateMutability":"nonpayable"},{"type":"function","name":"freePoolGridTokens","inputs":[{"name":"token","type":"address","internalType":"address"}],"outputs":[{"name":"","type":"uint256","internalType":"uint256"}],"stateMutability":"view"},{"type":"function","name":"gdUSD","inputs":[],"outputs":[{"name":"","type":"address","internalType":"contract GridToken"}],"stateMutability":"view"},{"type":"function","name":"gdUSDToken","inputs":[],"outputs":[{"name":"","type":"address","internalType":"address"}],"stateMutability":"view"},{"type":"function","name":"getBetStatus","inputs":[{"name":"betId","type":"uint256","internalType":"uint256"}],"outputs":[{"name":"resolved","type":"bool","internalType":"bool"},{"name":"won","type":"bool","internalType":"bool"},{"name":"claimed","type":"bool","internalType":"bool"},{"name":"payout","type":"uint256","internalType":"uint256"}],"stateMutability":"view"},{"type":"function","name":"getGridMatrix","inputs":[{"name":"token","type":"address","internalType":"address"}],"outputs":[{"name":"multipliers","type":"uint256[][]","internalType":"uint256[][]"},{"name":"prices","type":"uint256[]","internalType":"uint256[]"},{"name":"currentPrice","type":"uint256","internalType":"uint256"}],"stateMutability":"view"},{"type":"function","name":"getTokenConfig","inputs":[{"name":"token","type":"address","internalType":"address"}],"outputs":[{"name":"","type":"tuple","internalType":"struct xStocksGrid.TokenConfig","components":[{"name":"active","type":"bool","internalType":"bool"},{"name":"annualVolBps","type":"uint256","internalType":"uint256"},{"name":"tickSizeUsdc","type":"uint256","internalType":"uint256"},{"name":"bucketSeconds","type":"uint256","internalType":"uint256"},{"name":"houseEdgeBps","type":"uint256","internalType":"uint256"},{"name":"minBetUsdc","type":"uint256","internalType":"uint256"},{"name":"maxBetUsdc","type":"uint256","internalType":"uint256"},{"name":"gridWidth","type":"uint8","internalType":"uint8"},{"name":"gridHalfHeight","type":"uint8","internalType":"uint8"},{"name":"openBoostBps","type":"uint256","internalType":"uint256"},{"name":"closeBoostBps","type":"uint256","internalType":"uint256"},{"name":"afterHoursBps","type":"uint256","internalType":"uint256"}]}],"stateMutability":"view"},{"type":"function","name":"lockedGridTokens","inputs":[{"name":"","type":"address","internalType":"address"}],"outputs":[{"name":"","type":"uint256","internalType":"uint256"}],"stateMutability":"view"},{"type":"function","name":"lpShares","inputs":[{"name":"","type":"address","internalType":"address"},{"name":"","type":"address","internalType":"address"}],"outputs":[{"name":"","type":"uint256","internalType":"uint256"}],"stateMutability":"view"},{"type":"function","name":"nextBetId","inputs":[],"outputs":[{"name":"","type":"uint256","internalType":"uint256"}],"stateMutability":"view"},{"type":"function","name":"owner","inputs":[],"outputs":[{"name":"","type":"address","internalType":"address"}],"stateMutability":"view"},{"type":"function","name":"paused","inputs":[],"outputs":[{"name":"","type":"bool","internalType":"bool"}],"stateMutability":"view"},{"type":"function","name":"placeBet","inputs":[{"name":"token","type":"address","internalType":"address"},{"name":"priceTicks","type":"int8","internalType":"int8"},{"name":"timeBuckets","type":"uint8","internalType":"uint8"},{"name":"gridTokenAmount","type":"uint256","internalType":"uint256"}],"outputs":[{"name":"betId","type":"uint256","internalType":"uint256"}],"stateMutability":"nonpayable"},{"type":"function","name":"poolGdUsd","inputs":[{"name":"","type":"address","internalType":"address"}],"outputs":[{"name":"","type":"uint256","internalType":"uint256"}],"stateMutability":"view"},{"type":"function","name":"previewMultiplier","inputs":[{"name":"token","type":"address","internalType":"address"},{"name":"priceTicks","type":"int8","internalType":"int8"},{"name":"timeBuckets","type":"uint8","internalType":"uint8"}],"outputs":[{"name":"multiplier","type":"uint256","internalType":"uint256"},{"name":"probability","type":"uint256","internalType":"uint256"},{"name":"targetPrice","type":"uint256","internalType":"uint256"},{"name":"payoutFor100","type":"uint256","internalType":"uint256"}],"stateMutability":"view"},{"type":"function","name":"priceFeed","inputs":[],"outputs":[{"name":"","type":"address","internalType":"contract PriceFeed"}],"stateMutability":"view"},{"type":"function","name":"redeemForUsdc","inputs":[{"name":"token","type":"address","internalType":"address"},{"name":"gridTokenAmount","type":"uint256","internalType":"uint256"}],"outputs":[{"name":"usdcOut","type":"uint256","internalType":"uint256"}],"stateMutability":"nonpayable"},{"type":"function","name":"renounceOwnership","inputs":[],"outputs":[],"stateMutability":"nonpayable"},{"type":"function","name":"resolveBet","inputs":[{"name":"betId","type":"uint256","internalType":"uint256"}],"outputs":[],"stateMutability":"nonpayable"},{"type":"function","name":"resolveBets","inputs":[{"name":"betIds","type":"uint256[]","internalType":"uint256[]"}],"outputs":[],"stateMutability":"nonpayable"},{"type":"function","name":"setPaused","inputs":[{"name":"p","type":"bool","internalType":"bool"}],"outputs":[],"stateMutability":"nonpayable"},{"type":"function","name":"setPriceFeed","inputs":[{"name":"pf","type":"address","internalType":"address"}],"outputs":[],"stateMutability":"nonpayable"},{"type":"function","name":"setTokenActive","inputs":[{"name":"token","type":"address","internalType":"address"},{"name":"active","type":"bool","internalType":"bool"}],"outputs":[],"stateMutability":"nonpayable"},{"type":"function","name":"shareNAV","inputs":[{"name":"token","type":"address","internalType":"address"}],"outputs":[{"name":"","type":"uint256","internalType":"uint256"}],"stateMutability":"view"},{"type":"function","name":"tokenConfigs","inputs":[{"name":"","type":"address","internalType":"address"}],"outputs":[{"name":"active","type":"bool","internalType":"bool"},{"name":"annualVolBps","type":"uint256","internalType":"uint256"},{"name":"tickSizeUsdc","type":"uint256","internalType":"uint256"},{"name":"bucketSeconds","type":"uint256","internalType":"uint256"},{"name":"houseEdgeBps","type":"uint256","internalType":"uint256"},{"name":"minBetUsdc","type":"uint256","internalType":"uint256"},{"name":"maxBetUsdc","type":"uint256","internalType":"uint256"},{"name":"gridWidth","type":"uint8","internalType":"uint8"},{"name":"gridHalfHeight","type":"uint8","internalType":"uint8"},{"name":"openBoostBps","type":"uint256","internalType":"uint256"},{"name":"closeBoostBps","type":"uint256","internalType":"uint256"},{"name":"afterHoursBps","type":"uint256","internalType":"uint256"}],"stateMutability":"view"},{"type":"function","name":"totalShares","inputs":[{"name":"","type":"address","internalType":"address"}],"outputs":[{"name":"","type":"uint256","internalType":"uint256"}],"stateMutability":"view"},{"type":"function","name":"transferOwnership","inputs":[{"name":"newOwner","type":"address","internalType":"address"}],"outputs":[],"stateMutability":"nonpayable"},{"type":"function","name":"usdc","inputs":[],"outputs":[{"name":"","type":"address","internalType":"contract IERC20"}],"stateMutability":"view"},{"type":"function","name":"usdcPool","inputs":[{"name":"","type":"address","internalType":"address"}],"outputs":[{"name":"","type":"uint256","internalType":"uint256"}],"stateMutability":"view"},{"type":"function","name":"withdrawLiquidity","inputs":[{"name":"token","type":"address","internalType":"address"},{"name":"shares","type":"uint256","internalType":"uint256"}],"outputs":[],"stateMutability":"nonpayable"},{"type":"event","name":"BetPlaced","inputs":[{"name":"betId","type":"uint256","indexed":true,"internalType":"uint256"},{"name":"player","type":"address","indexed":true,"internalType":"address"},{"name":"token","type":"address","indexed":true,"internalType":"address"},{"name":"targetPrice","type":"uint256","indexed":false,"internalType":"uint256"},{"name":"expiryTs","type":"uint256","indexed":false,"internalType":"uint256"},{"name":"multiplier","type":"uint256","indexed":false,"internalType":"uint256"},{"name":"gridTokenAmount","type":"uint256","indexed":false,"internalType":"uint256"},{"name":"priceTicks","type":"int8","indexed":false,"internalType":"int8"},{"name":"timeBuckets","type":"uint256","indexed":false,"internalType":"uint256"}],"anonymous":false},{"type":"event","name":"BetResolved","inputs":[{"name":"betId","type":"uint256","indexed":true,"internalType":"uint256"},{"name":"won","type":"bool","indexed":false,"internalType":"bool"},{"name":"payout","type":"uint256","indexed":false,"internalType":"uint256"}],"anonymous":false},{"type":"event","name":"LiquidityDeposited","inputs":[{"name":"lp","type":"address","indexed":true,"internalType":"address"},{"name":"token","type":"address","indexed":true,"internalType":"address"},{"name":"usdcAmount","type":"uint256","indexed":false,"internalType":"uint256"},{"name":"shares","type":"uint256","indexed":false,"internalType":"uint256"}],"anonymous":false},{"type":"event","name":"LiquidityWithdrawn","inputs":[{"name":"lp","type":"address","indexed":true,"internalType":"address"},{"name":"token","type":"address","indexed":true,"internalType":"address"},{"name":"usdcAmount","type":"uint256","indexed":false,"internalType":"uint256"},{"name":"shares","type":"uint256","indexed":false,"internalType":"uint256"}],"anonymous":false},{"type":"event","name":"OwnershipTransferred","inputs":[{"name":"previousOwner","type":"address","indexed":true,"internalType":"address"},{"name":"newOwner","type":"address","indexed":true,"internalType":"address"}],"anonymous":false},{"type":"event","name":"Paused","inputs":[{"name":"paused","type":"bool","indexed":false,"internalType":"bool"}],"anonymous":false},{"type":"event","name":"TokenConfigured","inputs":[{"name":"token","type":"address","indexed":true,"internalType":"address"}],"anonymous":false},{"type":"event","name":"UsdcDeposited","inputs":[{"name":"user","type":"address","indexed":true,"internalType":"address"},{"name":"token","type":"address","indexed":true,"internalType":"address"},{"name":"usdcAmount","type":"uint256","indexed":false,"internalType":"uint256"},{"name":"gridTokens","type":"uint256","indexed":false,"internalType":"uint256"}],"anonymous":false},{"type":"event","name":"UsdcRedeemed","inputs":[{"name":"user","type":"address","indexed":true,"internalType":"address"},{"name":"token","type":"address","indexed":true,"internalType":"address"},{"name":"gridTokens","type":"uint256","indexed":false,"internalType":"uint256"},{"name":"usdcAmount","type":"uint256","indexed":false,"internalType":"uint256"}],"anonymous":false},{"type":"event","name":"WinningsClaimed","inputs":[{"name":"betId","type":"uint256","indexed":true,"internalType":"uint256"},{"name":"player","type":"address","indexed":true,"internalType":"address"},{"name":"gridTokens","type":"uint256","indexed":false,"internalType":"uint256"}],"anonymous":false},{"type":"error","name":"OwnableInvalidOwner","inputs":[{"name":"owner","type":"address","internalType":"address"}]},{"type":"error","name":"OwnableUnauthorizedAccount","inputs":[{"name":"account","type":"address","internalType":"address"}]},{"type":"error","name":"ReentrancyGuardReentrantCall","inputs":[]},{"type":"error","name":"SafeERC20FailedOperation","inputs":[{"name":"token","type":"address","internalType":"address"}]}],"bytecode":{"object":"0x60a03461020957601f613b3f38819003918201601f19168301916001600160401b0383118484101761020d578084926060946040528339810103126102095761004781610221565b90610060604061005960208401610221565b9201610221565b9033156101f6575f8054336001600160a01b0319821681178355604051959290916001600160a01b0316907f8be0079c531659141344cd1fd0a4f28419497f9722a3daafe3b4186f6b6457e09080a360017f9b779b17422d0df92223018b32b4d1fa46e071723d6817e2486d003becc55f008190556003556001600160a01b03169283156101c857506001600160a01b0316908115610192576001600160a01b03169182156101605760805260018060a01b0319600254161760025560018060a01b0319600154161760015560405161390990816102368239608051818181610272015281816107f701528181611f0501528181611f8801526125180152f35b60405162461bcd60e51b815260206004820152600a6024820152691e995c9bc819d91554d160b21b6044820152606490fd5b60405162461bcd60e51b815260206004820152600e60248201526d1e995c9bc81c1c9a58d95199595960921b6044820152606490fd5b62461bcd60e51b81526020600482015260096024820152687a65726f207573646360b81b6044820152606490fd5b631e4fbdf760e01b5f525f60045260245ffd5b5f80fd5b634e487b7160e01b5f52604160045260245ffd5b51906001600160a01b03821682036102095756fe60806040526004361015610011575f80fd5b5f5f3560e01c806306d47de9146123b45780630d2eab9c1461239057806316c38b3c1461232257806316f6bc7e146122e95780631b69dc5f1461222c5780631c6e81221461144157806322af00fa1461217557806339b41b4a14611f345780633e413bee14611eef578063477f072014611e9a5780634c36c36e14611e7d5780635c31a6a8146117c55780635c975abb1461179f57806361f14f11146116ba578063677bd9ff146114ce5780636a9a7ffe1461146a5780636f3b444d14611441578063715018a6146113e7578063724e78da14611370578063741bef1a146113475780638da5cb5b146113205780639051cce9146111545780639aca279214611136578063a0eafae6146110fd578063a14b60ea146110d1578063a8159ce514610fbc578063b36d0c2014610adf578063bf6b874e14610aa6578063c88a22e714610a63578063cb67e3b11461092c578063cceacc6614610791578063d7d0c58214610758578063e2f1b792146106fb578063f2fde38b14610675578063f81eabfd146103745763facef3c3146101a6575f80fd5b34610371576040366003190112610371576101bf612646565b6024356101ca612e49565b6101d382612f62565b50801561033e5764e8d4a5100081049182156103085760018060a01b031690818452600660205261020a836040862054101561271f565b6001546001600160a01b0316803b1561030457604051632770a7eb60e21b8152336004820152602481018390529085908290604490829084905af180156102f9576102e0575b506040848360209652600686522061026984825461275f565b905561029683337f0000000000000000000000000000000000000000000000000000000000000000612ebb565b60405190815282848201527ff10a8b5b5bfcf1434e5df636fdc5d0933c1dda200389a7887834e62d0eb586bd60403392a360015f5160206138b45f395f51905f5255604051908152f35b6102eb8580926127f2565b6102f5575f610250565b8380fd5b6040513d87823e3d90fd5b8480fd5b60405162461bcd60e51b815260206004820152600e60248201526d726f756e647320746f207a65726f60901b6044820152606490fd5b60405162461bcd60e51b815260206004820152600b60248201526a1e995c9bc8185b5bdd5b9d60aa1b6044820152606490fd5b80fd5b5034610371576101203660031901126103715761038f612646565b602435604435606435916084359160a4359460c4359060e4359160ff831680930361067157610104359160ff831680930361066d576103cc612f3c565b6001600160a01b031697881561063b57851561060b5784156105da5787156105a75761138887101561057457801561054457808210610513578996604051986104148a61279d565b60018a5260208a0197885260408a0196875260608a0190815260808a0191825260a08a0192835260c08a0193845260e08a019586526101008a019485526101208a01966161a888526101408b01986146508a528c6101608d019b610fa08d52528d6004602052604090209b511515610498908d9060ff801983541691151516179055565b5160018c01555160028b01555160038a015551600489015551600588015551600687015560078601915160ff168254915160081b61ff00169161ffff1916171790555160088401555160098301555190600a01557f3de6bfe55516f9cadcb09b7992370370609e179252c38173146ac026ecb40df08280a280f35b60405162461bcd60e51b815260206004820152600960248201526836b0bc101e1036b4b760b91b6044820152606490fd5b60405162461bcd60e51b81526020600482015260086024820152673d32b9379036b4b760c11b6044820152606490fd5b60405162461bcd60e51b815260206004820152600b60248201526a65646765203e3d2035302560a81b6044820152606490fd5b60405162461bcd60e51b815260206004820152600b60248201526a1e995c9bc8189d58dad95d60aa1b6044820152606490fd5b60405162461bcd60e51b81526020600482015260096024820152687a65726f207469636b60b81b6044820152606490fd5b60405162461bcd60e51b81526020600482015260086024820152671e995c9bc81d9bdb60c21b6044820152606490fd5b60405162461bcd60e51b815260206004820152600a6024820152693d32b937903a37b5b2b760b11b6044820152606490fd5b8980fd5b8880fd5b50346103715760203660031901126103715761068f612646565b610697612f3c565b6001600160a01b031680156106e75781546001600160a01b03198116821783556001600160a01b03167f8be0079c531659141344cd1fd0a4f28419497f9722a3daafe3b4186f6b6457e08380a380f35b631e4fbdf760e01b82526004829052602482fd5b503461037157604036600319011261037157610715612646565b6024358015158103610754576107519161072d612f3c565b60018060a01b031683526004602052604083209060ff801983541691151516179055565b80f35b8280fd5b5034610371576020366003190112610371576020906040906001600160a01b03610780612646565b168152600683522054604051908152f35b5034610371576040366003190112610371576107ab612646565b6024356107b6612e49565b6107c860ff60025460a01c1615612814565b6107d182612f62565b5080156108fb5764e8d4a5100081029181830464e8d4a51000036108e75761081b8230337f000000000000000000000000000000000000000000000000000000000000000061304a565b60018060a01b03169081845260066020526040842061083b828254612849565b90556001546001600160a01b0316803b15610304576040516340c10f1960e01b8152336004820152602481018590529085908290604490829084905af180156102f9576108d2575b506020935060405190815282848201527fa503dc89e057034dcb442d35e3e3de08b51220c607f51626bbdcac29a90deabd60403392a360015f5160206138b45f395f51905f5255604051908152f35b6108dd8580926127f2565b6102f55783610883565b634e487b7160e01b84526011600452602484fd5b60405162461bcd60e51b81526020600482015260096024820152687a65726f207573646360b81b6044820152606490fd5b50346103715760203660031901126103715760406101809161094c612646565b610954612df1565b506001600160a01b031681526004602052206040516109728161279d565b808060ff61010081838188541615159788825260018101549860208301998a526002820154604084019081526003830154606085019081526004840154916080860192835260058501549360a08701948552610160600a60068801549760c08a019889528a60078201549c8b828f9d60e0019d168d52019c60081c168c5261012060088201549e019d8e5261014060098201549f019e8f5201549d019c8d5260206040519e8f928352519101525160408d01525160608c01525160808b01525160a08a01525160c0890152511660e08701525116610100850152516101208401525161014083015251610160820152f35b5034610371576040366003190112610371576020906040906001600160a01b03610a8b612646565b168152600b8352818120602435825283522054604051908152f35b5034610371576020366003190112610371576020906040906001600160a01b03610ace612646565b168152600983522054604051908152f35b5034610371576020366003190112610371576001600160a01b03610b01612646565b16908181526004602052604081209160405192610b1d8461279d565b60ff815416159081158552600181015460208601526002810154604086019081526003820154606087015260048201546080870152600582015460a0870152600682015460c0870152600782015492600a60e088019360ff8616855260ff6101008a019660081c16865260088101546101208a015260098101546101408a01520154610160880152610f8a576002546040516353084eff60e01b815260048101869052936001600160a01b0390911690602085602481855afa948515610f7f578795610f47575b508415610f17578051936101fe60ff86169560011b169480860460021490151715610f03575196979660ff1692610c1a85612d4c565b97610c28604051998a6127f2565b858952601f19610c3787612d4c565b018a5b818110610ef057505060a0610c4e87612d64565b986024604051809781936374544e3b60e11b835260048301525afa8015610ee5578a80958182918394610ea7575b5090610cba9493929160409e9d9e5198610c958a6127ba565b151589521515602089015215156040880152151560608701521515608086015261329b565b91885b868110610d97578a8a8a8a60405192606084016060855285518091526080850190602060808260051b88010197019183905b828210610d3e5750505050838503602085015260208084519687815201930190945b808610610d2657505082935060408301520390f35b90926020806001928651815201940195019490610d11565b9091929397607f19888203018252845190602080835192838152019201908a905b808210610d7f57509199956020908101959460010193019150610cef9050565b90919260208060019286518152019401920190610d5f565b8151999a9960ff1680821015610e785750610db68160ff84511661275f565b60015b15610e5f57610dd2610dcc8551836126c0565b8a612849565b610ddc838c612ddd565b52610de687612d64565b610df0838d612ddd565b52610dfb828c612ddd565b508b5b878110610e12575050600101999899610cbd565b60018101808211610e4b57908c610e4482610e3e878f8d8d610e379260019a8c613327565b5094612ddd565b51612ddd565b5201610dfe565b634e487b7160e01b8e52601160045260248efd5b610e73610e6d8551836126c0565b8a61275f565b610dd2565b610e82908261275f565b60018101809111610e93578b610db9565b634e487b7160e01b8c52601160045260248cfd5b92505050610cba929550610ed3915060a03d60a011610ede575b610ecb81836127f2565b810190612d96565b939794909290610c7c565b503d610ec1565b6040513d8c823e3d90fd5b60606020828d0181019190915201610c3a565b634e487b7160e01b88526011600452602488fd5b60405162461bcd60e51b81526020600482015260086024820152676e6f20707269636560c01b6044820152606490fd5b9094506020813d602011610f77575b81610f63602093836127f2565b81010312610f735751935f610be4565b5f80fd5b3d9150610f56565b6040513d89823e3d90fd5b60405162461bcd60e51b815260206004820152600a6024820152696e6f742061637469766560b01b6044820152606490fd5b503461037157610fcb3661266c565b825b818110610fd8578380f35b610fe3818385612ccd565b35845260056020526040842080549091906001600160a01b0316156110c85760ff6007830154166110c8576004820154918242106110be5760025460019190910154604051630794df9560e11b81526001600160a01b039182166004820152602481019490945260809184916044918391165afa80156102f957600192869161108c575b50156110875761108161107b828587612ccd565b356129e7565b01610fcd565b611081565b6110ad915060803d81116110b7575b6110a581836127f2565b8101906129be565b925050505f611067565b503d61109b565b5060019150611081565b60019150611081565b50346103715760203660031901126103715760206110f56110f0612646565b612cf1565b604051908152f35b5034610371576020366003190112610371576020906040906001600160a01b03611125612646565b168152600a83522054604051908152f35b50346103715780600319360112610371576020600354604051908152f35b5034610371576111633661266c565b9061116c612e49565b8291839184915b80831061125b575050508115611223576001600160a01b03169081156111ee57816111da92845260076020526111af826040862054101561271f565b83526007602052604083206111c582825461275f565b905560015433906001600160a01b0316612ebb565b60015f5160206138b45f395f51905f525580f35b60405162461bcd60e51b815260206004820152600d60248201526c6e6f2076616c6964206265747360981b6044820152606490fd5b60405162461bcd60e51b815260206004820152601060248201526f6e6f7468696e6720746f20636c61696d60801b6044820152606490fd5b909193611269858385612ccd565b358652600560205260408620933360018060a01b038654160361131557600785019081549060ff8216158015611308575b80156112fa575b6112ed5750916112e3916201000060019462ff0000191617905560646112dc848060a01b0385890154169760066005820154910154906126c0565b0490612849565b945b019190611173565b95505050936001906112e5565b5060ff8260081c16156112a1565b5060ff8260101c1661129a565b9350936001906112e5565b5034610371578060031936011261037157546040516001600160a01b039091168152602090f35b50346103715780600319360112610371576002546040516001600160a01b039091168152602090f35b50346103715760203660031901126103715761138a612646565b611392612f3c565b6001600160a01b031680156113bc576bffffffffffffffffffffffff60a01b600254161760025580f35b606460405162461bcd60e51b81526020600482015260046024820152637a65726f60e01b6044820152fd5b5034610371578060031936011261037157611400612f3c565b80546001600160a01b03198116825581906001600160a01b03167f8be0079c531659141344cd1fd0a4f28419497f9722a3daafe3b4186f6b6457e08280a380f35b50346103715780600319360112610371576001546040516001600160a01b039091168152602090f35b503461037157604036600319011261037157611484612646565b60243591906001600160a01b03831683036114ca579060409160018060a01b031681526008602052209060018060a01b03165f52602052602060405f2054604051908152f35b5080fd5b5034610371576020366003190112610371576004356114eb612e49565b80825260056020526040822080549091906001600160a01b031633036116865760078201805460ff8116156116525760ff8160081c16156116225760ff8160101c166115eb57620100009062ff00001916179055606461155460058401546006850154906126c0565b04916001808060a01b0391015416808452600760205261157a836040862054101561271f565b835260076020526040832061159083825461275f565b90556001546115ab90839033906001600160a01b0316612ebb565b6040519182527f5380cf6fe903b40c6d5a9e0dfbca2f3a423f0a21520b4d5947ed5169bdba946d60203393a360015f5160206138b45f395f51905f525580f35b60405162461bcd60e51b815260206004820152600f60248201526e185b1c9958591e4818db185a5b5959608a1b6044820152606490fd5b60405162461bcd60e51b815260206004820152600860248201526718995d081b1bdcdd60c21b6044820152606490fd5b60405162461bcd60e51b815260206004820152600c60248201526b1b9bdd081c995cdbdb1d995960a21b6044820152606490fd5b60405162461bcd60e51b815260206004820152600c60248201526b1b9bdd081e5bdd5c8818995d60a21b6044820152606490fd5b5034610371576020366003190112610371576080906004358152600560205260408120906101406064611786604051946116f38661276c565b60018060a01b038154168652600181015460018060a01b038116602088015260a01c850b604087015260028101546060870152600381015487870152600481015460a087015260058101548060c088015260076006830154928360e08a015201549560ff87161515978861010082015260ff808960081c161515988961012084015260101c1615159687910152506126c0565b0491604051938452602084015260408301526060820152f35b5034610371578060031936011261037157602060ff60025460a01c166040519015158152f35b5034610371576080366003190112610371576117df612646565b6024359081830b8083036102f5576117f561265c565b90606435611801612e49565b6002549461181560ff8760a01c1615612814565b8215611e425761182485612f62565b6040516374544e3b60e11b81526001600160a01b038781166004830181905298169064e8d4a51000850460a082602481865afa918215611e37578b928c918d91611e0d575b5060a08601519360c08701928351925f14611dcc575050505062989680915b8110611d975711611d62576020602491604051928380926353084eff60e01b82528c60048301525afa908115611d57578991611d25575b508015611cea5760ff861695600187101580611cd9575b15611ca3576118e69388936130b3565b9150956118ff60646118f885876126c0565b0491612e81565b8015611c7157610bb88102908104610bb803611c5d5761271090048111611c185787895260076020526040892054888a52600b60205260408a20838b5260205261194d8260408c2054612849565b610bb88202828104610bb81483151715610e9357612710900410611bd357601490048411611b8e57600154611990908590309033906001600160a01b031661304a565b8789526007602052604089206119a7858254612849565b9055878952600a602052604089206119c0828254612849565b9055878952600b60205260408920828a526020526119e360408a20918254612849565b9055600354975f198914611b7a57600189016003558860405191611a068361276c565b33835260208084018b815260408086018a8152606087018c8152608088018e815260a0808a018b815260c08b018e815260e08c018e81526101008d018b81526101208e018c81526101408f018d81529d8d5260059b8c905298909b209c518d546001600160a01b039182166001600160a01b0319909116178e55985160018e018054985190951b60ff60a01b1699166001600160a81b03199097169690961797909717909155915160028a015551600389015551600488015591519286019290925551600685015590516007909301805460ff191660ff9415159490941693909317835551825461ff00191690151560081b61ff001617825551151581549060101b62ff0000169062ff00001916179055604051958652602086015260408501526060840152608083015260a082015282339160c07facf426b9dcc14a217d75dc57a7cd275b36e9a1daab25da3dedf9fc4768b9201691a460015f5160206138b45f395f51905f5255604051908152602090f35b634e487b7160e01b81526011600452602490fd5b60405162461bcd60e51b815260206004820152601e60248201527f6578706f737572653a2073696e676c6520626574203e20352520706f6f6c00006044820152606490fd5b60405162461bcd60e51b815260206004820152601b60248201527f6578706f737572653a206275636b6574203e2033302520706f6f6c00000000006044820152606490fd5b60405162461bcd60e51b815260206004820152601f60248201527f6578706f737572653a2073696e676c6520626574203e2033302520706f6f6c006044820152606490fd5b634e487b7160e01b8a52601160045260248afd5b60405162461bcd60e51b815260206004820152600a602482015269706f6f6c20656d70747960b01b6044820152606490fd5b60405162461bcd60e51b815260206004820152600e60248201526d34b73b30b634b21031b7b63ab6b760911b6044820152606490fd5b5060ff60e0840151168711156118d6565b60405162461bcd60e51b81526020600482015260136024820152727072696365206e6f7420617661696c61626c6560681b6044820152606490fd5b90506020813d602011611d4f575b81611d40602093836127f2565b81010312610f7357515f6118bf565b3d9150611d33565b6040513d8b823e3d90fd5b60405162461bcd60e51b815260206004820152600d60248201526c18589bdd99481b585e0818995d609a1b6044820152606490fd5b60405162461bcd60e51b815260206004820152600d60248201526c18995b1bddc81b5a5b8818995d609a1b6044820152606490fd5b15611ddd5750505160011c91611888565b93919093611dec575b50611888565b9250600381029080820460031490151715610e9357915160011c915f611de6565b915050611e2a91925060a03d60a011610ede57610ecb81836127f2565b929493509190505f611869565b6040513d8d823e3d90fd5b60405162461bcd60e51b81526020600482015260136024820152727069636b2061206e6f6e2d7a65726f20726f7760681b6044820152606490fd5b5034610371576020366003190112610371576107516004356129e7565b503461037157606036600319011261037157611eb4612646565b906024359081810b8203610371576080611ed78484611ed161265c565b91612856565b91604051938452602084015260408301526060820152f35b50346103715780600319360112610371576040517f00000000000000000000000000000000000000000000000000000000000000006001600160a01b03168152602090f35b503461037157604036600319011261037157611f4e612646565b60243590611f5a612e49565b611f6c60ff60025460a01c1615612814565b611f7581612f62565b5062989680821061214357611fac8230337f000000000000000000000000000000000000000000000000000000000000000061304a565b60018060a01b031690818352600660205260408320611fcc828254612849565b905564e8d4a51000810281810464e8d4a5100014821517156108e75760015484906001600160a01b0316803b156114ca576040516340c10f1960e01b8152306004820152602481018490529082908290604490829084905af1801561213857612123575b50839052600760205260408420612048828254612849565b90558284526009602052604084205490838552600760205260408520548215801561211a575b156120f957505050805b338452600860205260408420835f5260205260405f20612099828254612849565b90558284526009602052604084206120b2828254612849565b905560405191825260208201527f44504979f82d498dad8a0687fc02e140be70b1b4ab3b9e23c6ffc1d04410194a60403392a360015f5160206138b45f395f51905f525580f35b6121159261210a836121109361275f565b926126c0565b612715565b612078565b5081811461206e565b8161212d916127f2565b6102f557835f612030565b6040513d84823e3d90fd5b60405162461bcd60e51b815260206004820152600a60248201526906d696e204c50202431360b41b6044820152606490fd5b503461037157602036600319011261037157610160906004358152600560205260ff604082209160018060a01b0383541692600181015491600282015460038301546004840154916005850154936007600687015496015496604051998a5260018060a01b03811660208b015260a01c900b60408901526060880152608087015260a086015260c085015260e08401528181161515610100840152818160081c16151561012084015260101c161515610140820152f35b503461037157602036600319011261037157610180906040906001600160a01b03612255612646565b16815260046020522060ff81541690600181015490600281015460ff600383015460048401546005850154600686015491600787015493600888015496600a60098a0154990154996040519b15158c5260208c015260408b015260608a0152608089015260a088015260c087015281811660e087015260081c16610100850152610120840152610140830152610160820152f35b5034610371576020366003190112610371576020906040906001600160a01b03612311612646565b168152600783522054604051908152f35b5034610371576020366003190112610371576004358015158091036114ca5760207f0e2fb031ee032dc02d8011dc50b816eb450cf856abd8261680dac74f72165bd29161236d612f3c565b6002805460ff60a01b191660a083901b60ff60a01b16179055604051908152a180f35b50346103715760203660031901126103715760206110f56123af612646565b612e81565b5034610f73576040366003190112610f73576123ce612646565b6024356123d9612e49565b335f52600860205260405f2060018060a01b0383165f526020528060405f20541061260b576001600160a01b0382165f8181526009602052604090205490929080156125dc5761211061242e61243493612e81565b846126c0565b9081156125a15764e8d4a51000820491835f52600660205261245c8360405f2054101561271f565b335f52600860205260405f20845f5260205260405f2061247d83825461275f565b9055835f52600960205260405f2061249683825461275f565b90556001546001600160a01b0316803b15610f7357604051632770a7eb60e21b815230600482015260248101839052905f908290604490829084905af1801561259657612581575b5083855260076020526124f66040862091825461275f565b905582845260066020526040842061250f83825461275f565b905561253c82337f0000000000000000000000000000000000000000000000000000000000000000612ebb565b60405191825260208201527fba0b893b2f314a229997e335266881b5ac6b290bd350d2c23cc57160b77882b860403392a360015f5160206138b45f395f51905f525580f35b61258e9195505f906127f2565b5f935f6124de565b6040513d5f823e3d90fd5b60405162461bcd60e51b81526020600482015260136024820152726e6f7468696e6720746f20776974686472617760681b6044820152606490fd5b60405162461bcd60e51b81526020600482015260076024820152661b9bc81c1bdbdb60ca1b6044820152606490fd5b60405162461bcd60e51b8152602060048201526013602482015272696e73756666696369656e742073686172657360681b6044820152606490fd5b600435906001600160a01b0382168203610f7357565b6044359060ff82168203610f7357565b906020600319830112610f735760043567ffffffffffffffff8111610f735782602382011215610f735780600401359267ffffffffffffffff8411610f735760248460051b83010111610f73576024019190565b818102929181159184041417156126d357565b634e487b7160e01b5f52601160045260245ffd5b8015612701576ec097ce7bc90715b34b9f10000000000490565b634e487b7160e01b5f52601260045260245ffd5b8115612701570490565b1561272657565b60405162461bcd60e51b81526020600482015260116024820152701c1bdbdb081a5b9cdd59999a58da595b9d607a1b6044820152606490fd5b919082039182116126d357565b610160810190811067ffffffffffffffff82111761278957604052565b634e487b7160e01b5f52604160045260245ffd5b610180810190811067ffffffffffffffff82111761278957604052565b60a0810190811067ffffffffffffffff82111761278957604052565b60e0810190811067ffffffffffffffff82111761278957604052565b90601f8019910116810190811067ffffffffffffffff82111761278957604052565b1561281b57565b60405162461bcd60e51b81526020600482015260066024820152651c185d5cd95960d21b6044820152606490fd5b919082018092116126d357565b909160018060a01b03821690815f52600460205260405f20936040519461287c8661279d565b600a60ff82541615918215885260018101546020890152600281015460408901526003810154606089015260048101546080890152600581015460a0890152600681015460c089015260ff600782015481811660e08b015260081c1661010089015260088101546101208901526009810154610140890152015461016087015261296e576002546040516353084eff60e01b81526004810194909452602090849060249082906001600160a01b03165afa928315612596575f9361297d575b50821561296e5761294b946130b3565b50919290919068056bc75e2d6310000080850290810485036126d3576064900490565b50505050505f905f905f905f90565b9092506020813d6020116129a9575b81612999602093836127f2565b81010312610f735751915f61293b565b3d915061298c565b51908115158203610f7357565b9190826080910312610f73578151916020810151916129e46060604084015193016129b1565b90565b5f81815260056020526040902080546001600160a01b031615612c98576007810180549060ff8216612c605760048301805490814210612c2757600254600186018054604051630794df9560e11b81526001600160a01b0380831660048301526024820196909652909791949192909160809183916044918391165afa918215612596575f925f925f91612bfe575b5015612bb957612ae8604097600197606495612af8955f7fe1b4cc7b572a56466df9203312ded49052ff26393efd614a3f8658c98ec0fc389d60a01c810b135f14612ba85750600385015411159889925b61ff001990911661ffff199091161791151560081b61ff0016919091179055565b60066005820154910154906126c0565b049160018060a01b03815416805f52600a60205283865f20541015612b8b575b50546001600160a01b03165f818152600b6020908152868220935480835293905285902054831115612b64575b50508115612b5d575b825191151582526020820152a2565b505f612b4e565b5f52600b602052835f20905f52602052825f20612b8282825461275f565b90555f80612b45565b5f52600a602052845f20612ba084825461275f565b90555f612b18565b905060038501541015988992612ac7565b60405162461bcd60e51b815260206004820152601e60248201527f7265736f6c7574696f6e2064617461206e6f74207075736865642079657400006044820152606490fd5b91935050612c1b915060803d6080116110b7576110a581836127f2565b9250929092915f612a76565b60405162461bcd60e51b8152602060048201526011602482015270189d58dad95d081b9bdd0818db1bdcd959607a1b6044820152606490fd5b60405162461bcd60e51b815260206004820152601060248201526f185b1c9958591e481c995cdbdb1d995960821b6044820152606490fd5b60405162461bcd60e51b815260206004820152600d60248201526c18995d081b9bdd08199bdd5b99609a1b6044820152606490fd5b9190811015612cdd5760051b0190565b634e487b7160e01b5f52603260045260245ffd5b6001600160a01b03165f81815260096020526040902054908115612d43575f52600760205264e8d4a5100060405f20540490620f4240820291808304620f424014901517156126d3576129e491612715565b5050620f424090565b67ffffffffffffffff81116127895760051b60200190565b90612d6e82612d4c565b612d7b60405191826127f2565b8281528092612d8c601f1991612d4c565b0190602036910137565b908160a0910312610f7357612daa816129b1565b91612db7602083016129b1565b91612dc4604082016129b1565b916129e46080612dd6606085016129b1565b93016129b1565b8051821015612cdd5760209160051b010190565b60405190612dfe8261279d565b5f610160838281528260208201528260408201528260608201528260808201528260a08201528260c08201528260e08201528261010082015282610120820152826101408201520152565b60025f5160206138b45f395f51905f525414612e725760025f5160206138b45f395f51905f5255565b633ee5aeb560e01b5f5260045ffd5b6001600160a01b03165f90815260076020908152604080832054600a9092529091205480821115612eb5576129e49161275f565b50505f90565b916040519163a9059cbb60e01b5f5260018060a01b031660045260245260205f60448180865af19060015f5114821615612f1b575b60405215612efb5750565b635274afe760e01b5f9081526001600160a01b0391909116600452602490fd5b906001811516612f3357823b15153d15161690612ef0565b503d5f823e3d90fd5b5f546001600160a01b03163303612f4f57565b63118cdaa760e01b5f523360045260245ffd5b612f6a612df1565b5060018060a01b03165f52600460205260405f2090604051612f8b8161279d565b600a60ff84541615938415835260018101546020840152600281015460408401526003810154606084015260048101546080840152600581015460a0840152600681015460c084015260ff600782015481811660e086015260081c166101008401526008810154610120840152600981015461014084015201546101608201529161301257565b60405162461bcd60e51b815260206004820152601060248201526f746f6b656e206e6f742061637469766560801b6044820152606490fd5b6040516323b872dd60e01b5f9081526001600160a01b039384166004529290931660245260449390935260209060648180865af19060015f511482161561309b575b6040525f60605215612efb5750565b906001811516612f3357823b15153d1516169061308c565b91935f91820b9182139291831561328857925b15613229576130e26130dc6040840151856126c0565b85612849565b935b613117606084019661311160ff6131076130ff8b5142612715565b8b51906126c0565b92169851896126c0565b90612849565b6002546040516374544e3b60e11b81526001600160a01b0394851660048201819052929894909116959193919060a0816024818a5afa908115612596575f955f905f925f946131fc575b5060a0906024604051809c81936374544e3b60e11b835260048301525afa978815612596576131ce995f996131d3575b5061319b9061329b565b96604051986131a98a6127ba565b1515895215156020890152151560408801521515606087015215156080860152613327565b929093565b61319b9199506131f19060a03d60a011610ede57610ecb81836127f2565b505050509890613191565b9150925060a080975061321b92503d8811610ede57610ecb81836127f2565b935091979091929390613161565b6132376040830151846126c0565b8481101561324f57613249908561275f565b936130e4565b60405162461bcd60e51b81526020600482015260116024820152707461726765742062656c6f77207a65726f60781b6044820152606490fd5b600160ff1b81146126d3575f03926130c6565b5f60c06040516132aa816127d6565b8281528260208201528260408201528260608201528260808201528260a0820152015260208101519060408101519060608101516080820151610120830151916101606101408501519401519460405196613304886127d6565b8752602087015260408601526060850152608084015260a083015260c082015290565b9293831561356e5781156135305782156134f45761335a613366918651608088015160a08901519060c08a0151926135aa565b916040860151906126c0565b670de0b6b3a7640000820291808304670de0b6b3a764000014901517156126d357670de0b6b3a7640000810290808204670de0b6b3a764000014901517156126d3576133b1906137a7565b6a1a1601fc4ea7109e000000916a0d0b00fe2753884f0000005b8381106134cc5750916121106133e8926127106133f495046126c0565b926020850151906126c0565b90670de0b6b3a7640000820291808304670de0b6b3a764000014901517156126d35761341f91612715565b81156134c057670de0b6b3a7640000810290808204670de0b6b3a764000014901517156126d3576134589161345391612715565b613627565b9081156134b657606061346a836126e7565b9101516127100361271081116126d35761348f61271091662386f26fc10000936126c0565b040491606e83106134ad575b61271083116134a657565b6127109250565b606e925061349b565b5050612710905f90565b50505061271090600190565b925082801561270157806134ec916a1a1601fc4ea7109e00000004612849565b60011c6133cb565b60405162461bcd60e51b8152602060048201526014602482015273477269644d6174683a207a65726f20707269636560601b6044820152606490fd5b60405162461bcd60e51b8152602060048201526016602482015275477269644d6174683a207a65726f206275636b65747360501b6044820152606490fd5b60405162461bcd60e51b8152602060048201526014602482015273477269644d6174683a207a65726f207469636b7360601b6044820152606490fd5b9391926080830151613606578251156135f5575060208201516135e55750604001516135d4575090565b6135e190612710926126c0565b0490565b90506135e19150612710926126c0565b9150506135e19150612710926126c0565b505050506107d08102908082046107d014901517156126d357612710900490565b6753444835ec58000081116137a15780631386a4bc02631386a4bc810482036126d357670de0b6b3a76400009004633b9aca000180633b9aca00116126d3578015612701576b033b2e3c9fd0803ce80000000480633f43c2f502633f43c2f5810482036126d357670de0b6b3a7640000900463569d571b81018091116126d3576136ba82670de0b6b3a7640000926126c0565b046354b90d6d81018091116126d3576136dc82670de0b6b3a7640000926126c0565b046310f5136081018091116126d3576136fe82670de0b6b3a7640000926126c0565b0490630f30641882018092116126d357613738670de0b6b3a7640000613730671bc16d674ec800009361373e956126c0565b0493806126c0565b046137ed565b633b9aca00810290808204633b9aca0014901517156126d357633b9aca00916395681cb261376c92046126c0565b04600181901b91906001600160ff1b038116036126d357670de0b6b3a7640000821161379457565b670de0b6b3a76400009150565b50600190565b9081156137e857600182018083116126d35760011c825b8382106137c9575050565b9092506137df836137da8184612715565b612849565b60011c906137be565b5f9150565b6801158e460913d000008110156138ae5780156138a157670de0b6b3a764000061381782806126c0565b0490670de0b6b3a764000061382c82846126c0565b0490670de0b6b3a764000061384182846126c0565b0492670de0b6b3a764000061385683866126c0565b0491670de0b6b3a7640000019283670de0b6b3a7640000116126d3576129e494601861389461389493600661389461389c9960789860011c90612849565b910490612849565b6126e7565b50670de0b6b3a764000090565b505f9056fe9b779b17422d0df92223018b32b4d1fa46e071723d6817e2486d003becc55f00a26469706673582212202b168463baf2393cc942423a6b1e8e9612ae0c6365826bee4df07c7203ab79fe64736f6c634300081b0033","linkReferences":{}},"methodIdentifiers":{"bets(uint256)":"22af00fa","bucketMaxPayout(address,uint256)":"c88a22e7","claimMultiple(uint256[])":"9051cce9","claimWinnings(uint256)":"677bd9ff","configureToken(address,uint256,uint256,uint256,uint256,uint256,uint256,uint8,uint8)":"f81eabfd","depositLiquidity(address,uint256)":"39b41b4a","depositUsdc(address,uint256)":"cceacc66","freePoolGridTokens(address)":"0d2eab9c","gdUSD()":"1c6e8122","gdUSDToken()":"6f3b444d","getBetStatus(uint256)":"61f14f11","getGridMatrix(address)":"b36d0c20","getTokenConfig(address)":"cb67e3b1","lockedGridTokens(address)":"a0eafae6","lpShares(address,address)":"6a9a7ffe","nextBetId()":"9aca2792","owner()":"8da5cb5b","paused()":"5c975abb","placeBet(address,int8,uint8,uint256)":"5c31a6a8","poolGdUsd(address)":"16f6bc7e","previewMultiplier(address,int8,uint8)":"477f0720","priceFeed()":"741bef1a","redeemForUsdc(address,uint256)":"facef3c3","renounceOwnership()":"715018a6","resolveBet(uint256)":"4c36c36e","resolveBets(uint256[])":"a8159ce5","setPaused(bool)":"16c38b3c","setPriceFeed(address)":"724e78da","setTokenActive(address,bool)":"e2f1b792","shareNAV(address)":"a14b60ea","tokenConfigs(address)":"1b69dc5f","totalShares(address)":"bf6b874e","transferOwnership(address)":"f2fde38b","usdc()":"3e413bee","usdcPool(address)":"d7d0c582","withdrawLiquidity(address,uint256)":"06d47de9"},"id":32}