{"abi":[{"type":"constructor","inputs":[{"name":"oracle_","type":"address","internalType":"address"}],"stateMutability":"nonpayable"},{"type":"function","name":"betCount","inputs":[],"outputs":[{"name":"","type":"uint256","internalType":"uint256"}],"stateMutability":"view"},{"type":"function","name":"betStatus","inputs":[{"name":"betId","type":"uint256","internalType":"uint256"}],"outputs":[{"name":"resolved","type":"bool","internalType":"bool"},{"name":"won","type":"bool","internalType":"bool"},{"name":"potentialPayout","type":"uint256","internalType":"uint256"}],"stateMutability":"view"},{"type":"function","name":"bets","inputs":[{"name":"","type":"uint256","internalType":"uint256"}],"outputs":[{"name":"player","type":"address","internalType":"address"},{"name":"token","type":"address","internalType":"address"},{"name":"cellId","type":"bytes32","internalType":"bytes32"},{"name":"amount","type":"uint256","internalType":"uint256"},{"name":"multiplier","type":"uint256","internalType":"uint256"},{"name":"claimed","type":"bool","internalType":"bool"}],"stateMutability":"view"},{"type":"function","name":"calculateMultiplier","inputs":[{"name":"absDistance","type":"uint256","internalType":"uint256"},{"name":"timeBuckets","type":"uint256","internalType":"uint256"},{"name":"houseEdgeBps","type":"uint256","internalType":"uint256"}],"outputs":[{"name":"mult100","type":"uint256","internalType":"uint256"}],"stateMutability":"pure"},{"type":"function","name":"cells","inputs":[{"name":"","type":"bytes32","internalType":"bytes32"}],"outputs":[{"name":"token","type":"address","internalType":"address"},{"name":"priceLevel","type":"uint256","internalType":"uint256"},{"name":"timeExpiry","type":"uint256","internalType":"uint256"},{"name":"multiplier","type":"uint256","internalType":"uint256"},{"name":"totalBets","type":"uint256","internalType":"uint256"},{"name":"resolved","type":"bool","internalType":"bool"},{"name":"outcome","type":"bool","internalType":"bool"}],"stateMutability":"view"},{"type":"function","name":"claimWinnings","inputs":[{"name":"betId","type":"uint256","internalType":"uint256"}],"outputs":[],"stateMutability":"nonpayable"},{"type":"function","name":"freeReserve","inputs":[{"name":"token","type":"address","internalType":"address"}],"outputs":[{"name":"","type":"uint256","internalType":"uint256"}],"stateMutability":"view"},{"type":"function","name":"fundReserve","inputs":[{"name":"token","type":"address","internalType":"address"},{"name":"amount","type":"uint256","internalType":"uint256"}],"outputs":[],"stateMutability":"nonpayable"},{"type":"function","name":"getCellId","inputs":[{"name":"token","type":"address","internalType":"address"},{"name":"priceLevel","type":"uint256","internalType":"uint256"},{"name":"timeExpiry","type":"uint256","internalType":"uint256"}],"outputs":[{"name":"","type":"bytes32","internalType":"bytes32"}],"stateMutability":"pure"},{"type":"function","name":"getGridSnapshot","inputs":[{"name":"token","type":"address","internalType":"address"}],"outputs":[{"name":"priceBase","type":"uint256","internalType":"uint256"},{"name":"multipliers","type":"uint256[]","internalType":"uint256[]"}],"stateMutability":"view"},{"type":"function","name":"gridConfigs","inputs":[{"name":"","type":"address","internalType":"address"}],"outputs":[{"name":"tickSize","type":"uint256","internalType":"uint256"},{"name":"bucketSeconds","type":"uint256","internalType":"uint256"},{"name":"gridWidth","type":"uint8","internalType":"uint8"},{"name":"gridHalfHeight","type":"uint8","internalType":"uint8"},{"name":"houseEdgeBps","type":"uint256","internalType":"uint256"},{"name":"maxBetAmount","type":"uint256","internalType":"uint256"},{"name":"minBetAmount","type":"uint256","internalType":"uint256"},{"name":"active","type":"bool","internalType":"bool"}],"stateMutability":"view"},{"type":"function","name":"oracle","inputs":[],"outputs":[{"name":"","type":"address","internalType":"contract IOracle"}],"stateMutability":"view"},{"type":"function","name":"owner","inputs":[],"outputs":[{"name":"","type":"address","internalType":"address"}],"stateMutability":"view"},{"type":"function","name":"pendingPayouts","inputs":[{"name":"","type":"address","internalType":"address"}],"outputs":[{"name":"","type":"uint256","internalType":"uint256"}],"stateMutability":"view"},{"type":"function","name":"placeBet","inputs":[{"name":"token","type":"address","internalType":"address"},{"name":"priceLevels","type":"int8","internalType":"int8"},{"name":"timeBuckets","type":"uint8","internalType":"uint8"},{"name":"amount","type":"uint256","internalType":"uint256"}],"outputs":[{"name":"betId","type":"uint256","internalType":"uint256"}],"stateMutability":"nonpayable"},{"type":"function","name":"renounceOwnership","inputs":[],"outputs":[],"stateMutability":"nonpayable"},{"type":"function","name":"resolveCell","inputs":[{"name":"cellId","type":"bytes32","internalType":"bytes32"}],"outputs":[],"stateMutability":"nonpayable"},{"type":"function","name":"setGridConfig","inputs":[{"name":"token","type":"address","internalType":"address"},{"name":"config","type":"tuple","internalType":"struct xStocksGrid.GridConfig","components":[{"name":"tickSize","type":"uint256","internalType":"uint256"},{"name":"bucketSeconds","type":"uint256","internalType":"uint256"},{"name":"gridWidth","type":"uint8","internalType":"uint8"},{"name":"gridHalfHeight","type":"uint8","internalType":"uint8"},{"name":"houseEdgeBps","type":"uint256","internalType":"uint256"},{"name":"maxBetAmount","type":"uint256","internalType":"uint256"},{"name":"minBetAmount","type":"uint256","internalType":"uint256"},{"name":"active","type":"bool","internalType":"bool"}]}],"outputs":[],"stateMutability":"nonpayable"},{"type":"function","name":"setOracle","inputs":[{"name":"oracle_","type":"address","internalType":"address"}],"outputs":[],"stateMutability":"nonpayable"},{"type":"function","name":"transferOwnership","inputs":[{"name":"newOwner","type":"address","internalType":"address"}],"outputs":[],"stateMutability":"nonpayable"},{"type":"function","name":"withdrawReserve","inputs":[{"name":"token","type":"address","internalType":"address"},{"name":"amount","type":"uint256","internalType":"uint256"}],"outputs":[],"stateMutability":"nonpayable"},{"type":"event","name":"BetPlaced","inputs":[{"name":"betId","type":"uint256","indexed":true,"internalType":"uint256"},{"name":"player","type":"address","indexed":true,"internalType":"address"},{"name":"token","type":"address","indexed":true,"internalType":"address"},{"name":"cellId","type":"bytes32","indexed":false,"internalType":"bytes32"},{"name":"amount","type":"uint256","indexed":false,"internalType":"uint256"},{"name":"multiplier","type":"uint256","indexed":false,"internalType":"uint256"},{"name":"priceLevel","type":"uint256","indexed":false,"internalType":"uint256"},{"name":"timeExpiry","type":"uint256","indexed":false,"internalType":"uint256"}],"anonymous":false},{"type":"event","name":"CellResolved","inputs":[{"name":"cellId","type":"bytes32","indexed":true,"internalType":"bytes32"},{"name":"outcome","type":"bool","indexed":false,"internalType":"bool"},{"name":"resolutionPrice","type":"uint256","indexed":false,"internalType":"uint256"}],"anonymous":false},{"type":"event","name":"GridConfigSet","inputs":[{"name":"token","type":"address","indexed":true,"internalType":"address"},{"name":"config","type":"tuple","indexed":false,"internalType":"struct xStocksGrid.GridConfig","components":[{"name":"tickSize","type":"uint256","internalType":"uint256"},{"name":"bucketSeconds","type":"uint256","internalType":"uint256"},{"name":"gridWidth","type":"uint8","internalType":"uint8"},{"name":"gridHalfHeight","type":"uint8","internalType":"uint8"},{"name":"houseEdgeBps","type":"uint256","internalType":"uint256"},{"name":"maxBetAmount","type":"uint256","internalType":"uint256"},{"name":"minBetAmount","type":"uint256","internalType":"uint256"},{"name":"active","type":"bool","internalType":"bool"}]}],"anonymous":false},{"type":"event","name":"OwnershipTransferred","inputs":[{"name":"previousOwner","type":"address","indexed":true,"internalType":"address"},{"name":"newOwner","type":"address","indexed":true,"internalType":"address"}],"anonymous":false},{"type":"event","name":"ReserveFunded","inputs":[{"name":"token","type":"address","indexed":true,"internalType":"address"},{"name":"amount","type":"uint256","indexed":false,"internalType":"uint256"}],"anonymous":false},{"type":"event","name":"ReserveWithdrawn","inputs":[{"name":"token","type":"address","indexed":true,"internalType":"address"},{"name":"amount","type":"uint256","indexed":false,"internalType":"uint256"}],"anonymous":false},{"type":"event","name":"WinningsClaimed","inputs":[{"name":"betId","type":"uint256","indexed":true,"internalType":"uint256"},{"name":"player","type":"address","indexed":true,"internalType":"address"},{"name":"payout","type":"uint256","indexed":false,"internalType":"uint256"}],"anonymous":false},{"type":"error","name":"OwnableInvalidOwner","inputs":[{"name":"owner","type":"address","internalType":"address"}]},{"type":"error","name":"OwnableUnauthorizedAccount","inputs":[{"name":"account","type":"address","internalType":"address"}]},{"type":"error","name":"ReentrancyGuardReentrantCall","inputs":[]},{"type":"error","name":"SafeERC20FailedOperation","inputs":[{"name":"token","type":"address","internalType":"address"}]}],"bytecode":{"object":"0x608060405234801561000f575f5ffd5b5060405161244738038061244783398101604081905261002e9161013a565b338061005457604051631e4fbdf760e01b81525f60048201526024015b60405180910390fd5b61005d816100eb565b5060017f9b779b17422d0df92223018b32b4d1fa46e071723d6817e2486d003becc55f00556001600160a01b0381166100c65760405162461bcd60e51b815260206004820152600b60248201526a7a65726f206f7261636c6560a81b604482015260640161004b565b600180546001600160a01b0319166001600160a01b0392909216919091179055610167565b5f80546001600160a01b038381166001600160a01b0319831681178455604051919092169283917f8be0079c531659141344cd1fd0a4f28419497f9722a3daafe3b4186f6b6457e09190a35050565b5f6020828403121561014a575f5ffd5b81516001600160a01b0381168114610160575f5ffd5b9392505050565b6122d3806101745f395ff3fe608060405234801561000f575f5ffd5b5060043610610132575f3560e01c806365628dbc116100b45780637adbf973116100795780637adbf9731461041c5780637dc0d1d01461042f5780638da5cb5b1461045a578063cf0944971461046a578063e9f7bccb14610473578063f2fde38b14610486575f5ffd5b806365628dbc146103bc578063677bd9ff146103cf578063711694ec146103e2578063715018a6146103f5578063784712f2146103fd575f5ffd5b80632056eb51116100fa5780632056eb511461025257806322af00fa146102e95780632f517f2e14610375578063563426f3146103885780635c31a6a8146103a9575f5ffd5b806308a83fd4146101365780630f63517b1461014b57806317d2f7f7146101715780631bcceecd146101a15780631c58ce141461023f575b5f5ffd5b610149610144366004611e41565b610499565b005b61015e610159366004611e7f565b6106e2565b6040519081526020015b60405180910390f35b61018461017f366004611eaf565b610730565b604080519315158452911515602084015290820152606001610168565b6101fc6101af366004611eaf565b600360208190525f91825260409091208054600182015460028301549383015460048401546005909401546001600160a01b03909316949193919290919060ff8082169161010090041687565b604080516001600160a01b03909816885260208801969096529486019390935260608501919091526080840152151560a0830152151560c082015260e001610168565b61014961024d366004611ec6565b6108ca565b6102a6610260366004611eee565b600260208190525f9182526040909120805460018201549282015460038301546004840154600585015460069095015493959460ff808516956101009095048116941688565b60408051988952602089019790975260ff95861696880196909652939092166060860152608085015260a084015260c0830152151560e082015261010001610168565b61033b6102f7366004611eaf565b600460208190525f91825260409091208054600182015460028301546003840154948401546005909401546001600160a01b03938416959290931693909260ff1686565b604080516001600160a01b0397881681529690951660208701529385019290925260608401526080830152151560a082015260c001610168565b610149610383366004611ec6565b61098a565b61039b610396366004611eee565b610a1f565b604051610168929190611f0e565b61015e6103b7366004611f69565b610cbf565b61015e6103ca366004611eee565b611452565b6101496103dd366004611eaf565b6114ee565b61015e6103f0366004611fb9565b61179a565b61014961187a565b61015e61040b366004611eee565b60066020525f908152604090205481565b61014961042a366004611eee565b61188d565b600154610442906001600160a01b031681565b6040516001600160a01b039091168152602001610168565b5f546001600160a01b0316610442565b61015e60055481565b610149610481366004611eaf565b6118fb565b610149610494366004611eee565b611be2565b6104a1611c1c565b6001600160a01b0382166104e95760405162461bcd60e51b815260206004820152600a6024820152693d32b937903a37b5b2b760b11b60448201526064015b60405180910390fd5b80356105235760405162461bcd60e51b81526020600482015260096024820152687a65726f207469636b60b81b60448201526064016104e0565b5f8160200135116105645760405162461bcd60e51b815260206004820152600b60248201526a1e995c9bc8189d58dad95d60aa1b60448201526064016104e0565b5f6105756060830160408401611fe2565b60ff16116105b25760405162461bcd60e51b815260206004820152600a6024820152690f4cae4de40eed2c8e8d60b31b60448201526064016104e0565b6113888160800135106105f55760405162461bcd60e51b815260206004820152600b60248201526a65646765203e3d2035302560a81b60448201526064016104e0565b5f8160c00135116106335760405162461bcd60e51b81526020600482015260086024820152673d32b9379036b4b760c11b60448201526064016104e0565b8060c001358160a0013510156106775760405162461bcd60e51b815260206004820152600960248201526836b0bc101e1036b4b760b91b60448201526064016104e0565b6001600160a01b0382165f908152600260205260409020819061069a8282612028565b905050816001600160a01b03167fbf25bd30d1c3fd9ae0f8c40218099897a304bd26690a5eaf127c3ebd4be26935826040516106d691906120d3565b60405180910390a25050565b6040516bffffffffffffffffffffffff19606085901b16602082015260348101839052605481018290525f906074016040516020818303038152906040528051906020012090509392505050565b5f5f5f5f60045f8681526020019081526020015f206040518060c00160405290815f82015f9054906101000a90046001600160a01b03166001600160a01b03166001600160a01b03168152602001600182015f9054906101000a90046001600160a01b03166001600160a01b03166001600160a01b03168152602001600282015481526020016003820154815260200160048201548152602001600582015f9054906101000a900460ff16151515158152505090505f60035f836040015181526020019081526020015f206040518060e00160405290815f82015f9054906101000a90046001600160a01b03166001600160a01b03166001600160a01b0316815260200160018201548152602001600282015481526020016003820154815260200160048201548152602001600582015f9054906101000a900460ff161515151581526020016005820160019054906101000a900460ff16151515158152505090508060a0015194508060c0015193506064826080015183606001516108b6919061215f565b6108c09190612176565b9496939550505050565b6108d2611c1c565b5f6108dc83611452565b90508082111561092e5760405162461bcd60e51b815260206004820152601960248201527f696e73756666696369656e74206672656520726573657276650000000000000060448201526064016104e0565b6109426001600160a01b0384163384611c48565b826001600160a01b03167fcf3e2ed8c545de2d902ea60194df2faa514dad26e69937899d836f775b6973a88360405161097d91815260200190565b60405180910390a2505050565b610992611c1c565b5f81116109cf5760405162461bcd60e51b815260206004820152600b60248201526a1e995c9bc8185b5bdd5b9d60aa1b60448201526064016104e0565b6109e46001600160a01b038316333084611c82565b816001600160a01b03167fb52b99b9e83551fcbd069b559cc3e823e2a1a3bad8ece46561ea77524394c850826040516106d691815260200190565b6001600160a01b0381165f90815260026020818152604080842081516101008082018452825482526001830154948201949094529381015460ff8082169386019390935292909204811660608481019190915260038301546080850152600483015460a0850152600583015460c085015260069092015416151560e08301819052909190610ae25760405162461bcd60e51b815260206004820152601060248201526f746f6b656e206e6f742061637469766560801b60448201526064016104e0565b6001546040516302c68be360e31b81526001600160a01b038681166004830152909116906316345f18906024016040805180830381865afa158015610b29573d5f5f3e3d5ffd5b505050506040513d601f19601f82011682018060405250810190610b4d9190612195565b50925082610b925760405162461bcd60e51b81526020600482015260126024820152716f7261636c6520756e617661696c61626c6560701b60448201526064016104e0565b5f816060015160ff166002610ba7919061215f565b604083015190915060ff16610bbc818361215f565b67ffffffffffffffff811115610bd457610bd46121b7565b604051908082528060200260200182016040528015610bfd578160200160208202803683370190505b5093505f5b82811015610cb6575f846060015160ff168210610c3b576060850151610c2b9060ff16836121cb565b610c369060016121de565b610c4e565b81856060015160ff16610c4e91906121cb565b90505f5b83811015610cac57610c7382610c698360016121de565b886080015161179a565b8782610c7f878761215f565b610c8991906121de565b81518110610c9957610c996121f1565b6020908102919091010152600101610c52565b5050600101610c02565b50505050915091565b5f610cc8611cbe565b6001600160a01b0385165f9081526002602081815260409283902083516101008082018652825482526001830154938201939093529281015460ff80821695850195909552919091048316606083015260038101546080830152600481015460a0830152600581015460c083015260060154909116151560e08201819052610d855760405162461bcd60e51b815260206004820152601060248201526f746f6b656e206e6f742061637469766560801b60448201526064016104e0565b845f0b5f03610dd65760405162461bcd60e51b815260206004820152601860248201527f6d757374207069636b2061206e6f6e2d7a65726f20726f77000000000000000060448201526064016104e0565b60018460ff1610158015610df45750806040015160ff168460ff1611155b610e315760405162461bcd60e51b815260206004820152600e60248201526d34b73b30b634b21031b7b63ab6b760911b60448201526064016104e0565b8060c00151831015610e755760405162461bcd60e51b815260206004820152600d60248201526c18995b1bddc81b5a5b8818995d609a1b60448201526064016104e0565b8060a00151831115610eb95760405162461bcd60e51b815260206004820152600d60248201526c18589bdd99481b585e0818995d609a1b60448201526064016104e0565b6001546040516302c68be360e31b81526001600160a01b0388811660048301525f9216906316345f18906024016040805180830381865afa158015610f00573d5f5f3e3d5ffd5b505050506040513d601f19601f82011682018060405250810190610f249190612195565b5090505f8111610f6b5760405162461bcd60e51b81526020600482015260126024820152716f7261636c6520756e617661696c61626c6560701b60448201526064016104e0565b5f5f875f0b13610f8657865f0b610f8190612205565b610f8a565b865f0b5b90505f5f885f0b1315610fb4578351610fa3908361215f565b610fad90846121de565b905061101f565b8351610fc0908361215f565b83116110065760405162461bcd60e51b81526020600482015260156024820152747072696365206c6576656c20756e646572666c6f7760581b60448201526064016104e0565b8351611012908361215f565b61101c90846121cb565b90505b5f84602001518860ff16611033919061215f565b61103d90426121de565b90505f611052848a60ff16886080015161179a565b90505f6064611061838b61215f565b61106b9190612176565b6001600160a01b038d165f908152600660205260409020549091506110919082906121de565b6040516370a0823160e01b81523060048201526001600160a01b038e16906370a0823190602401602060405180830381865afa1580156110d3573d5f5f3e3d5ffd5b505050506040513d601f19601f820116820180604052508101906110f7919061221f565b10156111455760405162461bcd60e51b815260206004820152601a60248201527f696e73756666696369656e7420686f757365207265736572766500000000000060448201526064016104e0565b61115a6001600160a01b038d1633308c611c82565b5f6111668d86866106e2565b5f818152600360205260409020549091506001600160a01b031661126a576040518060e001604052808e6001600160a01b031681526020018681526020018581526020018481526020015f81526020015f151581526020015f151581525060035f8381526020019081526020015f205f820151815f015f6101000a8154816001600160a01b0302191690836001600160a01b031602179055506020820151816001015560408201518160020155606082015181600301556080820151816004015560a0820151816005015f6101000a81548160ff02191690831515021790555060c08201518160050160016101000a81548160ff0219169083151502179055509050505b5f81815260036020526040812060040180548c929061128a9084906121de565b90915550506001600160a01b038d165f90815260066020526040812080548492906112b69084906121de565b9091555050600580545f906112ca90612236565b91905081905598506040518060c00160405280336001600160a01b031681526020018e6001600160a01b031681526020018281526020018b81526020018481526020015f151581525060045f8b81526020019081526020015f205f820151815f015f6101000a8154816001600160a01b0302191690836001600160a01b031602179055506020820151816001015f6101000a8154816001600160a01b0302191690836001600160a01b0316021790555060408201518160020155606082015181600301556080820151816004015560a0820151816005015f6101000a81548160ff0219169083151502179055509050508c6001600160a01b0316336001600160a01b03168a7f76747cd2c690c1820cdf98aebce351f7b005f108741340b3ad70bbeb5e43a57f848e888b8b604051611424959493929190948552602085019390935260408401919091526060830152608082015260a00190565b60405180910390a4505050505050505061144a60015f51602061227e5f395f51905f5255565b949350505050565b6040516370a0823160e01b81523060048201525f9081906001600160a01b038416906370a0823190602401602060405180830381865afa158015611498573d5f5f3e3d5ffd5b505050506040513d601f19601f820116820180604052508101906114bc919061221f565b6001600160a01b0384165f908152600660205260409020549091508082116114e4575f61144a565b61144a81836121cb565b6114f6611cbe565b5f81815260046020526040902080546001600160a01b0316331461154b5760405162461bcd60e51b815260206004820152600c60248201526b1b9bdd081e5bdd5c8818995d60a21b60448201526064016104e0565b600581015460ff16156115925760405162461bcd60e51b815260206004820152600f60248201526e185b1c9958591e4818db185a5b5959608a1b60448201526064016104e0565b6002808201545f90815260036020818152604092839020835160e08101855281546001600160a01b03168152600182015492810192909252938401549281019290925282015460608201526004820154608082015260059091015460ff808216151560a0840181905261010090920416151560c08301526116495760405162461bcd60e51b815260206004820152601160248201527018d95b1b081b9bdd081c995cdbdb1d9959607a1b60448201526064016104e0565b8060c001516116855760405162461bcd60e51b815260206004820152600860248201526718995d081b1bdcdd60c21b60448201526064016104e0565b5f60648360040154846003015461169c919061215f565b6116a69190612176565b60058401805460ff191660019081179091558401546001600160a01b03165f9081526006602052604090205490915081116117115760018301546001600160a01b03165f90815260066020526040812080548392906117069084906121cb565b9091555061172e9050565b60018301546001600160a01b03165f908152600660205260408120555b6001830154611747906001600160a01b03163383611c48565b604051818152339085907f5380cf6fe903b40c6d5a9e0dfbca2f3a423f0a21520b4d5947ed5169bdba946d9060200160405180910390a350505061179760015f51602061227e5f395f51905f5255565b50565b5f5f841180156117a957505f83115b6117e85760405162461bcd60e51b815260206004820152601060248201526f696e76616c69642064697374616e636560801b60448201526064016104e0565b5f6117f3848661215f565b90505f81600103611806575060c861184f565b60038211611817575061012c61184f565b6006821161182857506101f461184f565b600a8211611839575061032061184f565b600f821161184a57506104b061184f565b506107d05b61271061185c85826121cb565b611866908361215f565b6118709190612176565b9695505050505050565b611882611c1c565b61188b5f611cd9565b565b611895611c1c565b6001600160a01b0381166118d95760405162461bcd60e51b815260206004820152600b60248201526a7a65726f206f7261636c6560a81b60448201526064016104e0565b600180546001600160a01b0319166001600160a01b0392909216919091179055565b5f81815260036020526040902080546001600160a01b03166119555760405162461bcd60e51b815260206004820152601360248201527218d95b1b08191bd95cc81b9bdd08195e1a5cdd606a1b60448201526064016104e0565b600581015460ff161561199d5760405162461bcd60e51b815260206004820152601060248201526f185b1c9958591e481c995cdbdb1d995960821b60448201526064016104e0565b80600201544210156119e55760405162461bcd60e51b8152602060048201526011602482015270189d58dad95d081b9bdd0818db1bdcd959607a1b60448201526064016104e0565b6001548154600283015460405163cccf7bed60e01b81526001600160a01b03928316600482015260248101919091525f928392169063cccf7bed906044016040805180830381865afa158015611a3d573d5f5f3e3d5ffd5b505050506040513d601f19601f82011682018060405250810190611a61919061224e565b9150915080611abd5760405162461bcd60e51b815260206004820152602260248201527f7265736f6c7574696f6e207072696365206e6f7420617661696c61626c652079604482015261195d60f21b60648201526084016104e0565b82546001600160a01b03165f9081526002602081815260408084208151610100818101845282548083526001840154958301959095528286015460ff80821695840195909552048316606082015260038201546080820152600482015460a0820152600582015460c0820152600690910154909116151560e08201529291611b4491612176565b90505f818660010154611b5791906121cb565b8510158015611b755750818660010154611b7191906121de565b8511155b6005870180548215156101000261ffff1990911617600117905560405190915087907fea4e1a621c03fc01f528ed16886787c2f03397f8abbe970a2ceaeb0210b88b7690611bd190849089909115158252602082015260400190565b60405180910390a250505050505050565b611bea611c1c565b6001600160a01b038116611c1357604051631e4fbdf760e01b81525f60048201526024016104e0565b61179781611cd9565b5f546001600160a01b0316331461188b5760405163118cdaa760e01b81523360048201526024016104e0565b611c558383836001611d28565b611c7d57604051635274afe760e01b81526001600160a01b03841660048201526024016104e0565b505050565b611c90848484846001611d8a565b611cb857604051635274afe760e01b81526001600160a01b03851660048201526024016104e0565b50505050565b611cc6611df7565b60025f51602061227e5f395f51905f5255565b5f80546001600160a01b038381166001600160a01b0319831681178455604051919092169283917f8be0079c531659141344cd1fd0a4f28419497f9722a3daafe3b4186f6b6457e09190a35050565b60405163a9059cbb60e01b5f8181526001600160a01b038616600452602485905291602083604481808b5af1925060015f51148316611d7e578383151615611d72573d5f823e3d81fd5b5f873b113d1516831692505b60405250949350505050565b6040516323b872dd60e01b5f8181526001600160a01b038781166004528616602452604485905291602083606481808c5af1925060015f51148316611de6578383151615611dda573d5f823e3d81fd5b5f883b113d1516831692505b604052505f60605295945050505050565b5f51602061227e5f395f51905f525460020361188b57604051633ee5aeb560e01b815260040160405180910390fd5b80356001600160a01b0381168114611e3c575f5ffd5b919050565b5f5f828403610120811215611e54575f5ffd5b611e5d84611e26565b9250610100601f1982011215611e71575f5ffd5b506020830190509250929050565b5f5f5f60608486031215611e91575f5ffd5b611e9a84611e26565b95602085013595506040909401359392505050565b5f60208284031215611ebf575f5ffd5b5035919050565b5f5f60408385031215611ed7575f5ffd5b611ee083611e26565b946020939093013593505050565b5f60208284031215611efe575f5ffd5b611f0782611e26565b9392505050565b5f60408201848352604060208401528084518083526060850191506020860192505f5b81811015611f4f578351835260209384019390920191600101611f31565b50909695505050505050565b60ff81168114611797575f5ffd5b5f5f5f5f60808587031215611f7c575f5ffd5b611f8585611e26565b93506020850135805f0b8114611f99575f5ffd5b92506040850135611fa981611f5b565b9396929550929360600135925050565b5f5f5f60608486031215611fcb575f5ffd5b505081359360208301359350604090920135919050565b5f60208284031215611ff2575f5ffd5b8135611f0781611f5b565b5f813561200981611f5b565b92915050565b8015158114611797575f5ffd5b5f81356120098161200f565b8135815560208201356001820155600281015f604084013561204981611f5b565b825460ff191660ff9091161782555061207d61206760608501611ffd565b825461ff00191660089190911b61ff0016178255565b506080820135600382015560a0820135600482015560c082013560058201556120c46120ab60e0840161201c565b6006830160ff1981541660ff8315151681178255505050565b5050565b8035611e3c8161200f565b8135815260208083013590820152610100810160408301356120f481611f5b565b60ff166040830152606083013561210a81611f5b565b60ff1660608301526080838101359083015260a0808401359083015260c0808401359083015261213c60e084016120c8565b80151560e08401525092915050565b634e487b7160e01b5f52601160045260245ffd5b80820281158282048414176120095761200961214b565b5f8261219057634e487b7160e01b5f52601260045260245ffd5b500490565b5f5f604083850312156121a6575f5ffd5b505080516020909101519092909150565b634e487b7160e01b5f52604160045260245ffd5b818103818111156120095761200961214b565b808201808211156120095761200961214b565b634e487b7160e01b5f52603260045260245ffd5b5f600160ff1b82016122195761221961214b565b505f0390565b5f6020828403121561222f575f5ffd5b5051919050565b5f600182016122475761224761214b565b5060010190565b5f5f6040838503121561225f575f5ffd5b825160208401519092506122728161200f565b80915050925092905056fe9b779b17422d0df92223018b32b4d1fa46e071723d6817e2486d003becc55f00a2646970667358221220cc381998ce73ed06a41d00abf62123c0b068ab72d9ba92111d67b934b8195cc864736f6c634300081b0033","linkReferences":{}},"methodIdentifiers":{"betCount()":"cf094497","betStatus(uint256)":"17d2f7f7","bets(uint256)":"22af00fa","calculateMultiplier(uint256,uint256,uint256)":"711694ec","cells(bytes32)":"1bcceecd","claimWinnings(uint256)":"677bd9ff","freeReserve(address)":"65628dbc","fundReserve(address,uint256)":"2f517f2e","getCellId(address,uint256,uint256)":"0f63517b","getGridSnapshot(address)":"563426f3","gridConfigs(address)":"2056eb51","oracle()":"7dc0d1d0","owner()":"8da5cb5b","pendingPayouts(address)":"784712f2","placeBet(address,int8,uint8,uint256)":"5c31a6a8","renounceOwnership()":"715018a6","resolveCell(bytes32)":"e9f7bccb","setGridConfig(address,(uint256,uint256,uint8,uint8,uint256,uint256,uint256,bool))":"08a83fd4","setOracle(address)":"7adbf973","transferOwnership(address)":"f2fde38b","withdrawReserve(address,uint256)":"1c58ce14"},"id":17}